{
  "_format": "hh-sol-artifact-1",
  "contractName": "EDUToken",
  "sourceName": "contracts/EDUToken.sol",
  "abi": [
    {
      "inputs": [
        {
          "internalType": "string",
          "name": "name",
          "type": "string"
        },
        {
          "internalType": "string",
          "name": "symbol",
          "type": "string"
        },
        {
          "internalType": "address",
          "name": "initialOwner",
          "type": "address"
        }
      ],
      "stateMutability": "nonpayable",
      "type": "constructor"
    },
    {
      "anonymous": false,
      "inputs": [
        {
          "indexed": true,
          "internalType": "address",
          "name": "owner",
          "type": "address"
        },
        {
          "indexed": true,
          "internalType": "address",
          "name": "spender",
          "type": "address"
        },
        {
          "indexed": false,
          "internalType": "uint256",
          "name": "value",
          "type": "uint256"
        }
      ],
      "name": "Approval",
      "type": "event"
    },
    {
      "anonymous": false,
      "inputs": [
        {
          "indexed": true,
          "internalType": "address",
          "name": "minter",
          "type": "address"
        }
      ],
      "name": "MinterAdded",
      "type": "event"
    },
    {
      "anonymous": false,
      "inputs": [
        {
          "indexed": true,
          "internalType": "address",
          "name": "minter",
          "type": "address"
        }
      ],
      "name": "MinterRemoved",
      "type": "event"
    },
    {
      "anonymous": false,
      "inputs": [
        {
          "indexed": true,
          "internalType": "address",
          "name": "previousOwner",
          "type": "address"
        },
        {
          "indexed": true,
          "internalType": "address",
          "name": "newOwner",
          "type": "address"
        }
      ],
      "name": "OwnershipTransferred",
      "type": "event"
    },
    {
      "anonymous": false,
      "inputs": [
        {
          "indexed": false,
          "internalType": "address",
          "name": "account",
          "type": "address"
        }
      ],
      "name": "Paused",
      "type": "event"
    },
    {
      "anonymous": false,
      "inputs": [
        {
          "indexed": true,
          "internalType": "address",
          "name": "user",
          "type": "address"
        },
        {
          "indexed": false,
          "internalType": "uint256",
          "name": "amount",
          "type": "uint256"
        },
        {
          "indexed": false,
          "internalType": "string",
          "name": "item",
          "type": "string"
        }
      ],
      "name": "TokensRedeemed",
      "type": "event"
    },
    {
      "anonymous": false,
      "inputs": [
        {
          "indexed": true,
          "internalType": "address",
          "name": "user",
          "type": "address"
        },
        {
          "indexed": false,
          "internalType": "uint256",
          "name": "amount",
          "type": "uint256"
        },
        {
          "indexed": false,
          "internalType": "string",
          "name": "reason",
          "type": "string"
        }
      ],
      "name": "TokensRewarded",
      "type": "event"
    },
    {
      "anonymous": false,
      "inputs": [
        {
          "indexed": true,
          "internalType": "address",
          "name": "from",
          "type": "address"
        },
        {
          "indexed": true,
          "internalType": "address",
          "name": "to",
          "type": "address"
        },
        {
          "indexed": false,
          "internalType": "uint256",
          "name": "value",
          "type": "uint256"
        }
      ],
      "name": "Transfer",
      "type": "event"
    },
    {
      "anonymous": false,
      "inputs": [
        {
          "indexed": false,
          "internalType": "address",
          "name": "account",
          "type": "address"
        }
      ],
      "name": "Unpaused",
      "type": "event"
    },
    {
      "inputs": [],
      "name": "MAX_SUPPLY",
      "outputs": [
        {
          "internalType": "uint256",
          "name": "",
          "type": "uint256"
        }
      ],
      "stateMutability": "view",
      "type": "function"
    },
    {
      "inputs": [
        {
          "internalType": "address",
          "name": "minter",
          "type": "address"
        }
      ],
      "name": "addMinter",
      "outputs": [],
      "stateMutability": "nonpayable",
      "type": "function"
    },
    {
      "inputs": [
        {
          "internalType": "address",
          "name": "owner",
          "type": "address"
        },
        {
          "internalType": "address",
          "name": "spender",
          "type": "address"
        }
      ],
      "name": "allowance",
      "outputs": [
        {
          "internalType": "uint256",
          "name": "",
          "type": "uint256"
        }
      ],
      "stateMutability": "view",
      "type": "function"
    },
    {
      "inputs": [
        {
          "internalType": "address",
          "name": "spender",
          "type": "address"
        },
        {
          "internalType": "uint256",
          "name": "amount",
          "type": "uint256"
        }
      ],
      "name": "approve",
      "outputs": [
        {
          "internalType": "bool",
          "name": "",
          "type": "bool"
        }
      ],
      "stateMutability": "nonpayable",
      "type": "function"
    },
    {
      "inputs": [
        {
          "internalType": "address",
          "name": "",
          "type": "address"
        }
      ],
      "name": "authorizedMinters",
      "outputs": [
        {
          "internalType": "bool",
          "name": "",
          "type": "bool"
        }
      ],
      "stateMutability": "view",
      "type": "function"
    },
    {
      "inputs": [
        {
          "internalType": "address",
          "name": "account",
          "type": "address"
        }
      ],
      "name": "balanceOf",
      "outputs": [
        {
          "internalType": "uint256",
          "name": "",
          "type": "uint256"
        }
      ],
      "stateMutability": "view",
      "type": "function"
    },
    {
      "inputs": [
        {
          "internalType": "address[]",
          "name": "recipients",
          "type": "address[]"
        },
        {
          "internalType": "uint256[]",
          "name": "amounts",
          "type": "uint256[]"
        },
        {
          "internalType": "string",
          "name": "reason",
          "type": "string"
        }
      ],
      "name": "batchRewardTokens",
      "outputs": [],
      "stateMutability": "nonpayable",
      "type": "function"
    },
    {
      "inputs": [
        {
          "internalType": "uint256",
          "name": "amount",
          "type": "uint256"
        }
      ],
      "name": "burn",
      "outputs": [],
      "stateMutability": "nonpayable",
      "type": "function"
    },
    {
      "inputs": [
        {
          "internalType": "address",
          "name": "account",
          "type": "address"
        },
        {
          "internalType": "uint256",
          "name": "amount",
          "type": "uint256"
        }
      ],
      "name": "burnFrom",
      "outputs": [],
      "stateMutability": "nonpayable",
      "type": "function"
    },
    {
      "inputs": [],
      "name": "decimals",
      "outputs": [
        {
          "internalType": "uint8",
          "name": "",
          "type": "uint8"
        }
      ],
      "stateMutability": "view",
      "type": "function"
    },
    {
      "inputs": [
        {
          "internalType": "address",
          "name": "spender",
          "type": "address"
        },
        {
          "internalType": "uint256",
          "name": "subtractedValue",
          "type": "uint256"
        }
      ],
      "name": "decreaseAllowance",
      "outputs": [
        {
          "internalType": "bool",
          "name": "",
          "type": "bool"
        }
      ],
      "stateMutability": "nonpayable",
      "type": "function"
    },
    {
      "inputs": [
        {
          "internalType": "address",
          "name": "spender",
          "type": "address"
        },
        {
          "internalType": "uint256",
          "name": "addedValue",
          "type": "uint256"
        }
      ],
      "name": "increaseAllowance",
      "outputs": [
        {
          "internalType": "bool",
          "name": "",
          "type": "bool"
        }
      ],
      "stateMutability": "nonpayable",
      "type": "function"
    },
    {
      "inputs": [
        {
          "internalType": "address",
          "name": "account",
          "type": "address"
        }
      ],
      "name": "isMinter",
      "outputs": [
        {
          "internalType": "bool",
          "name": "",
          "type": "bool"
        }
      ],
      "stateMutability": "view",
      "type": "function"
    },
    {
      "inputs": [],
      "name": "name",
      "outputs": [
        {
          "internalType": "string",
          "name": "",
          "type": "string"
        }
      ],
      "stateMutability": "view",
      "type": "function"
    },
    {
      "inputs": [],
      "name": "owner",
      "outputs": [
        {
          "internalType": "address",
          "name": "",
          "type": "address"
        }
      ],
      "stateMutability": "view",
      "type": "function"
    },
    {
      "inputs": [],
      "name": "pause",
      "outputs": [],
      "stateMutability": "nonpayable",
      "type": "function"
    },
    {
      "inputs": [],
      "name": "paused",
      "outputs": [
        {
          "internalType": "bool",
          "name": "",
          "type": "bool"
        }
      ],
      "stateMutability": "view",
      "type": "function"
    },
    {
      "inputs": [
        {
          "internalType": "uint256",
          "name": "amount",
          "type": "uint256"
        },
        {
          "internalType": "string",
          "name": "item",
          "type": "string"
        }
      ],
      "name": "redeemTokens",
      "outputs": [],
      "stateMutability": "nonpayable",
      "type": "function"
    },
    {
      "inputs": [],
      "name": "remainingSupply",
      "outputs": [
        {
          "internalType": "uint256",
          "name": "",
          "type": "uint256"
        }
      ],
      "stateMutability": "view",
      "type": "function"
    },
    {
      "inputs": [
        {
          "internalType": "address",
          "name": "minter",
          "type": "address"
        }
      ],
      "name": "removeMinter",
      "outputs": [],
      "stateMutability": "nonpayable",
      "type": "function"
    },
    {
      "inputs": [],
      "name": "renounceOwnership",
      "outputs": [],
      "stateMutability": "nonpayable",
      "type": "function"
    },
    {
      "inputs": [
        {
          "internalType": "address",
          "name": "to",
          "type": "address"
        },
        {
          "internalType": "uint256",
          "name": "amount",
          "type": "uint256"
        },
        {
          "internalType": "string",
          "name": "reason",
          "type": "string"
        }
      ],
      "name": "rewardTokens",
      "outputs": [],
      "stateMutability": "nonpayable",
      "type": "function"
    },
    {
      "inputs": [],
      "name": "symbol",
      "outputs": [
        {
          "internalType": "string",
          "name": "",
          "type": "string"
        }
      ],
      "stateMutability": "view",
      "type": "function"
    },
    {
      "inputs": [],
      "name": "totalSupply",
      "outputs": [
        {
          "internalType": "uint256",
          "name": "",
          "type": "uint256"
        }
      ],
      "stateMutability": "view",
      "type": "function"
    },
    {
      "inputs": [
        {
          "internalType": "address",
          "name": "to",
          "type": "address"
        },
        {
          "internalType": "uint256",
          "name": "amount",
          "type": "uint256"
        }
      ],
      "name": "transfer",
      "outputs": [
        {
          "internalType": "bool",
          "name": "",
          "type": "bool"
        }
      ],
      "stateMutability": "nonpayable",
      "type": "function"
    },
    {
      "inputs": [
        {
          "internalType": "address",
          "name": "from",
          "type": "address"
        },
        {
          "internalType": "address",
          "name": "to",
          "type": "address"
        },
        {
          "internalType": "uint256",
          "name": "amount",
          "type": "uint256"
        }
      ],
      "name": "transferFrom",
      "outputs": [
        {
          "internalType": "bool",
          "name": "",
          "type": "bool"
        }
      ],
      "stateMutability": "nonpayable",
      "type": "function"
    },
    {
      "inputs": [
        {
          "internalType": "address",
          "name": "newOwner",
          "type": "address"
        }
      ],
      "name": "transferOwnership",
      "outputs": [],
      "stateMutability": "nonpayable",
      "type": "function"
    },
    {
      "inputs": [],
      "name": "unpause",
      "outputs": [],
      "stateMutability": "nonpayable",
      "type": "function"
    }
  ],
  "bytecode": "0x60406080815234620004945762001d6090813803806200001f8162000499565b938439820191606081840312620004945780516001600160401b03939084811162000494578162000052918401620004bf565b90602090818401518681116200049457859162000071918601620004bf565b9301516001600160a01b038116959093908685036200049457835190808211620003945760038054926001968785811c9516801562000489575b8786101462000473578190601f958681116200041d575b508790868311600114620003b657600092620003aa575b505060001982841b1c191690871b1781555b8351918211620003945760049384548781811c9116801562000389575b878210146200037457908185859493116200031c575b508690858411600114620002b157600093620002a5575b505082871b92600019911b1c19161782555b6200016860ff19958660055416600555620001623362000531565b62000531565b861562000266575060ff6005541662000232576002546a084595161401484a000000918282018092116200021d575060007fddf252ad1be2c89b69c2b068fc378daa952ba7f163c4a11628f55a4df523b3ef84600695948a946002558484528382528984208181540190558951908152a38560005252826000209182541617905551907f6ae172837ea30b801fbfcdd4108aa1d5bf8ff775444fd70256b44e6bf3dfc3f6600080a26117d290816200058e8239f35b601190634e487b7160e01b6000525260246000fd5b60649185519162461bcd60e51b8352820152601060248201526f14185d5cd8589b194e881c185d5cd95960821b6044820152fd5b60649286519262461bcd60e51b845283015260248201527f45524332303a206d696e7420746f20746865207a65726f2061646472657373006044820152fd5b01519150388062000135565b9190889450601f1984169287600052886000209360005b8a828210620003055750508511620002ea575b50505050811b01825562000147565b01519060f884600019921b161c1916905538808080620002db565b8385015187558c98909601959384019301620002c8565b9091925085600052866000208580860160051c8201928987106200036a575b918a9187969594930160051c01915b8281106200035a5750506200011e565b600081558695508a91016200034a565b925081926200033b565b602286634e487b7160e01b6000525260246000fd5b90607f169062000108565b634e487b7160e01b600052604160045260246000fd5b015190503880620000d9565b90899350601f1983169185600052896000209260005b8b828210620004065750508411620003ed575b505050811b018155620000eb565b015160001983861b60f8161c19169055388080620003df565b8385015186558d97909501949384019301620003cc565b90915083600052876000208680850160051c8201928a861062000469575b918b91869594930160051c01915b82811062000459575050620000c2565b600081558594508b910162000449565b925081926200043b565b634e487b7160e01b600052602260045260246000fd5b94607f1694620000ab565b600080fd5b6040519190601f01601f191682016001600160401b038111838210176200039457604052565b919080601f84011215620004945782516001600160401b0381116200039457602090620004f5601f8201601f1916830162000499565b92818452828287010111620004945760005b8181106200051d57508260009394955001015290565b858101830151848201840152820162000507565b60058054610100600160a81b03198116600884811b610100600160a81b0316919091179092556001600160a01b0392831692911c167f8be0079c531659141344cd1fd0a4f28419497f9722a3daafe3b4186f6b6457e0600080a356fe6080604081815260048036101561001557600080fd5b600092833560e01c90816306fdde0314610e5557508063095ea7b314610e2b5780630ceb382e14610d5f57806317dccbbc14610c3157806318160ddd14610c1257806323b872dd14610bd55780633092afd514610b16578063313ce56714610afa57806332cb6b0c14610ad45780633950935114610a845780633cf1fb3c1461084c5780633f4ba83a146107b757806342966c68146107995780635c975abb1461077557806370a082311461073e578063715018a6146106dd57806379cc6790146106aa5780638456cb591461064f5780638da5cb5b1461062257806395d89b4114610502578063983b2d56146103df578063a457c2d714610338578063a9059cbb14610307578063aa271e1a146102c9578063aa2fe91b146102c9578063da0239a61461027f578063dd62ed3e146102325763f2fde38b1461015757600080fd5b3461022e57602036600319011261022e57610170610f93565b610178611023565b6001600160a01b038181169390929084156101dc57505060058054610100600160a81b03198116600893841b610100600160a81b031617909155901c167f8be0079c531659141344cd1fd0a4f28419497f9722a3daafe3b4186f6b6457e08380a380f35b906020608492519162461bcd60e51b8352820152602660248201527f4f776e61626c653a206e6577206f776e657220697320746865207a65726f206160448201526564647265737360d01b6064820152fd5b8280fd5b50503461027b578060031936011261027b5780602092610250610f93565b610258610fae565b6001600160a01b0391821683526001865283832091168252845220549051908152f35b5080fd5b5091903461027b578160031936011261027b57600254916a52b7d2dcc80cd2e40000009283039283116102b6576020838351908152f35b634e487b7160e01b815260118452602490fd5b50503461027b57602036600319011261027b5760209160ff9082906001600160a01b036102f4610f93565b1681526006855220541690519015158152f35b50503461027b578060031936011261027b57602090610331610327610f93565b60243590336110a1565b5160018152f35b5082346103dc57826003193601126103dc57610352610f93565b918360243592338152600160205281812060018060a01b038616825260205220549082821061038b576020856103318585038733611217565b608490602086519162461bcd60e51b8352820152602560248201527f45524332303a2064656372656173656420616c6c6f77616e63652062656c6f77604482015264207a65726f60d81b6064820152fd5b80fd5b50903461022e57602036600319011261022e576103fa610f93565b610402611023565b6001600160a01b03169182156104b057828452600660205260ff8285205416610462575081835260066020528220805460ff191660011790557f6ae172837ea30b801fbfcdd4108aa1d5bf8ff775444fd70256b44e6bf3dfc3f68280a280f35b6020608492519162461bcd60e51b8352820152602360248201527f454455546f6b656e3a206d696e74657220616c726561647920617574686f72696044820152621e995960ea1b6064820152fd5b6020608492519162461bcd60e51b8352820152602760248201527f454455546f6b656e3a206d696e7465722063616e6e6f74206265207a65726f206044820152666164647265737360c81b6064820152fd5b5091903461027b578160031936011261027b57805190828454600181811c90808316928315610618575b6020938484108114610605578388529081156105e95750600114610594575b505050829003601f01601f191682019267ffffffffffffffff841183851017610581575082918261057d925282610f4a565b0390f35b634e487b7160e01b815260418552602490fd5b8787529192508591837f8a35acfbc15ff81a39ae7d344fd709f28e8600b4aa8c65c6b64bfe7fe36bd19b5b8385106105d5575050505083010138808061054b565b8054888601830152930192849082016105bf565b60ff1916878501525050151560051b840101905038808061054b565b634e487b7160e01b895260228a52602489fd5b91607f169161052c565b50503461027b578160031936011261027b57600554905160089190911c6001600160a01b03168152602090f35b50503461027b578160031936011261027b5760207f62e78cea01bee320cd4e420270b5ea74000d11b0c9f74754ebdbfc544b05a2589161068d611023565b610695611758565b600160ff19600554161760055551338152a180f35b50503461027b573660031901126103dc576106da6106c6610f93565b602435906106d5823383611319565b6113b1565b80f35b83346103dc57806003193601126103dc576106f6611023565b60058054610100600160a81b03198116909155819060081c6001600160a01b03167f8be0079c531659141344cd1fd0a4f28419497f9722a3daafe3b4186f6b6457e08280a380f35b50503461027b57602036600319011261027b5760209181906001600160a01b03610766610f93565b16815280845220549051908152f35b50503461027b578160031936011261027b5760209060ff6005541690519015158152f35b83823461027b57602036600319011261027b576106da9035336113b1565b503461022e578260031936011261022e576107d0611023565b6005549060ff821615610812575060ff1916600555513381527f5db9ee0a495bf2e6ff9c91a7834c1ba4fdd244a5e8aa4e537bd38aeae4b073aa90602090a180f35b606490602084519162461bcd60e51b8352820152601460248201527314185d5cd8589b194e881b9bdd081c185d5cd95960621b6044820152fd5b5082903461027b57606036600319011261027b5767ffffffffffffffff8135818111610a805761087f9036908401610ff2565b919094602435828111610a7c576108999036908601610ff2565b92604435908111610a78576108b19036908701610fc4565b91909533885260066020526108cb60ff858a2054166114c0565b848603610a355785156109f9575086875b8581106109d457506a52b7d2dcc80cd2e40000006108ff6109069260025461107e565b11156115e0565b865b858110610913578780f35b80857fb969d134776a7f04430dbbcac4e68734b1c6c5adcecbf68c3cbe6a9a4f2c8a1d6109a7610964848b8f6109a28a61099b6109cf9b60018060a01b039a6109718c610969610964858b8b61171e565b611744565b161515611521565b61098761097f83838761171e565b35151561157d565b61099561096483898961171e565b9361171e565b3590611664565b61171e565b916109b3848a8861171e565b35926109c7888d8b51948594169684611636565b0390a261170f565b610908565b906109ee6109f4916109e784898761171e565b359061107e565b9161170f565b6108dc565b606490602085519162461bcd60e51b83528201526016602482015275454455546f6b656e3a20656d7074792061727261797360501b6044820152fd5b606490602085519162461bcd60e51b8352820152602060248201527f454455546f6b656e3a20617272617973206c656e677468206d69736d617463686044820152fd5b8680fd5b8580fd5b8380fd5b50503461027b578060031936011261027b57610331602092610acd610aa7610f93565b338352600186528483206001600160a01b0382168452865291849020546024359061107e565b9033611217565b50503461027b578160031936011261027b57602090516a52b7d2dcc80cd2e40000008152f35b50503461027b578160031936011261027b576020905160128152f35b50903461022e57602036600319011261022e57610b31610f93565b610b39611023565b6001600160a01b031680845260066020528184205490929060ff1615610b93575081835260066020528220805460ff191690557fe94479a9f7e1952cc78f2d6baab678adc1b772d936c6583def489e524cb666928280a280f35b6020606492519162461bcd60e51b8352820152601f60248201527f454455546f6b656e3a206d696e746572206e6f7420617574686f72697a6564006044820152fd5b50503461027b57606036600319011261027b57602090610331610bf6610f93565b610bfe610fae565b60443591610c0d833383611319565b6110a1565b50503461027b578160031936011261027b576020906002549051908152f35b5082903461027b578260031936011261027b5780359060243567ffffffffffffffff8111610a8057610c669036908301610fc4565b918315610d055733855284602052838686205410610cc25750610cbc839495610cb07f840b44fdbcb5cc554d649d4eff35e951766f31d646497b364a9cd6d6677d3e1495336113b1565b51928392339684611636565b0390a280f35b606490602087519162461bcd60e51b8352820152601e60248201527f454455546f6b656e3a20696e73756666696369656e742062616c616e636500006044820152fd5b608490602087519162461bcd60e51b8352820152602e60248201527f454455546f6b656e3a2072656465656d20616d6f756e74206d7573742062652060448201526d067726561746572207468616e20360941b6064820152fd5b503461022e57606036600319011261022e57610d79610f93565b916024356044359267ffffffffffffffff8411610a7c57610dc1610cbc917fb969d134776a7f04430dbbcac4e68734b1c6c5adcecbf68c3cbe6a9a4f2c8a1d95369101610fc4565b90933388526006602052610dda60ff828a2054166114c0565b6001600160a01b03871696610e21908590610df68a1515611521565b610e0182151561157d565b610e1c6a52b7d2dcc80cd2e40000006108ff8460025461107e565b611664565b5193849384611636565b50503461027b578060031936011261027b57602090610331610e4b610f93565b6024359033611217565b849150833461022e578260031936011261022e5782600354600181811c90808316928315610f40575b602093848410811461060557838852908115610f245750600114610ece57505050829003601f01601f191682019267ffffffffffffffff841183851017610581575082918261057d925282610f4a565b600387529192508591837fc2575a0e9e593c00f959f8c92f12db2869c3395a3b0502d05e2516446f71f85b5b838510610f10575050505083010185808061054b565b805488860183015293019284908201610efa565b60ff1916878501525050151560051b840101905085808061054b565b91607f1691610e7e565b6020808252825181830181905290939260005b828110610f7f57505060409293506000838284010152601f8019910116010190565b818101860151848201604001528501610f5d565b600435906001600160a01b0382168203610fa957565b600080fd5b602435906001600160a01b0382168203610fa957565b9181601f84011215610fa95782359167ffffffffffffffff8311610fa95760208381860195010111610fa957565b9181601f84011215610fa95782359167ffffffffffffffff8311610fa9576020808501948460051b010111610fa957565b60055460081c6001600160a01b0316330361103a57565b606460405162461bcd60e51b815260206004820152602060248201527f4f776e61626c653a2063616c6c6572206973206e6f7420746865206f776e65726044820152fd5b9190820180921161108b57565b634e487b7160e01b600052601160045260246000fd5b6001600160a01b039081169182156111c45716918215611173576110c3611758565b60008281528060205260408120549180831061111f57604082827fddf252ad1be2c89b69c2b068fc378daa952ba7f163c4a11628f55a4df523b3ef958760209652828652038282205586815220818154019055604051908152a3565b60405162461bcd60e51b815260206004820152602660248201527f45524332303a207472616e7366657220616d6f756e7420657863656564732062604482015265616c616e636560d01b6064820152608490fd5b60405162461bcd60e51b815260206004820152602360248201527f45524332303a207472616e7366657220746f20746865207a65726f206164647260448201526265737360e81b6064820152608490fd5b60405162461bcd60e51b815260206004820152602560248201527f45524332303a207472616e736665722066726f6d20746865207a65726f206164604482015264647265737360d81b6064820152608490fd5b6001600160a01b039081169182156112c857169182156112785760207f8c5be1e5ebec7d5bd14f71427d1e84f3dd0314c0f7b2291e5b200ac8c7c3b925918360005260018252604060002085600052825280604060002055604051908152a3565b60405162461bcd60e51b815260206004820152602260248201527f45524332303a20617070726f766520746f20746865207a65726f206164647265604482015261737360f01b6064820152608490fd5b60405162461bcd60e51b8152602060048201526024808201527f45524332303a20617070726f76652066726f6d20746865207a65726f206164646044820152637265737360e01b6064820152608490fd5b9060018060a01b0380831660005260016020526040600020908216600052602052604060002054926000198403611351575b50505050565b80841061136c57611363930391611217565b3880808061134b565b60405162461bcd60e51b815260206004820152601d60248201527f45524332303a20696e73756666696369656e7420616c6c6f77616e63650000006044820152606490fd5b6001600160a01b03168015611471576113c8611758565b60009181835282602052604083205481811061142157817fddf252ad1be2c89b69c2b068fc378daa952ba7f163c4a11628f55a4df523b3ef926020928587528684520360408620558060025403600255604051908152a3565b60405162461bcd60e51b815260206004820152602260248201527f45524332303a206275726e20616d6f756e7420657863656564732062616c616e604482015261636560f01b6064820152608490fd5b60405162461bcd60e51b815260206004820152602160248201527f45524332303a206275726e2066726f6d20746865207a65726f206164647265736044820152607360f81b6064820152608490fd5b156114c757565b60405162461bcd60e51b815260206004820152602c60248201527f454455546f6b656e3a2063616c6c6572206973206e6f7420616e20617574686f60448201526b3934bd32b21036b4b73a32b960a11b6064820152608490fd5b1561152857565b60405162461bcd60e51b815260206004820152602760248201527f454455546f6b656e3a2063616e6e6f742072657761726420746f207a65726f206044820152666164647265737360c81b6064820152608490fd5b1561158457565b60405162461bcd60e51b815260206004820152602e60248201527f454455546f6b656e3a2072657761726420616d6f756e74206d7573742062652060448201526d067726561746572207468616e20360941b6064820152608490fd5b156115e757565b60405162461bcd60e51b815260206004820152602160248201527f454455546f6b656e3a20776f756c6420657863656564206d617820737570706c6044820152607960f81b6064820152608490fd5b91926060938192845260406020850152816040850152848401376000828201840152601f01601f1916010190565b6001600160a01b03169081156116ca577fddf252ad1be2c89b69c2b068fc378daa952ba7f163c4a11628f55a4df523b3ef60206000926116a2611758565b6116ae8160025461107e565b60025584845283825260408420818154019055604051908152a3565b60405162461bcd60e51b815260206004820152601f60248201527f45524332303a206d696e7420746f20746865207a65726f2061646472657373006044820152606490fd5b600019811461108b5760010190565b919081101561172e5760051b0190565b634e487b7160e01b600052603260045260246000fd5b356001600160a01b0381168103610fa95790565b60ff6005541661176457565b60405162461bcd60e51b815260206004820152601060248201526f14185d5cd8589b194e881c185d5cd95960821b6044820152606490fdfea2646970667358221220cb6608b935d07af81c615fcf72a41d9919aace9043c77f229b684adde892909e64736f6c63430008130033",
  "linkReferences": {},
  "deployedLinkReferences": {}
}