{"contracts/EDUToken.sol":{"EDUToken":{"abi":[{"inputs":[{"internalType":"string","name":"name","type":"string"},{"internalType":"string","name":"symbol","type":"string"},{"internalType":"address","name":"initialOwner","type":"address"}],"stateMutability":"nonpayable","type":"constructor"},{"anonymous":false,"inputs":[{"indexed":true,"internalType":"address","name":"owner","type":"address"},{"indexed":true,"internalType":"address","name":"spender","type":"address"},{"indexed":false,"internalType":"uint256","name":"value","type":"uint256"}],"name":"Approval","type":"event"},{"anonymous":false,"inputs":[{"indexed":true,"internalType":"address","name":"minter","type":"address"}],"name":"MinterAdded","type":"event"},{"anonymous":false,"inputs":[{"indexed":true,"internalType":"address","name":"minter","type":"address"}],"name":"MinterRemoved","type":"event"},{"anonymous":false,"inputs":[{"indexed":true,"internalType":"address","name":"previousOwner","type":"address"},{"indexed":true,"internalType":"address","name":"newOwner","type":"address"}],"name":"OwnershipTransferred","type":"event"},{"anonymous":false,"inputs":[{"indexed":false,"internalType":"address","name":"account","type":"address"}],"name":"Paused","type":"event"},{"anonymous":false,"inputs":[{"indexed":true,"internalType":"address","name":"user","type":"address"},{"indexed":false,"internalType":"uint256","name":"amount","type":"uint256"},{"indexed":false,"internalType":"string","name":"item","type":"string"}],"name":"TokensRedeemed","type":"event"},{"anonymous":false,"inputs":[{"indexed":true,"internalType":"address","name":"user","type":"address"},{"indexed":false,"internalType":"uint256","name":"amount","type":"uint256"},{"indexed":false,"internalType":"string","name":"reason","type":"string"}],"name":"TokensRewarded","type":"event"},{"anonymous":false,"inputs":[{"indexed":true,"internalType":"address","name":"from","type":"address"},{"indexed":true,"internalType":"address","name":"to","type":"address"},{"indexed":false,"internalType":"uint256","name":"value","type":"uint256"}],"name":"Transfer","type":"event"},{"anonymous":false,"inputs":[{"indexed":false,"internalType":"address","name":"account","type":"address"}],"name":"Unpaused","type":"event"},{"inputs":[],"name":"MAX_SUPPLY","outputs":[{"internalType":"uint256","name":"","type":"uint256"}],"stateMutability":"view","type":"function"},{"inputs":[{"internalType":"address","name":"minter","type":"address"}],"name":"addMinter","outputs":[],"stateMutability":"nonpayable","type":"function"},{"inputs":[{"internalType":"address","name":"owner","type":"address"},{"internalType":"address","name":"spender","type":"address"}],"name":"allowance","outputs":[{"internalType":"uint256","name":"","type":"uint256"}],"stateMutability":"view","type":"function"},{"inputs":[{"internalType":"address","name":"spender","type":"address"},{"internalType":"uint256","name":"amount","type":"uint256"}],"name":"approve","outputs":[{"internalType":"bool","name":"","type":"bool"}],"stateMutability":"nonpayable","type":"function"},{"inputs":[{"internalType":"address","name":"","type":"address"}],"name":"authorizedMinters","outputs":[{"internalType":"bool","name":"","type":"bool"}],"stateMutability":"view","type":"function"},{"inputs":[{"internalType":"address","name":"account","type":"address"}],"name":"balanceOf","outputs":[{"internalType":"uint256","name":"","type":"uint256"}],"stateMutability":"view","type":"function"},{"inputs":[{"internalType":"address[]","name":"recipients","type":"address[]"},{"internalType":"uint256[]","name":"amounts","type":"uint256[]"},{"internalType":"string","name":"reason","type":"string"}],"name":"batchRewardTokens","outputs":[],"stateMutability":"nonpayable","type":"function"},{"inputs":[{"internalType":"uint256","name":"amount","type":"uint256"}],"name":"burn","outputs":[],"stateMutability":"nonpayable","type":"function"},{"inputs":[{"internalType":"address","name":"account","type":"address"},{"internalType":"uint256","name":"amount","type":"uint256"}],"name":"burnFrom","outputs":[],"stateMutability":"nonpayable","type":"function"},{"inputs":[],"name":"decimals","outputs":[{"internalType":"uint8","name":"","type":"uint8"}],"stateMutability":"view","type":"function"},{"inputs":[{"internalType":"address","name":"spender","type":"address"},{"internalType":"uint256","name":"subtractedValue","type":"uint256"}],"name":"decreaseAllowance","outputs":[{"internalType":"bool","name":"","type":"bool"}],"stateMutability":"nonpayable","type":"function"},{"inputs":[{"internalType":"address","name":"spender","type":"address"},{"internalType":"uint256","name":"addedValue","type":"uint256"}],"name":"increaseAllowance","outputs":[{"internalType":"bool","name":"","type":"bool"}],"stateMutability":"nonpayable","type":"function"},{"inputs":[{"internalType":"address","name":"account","type":"address"}],"name":"isMinter","outputs":[{"internalType":"bool","name":"","type":"bool"}],"stateMutability":"view","type":"function"},{"inputs":[],"name":"name","outputs":[{"internalType":"string","name":"","type":"string"}],"stateMutability":"view","type":"function"},{"inputs":[],"name":"owner","outputs":[{"internalType":"address","name":"","type":"address"}],"stateMutability":"view","type":"function"},{"inputs":[],"name":"pause","outputs":[],"stateMutability":"nonpayable","type":"function"},{"inputs":[],"name":"paused","outputs":[{"internalType":"bool","name":"","type":"bool"}],"stateMutability":"view","type":"function"},{"inputs":[{"internalType":"uint256","name":"amount","type":"uint256"},{"internalType":"string","name":"item","type":"string"}],"name":"redeemTokens","outputs":[],"stateMutability":"nonpayable","type":"function"},{"inputs":[],"name":"remainingSupply","outputs":[{"internalType":"uint256","name":"","type":"uint256"}],"stateMutability":"view","type":"function"},{"inputs":[{"internalType":"address","name":"minter","type":"address"}],"name":"removeMinter","outputs":[],"stateMutability":"nonpayable","type":"function"},{"inputs":[],"name":"renounceOwnership","outputs":[],"stateMutability":"nonpayable","type":"function"},{"inputs":[{"internalType":"address","name":"to","type":"address"},{"internalType":"uint256","name":"amount","type":"uint256"},{"internalType":"string","name":"reason","type":"string"}],"name":"rewardTokens","outputs":[],"stateMutability":"nonpayable","type":"function"},{"inputs":[],"name":"symbol","outputs":[{"internalType":"string","name":"","type":"string"}],"stateMutability":"view","type":"function"},{"inputs":[],"name":"totalSupply","outputs":[{"internalType":"uint256","name":"","type":"uint256"}],"stateMutability":"view","type":"function"},{"inputs":[{"internalType":"address","name":"to","type":"address"},{"internalType":"uint256","name":"amount","type":"uint256"}],"name":"transfer","outputs":[{"internalType":"bool","name":"","type":"bool"}],"stateMutability":"nonpayable","type":"function"},{"inputs":[{"internalType":"address","name":"from","type":"address"},{"internalType":"address","name":"to","type":"address"},{"internalType":"uint256","name":"amount","type":"uint256"}],"name":"transferFrom","outputs":[{"internalType":"bool","name":"","type":"bool"}],"stateMutability":"nonpayable","type":"function"},{"inputs":[{"internalType":"address","name":"newOwner","type":"address"}],"name":"transferOwnership","outputs":[],"stateMutability":"nonpayable","type":"function"},{"inputs":[],"name":"unpause","outputs":[],"stateMutability":"nonpayable","type":"function"}],"evm":{"bytecode":{"linkReferences":{},"object":"60406080815234620004945762001d6090813803806200001f8162000499565b938439820191606081840312620004945780516001600160401b03939084811162000494578162000052918401620004bf565b90602090818401518681116200049457859162000071918601620004bf565b9301516001600160a01b038116959093908685036200049457835190808211620003945760038054926001968785811c9516801562000489575b8786101462000473578190601f958681116200041d575b508790868311600114620003b657600092620003aa575b505060001982841b1c191690871b1781555b8351918211620003945760049384548781811c9116801562000389575b878210146200037457908185859493116200031c575b508690858411600114620002b157600093620002a5575b505082871b92600019911b1c19161782555b6200016860ff19958660055416600555620001623362000531565b62000531565b861562000266575060ff6005541662000232576002546a084595161401484a000000918282018092116200021d575060007fddf252ad1be2c89b69c2b068fc378daa952ba7f163c4a11628f55a4df523b3ef84600695948a946002558484528382528984208181540190558951908152a38560005252826000209182541617905551907f6ae172837ea30b801fbfcdd4108aa1d5bf8ff775444fd70256b44e6bf3dfc3f6600080a26117d290816200058e8239f35b601190634e487b7160e01b6000525260246000fd5b60649185519162461bcd60e51b8352820152601060248201526f14185d5cd8589b194e881c185d5cd95960821b6044820152fd5b60649286519262461bcd60e51b845283015260248201527f45524332303a206d696e7420746f20746865207a65726f2061646472657373006044820152fd5b01519150388062000135565b9190889450601f1984169287600052886000209360005b8a828210620003055750508511620002ea575b50505050811b01825562000147565b01519060f884600019921b161c1916905538808080620002db565b8385015187558c98909601959384019301620002c8565b9091925085600052866000208580860160051c8201928987106200036a575b918a9187969594930160051c01915b8281106200035a5750506200011e565b600081558695508a91016200034a565b925081926200033b565b602286634e487b7160e01b6000525260246000fd5b90607f169062000108565b634e487b7160e01b600052604160045260246000fd5b015190503880620000d9565b90899350601f1983169185600052896000209260005b8b828210620004065750508411620003ed575b505050811b018155620000eb565b015160001983861b60f8161c19169055388080620003df565b8385015186558d97909501949384019301620003cc565b90915083600052876000208680850160051c8201928a861062000469575b918b91869594930160051c01915b82811062000459575050620000c2565b600081558594508b910162000449565b925081926200043b565b634e487b7160e01b600052602260045260246000fd5b94607f1694620000ab565b600080fd5b6040519190601f01601f191682016001600160401b038111838210176200039457604052565b919080601f84011215620004945782516001600160401b0381116200039457602090620004f5601f8201601f1916830162000499565b92818452828287010111620004945760005b8181106200051d57508260009394955001015290565b858101830151848201840152820162000507565b60058054610100600160a81b03198116600884811b610100600160a81b0316919091179092556001600160a01b0392831692911c167f8be0079c531659141344cd1fd0a4f28419497f9722a3daafe3b4186f6b6457e0600080a356fe6080604081815260048036101561001557600080fd5b600092833560e01c90816306fdde0314610e5557508063095ea7b314610e2b5780630ceb382e14610d5f57806317dccbbc14610c3157806318160ddd14610c1257806323b872dd14610bd55780633092afd514610b16578063313ce56714610afa57806332cb6b0c14610ad45780633950935114610a845780633cf1fb3c1461084c5780633f4ba83a146107b757806342966c68146107995780635c975abb1461077557806370a082311461073e578063715018a6146106dd57806379cc6790146106aa5780638456cb591461064f5780638da5cb5b1461062257806395d89b4114610502578063983b2d56146103df578063a457c2d714610338578063a9059cbb14610307578063aa271e1a146102c9578063aa2fe91b146102c9578063da0239a61461027f578063dd62ed3e146102325763f2fde38b1461015757600080fd5b3461022e57602036600319011261022e57610170610f93565b610178611023565b6001600160a01b038181169390929084156101dc57505060058054610100600160a81b03198116600893841b610100600160a81b031617909155901c167f8be0079c531659141344cd1fd0a4f28419497f9722a3daafe3b4186f6b6457e08380a380f35b906020608492519162461bcd60e51b8352820152602660248201527f4f776e61626c653a206e6577206f776e657220697320746865207a65726f206160448201526564647265737360d01b6064820152fd5b8280fd5b50503461027b578060031936011261027b5780602092610250610f93565b610258610fae565b6001600160a01b0391821683526001865283832091168252845220549051908152f35b5080fd5b5091903461027b578160031936011261027b57600254916a52b7d2dcc80cd2e40000009283039283116102b6576020838351908152f35b634e487b7160e01b815260118452602490fd5b50503461027b57602036600319011261027b5760209160ff9082906001600160a01b036102f4610f93565b1681526006855220541690519015158152f35b50503461027b578060031936011261027b57602090610331610327610f93565b60243590336110a1565b5160018152f35b5082346103dc57826003193601126103dc57610352610f93565b918360243592338152600160205281812060018060a01b038616825260205220549082821061038b576020856103318585038733611217565b608490602086519162461bcd60e51b8352820152602560248201527f45524332303a2064656372656173656420616c6c6f77616e63652062656c6f77604482015264207a65726f60d81b6064820152fd5b80fd5b50903461022e57602036600319011261022e576103fa610f93565b610402611023565b6001600160a01b03169182156104b057828452600660205260ff8285205416610462575081835260066020528220805460ff191660011790557f6ae172837ea30b801fbfcdd4108aa1d5bf8ff775444fd70256b44e6bf3dfc3f68280a280f35b6020608492519162461bcd60e51b8352820152602360248201527f454455546f6b656e3a206d696e74657220616c726561647920617574686f72696044820152621e995960ea1b6064820152fd5b6020608492519162461bcd60e51b8352820152602760248201527f454455546f6b656e3a206d696e7465722063616e6e6f74206265207a65726f206044820152666164647265737360c81b6064820152fd5b5091903461027b578160031936011261027b57805190828454600181811c90808316928315610618575b6020938484108114610605578388529081156105e95750600114610594575b505050829003601f01601f191682019267ffffffffffffffff841183851017610581575082918261057d925282610f4a565b0390f35b634e487b7160e01b815260418552602490fd5b8787529192508591837f8a35acfbc15ff81a39ae7d344fd709f28e8600b4aa8c65c6b64bfe7fe36bd19b5b8385106105d5575050505083010138808061054b565b8054888601830152930192849082016105bf565b60ff1916878501525050151560051b840101905038808061054b565b634e487b7160e01b895260228a52602489fd5b91607f169161052c565b50503461027b578160031936011261027b57600554905160089190911c6001600160a01b03168152602090f35b50503461027b578160031936011261027b5760207f62e78cea01bee320cd4e420270b5ea74000d11b0c9f74754ebdbfc544b05a2589161068d611023565b610695611758565b600160ff19600554161760055551338152a180f35b50503461027b573660031901126103dc576106da6106c6610f93565b602435906106d5823383611319565b6113b1565b80f35b83346103dc57806003193601126103dc576106f6611023565b60058054610100600160a81b03198116909155819060081c6001600160a01b03167f8be0079c531659141344cd1fd0a4f28419497f9722a3daafe3b4186f6b6457e08280a380f35b50503461027b57602036600319011261027b5760209181906001600160a01b03610766610f93565b16815280845220549051908152f35b50503461027b578160031936011261027b5760209060ff6005541690519015158152f35b83823461027b57602036600319011261027b576106da9035336113b1565b503461022e578260031936011261022e576107d0611023565b6005549060ff821615610812575060ff1916600555513381527f5db9ee0a495bf2e6ff9c91a7834c1ba4fdd244a5e8aa4e537bd38aeae4b073aa90602090a180f35b606490602084519162461bcd60e51b8352820152601460248201527314185d5cd8589b194e881b9bdd081c185d5cd95960621b6044820152fd5b5082903461027b57606036600319011261027b5767ffffffffffffffff8135818111610a805761087f9036908401610ff2565b919094602435828111610a7c576108999036908601610ff2565b92604435908111610a78576108b19036908701610fc4565b91909533885260066020526108cb60ff858a2054166114c0565b848603610a355785156109f9575086875b8581106109d457506a52b7d2dcc80cd2e40000006108ff6109069260025461107e565b11156115e0565b865b858110610913578780f35b80857fb969d134776a7f04430dbbcac4e68734b1c6c5adcecbf68c3cbe6a9a4f2c8a1d6109a7610964848b8f6109a28a61099b6109cf9b60018060a01b039a6109718c610969610964858b8b61171e565b611744565b161515611521565b61098761097f83838761171e565b35151561157d565b61099561096483898961171e565b9361171e565b3590611664565b61171e565b916109b3848a8861171e565b35926109c7888d8b51948594169684611636565b0390a261170f565b610908565b906109ee6109f4916109e784898761171e565b359061107e565b9161170f565b6108dc565b606490602085519162461bcd60e51b83528201526016602482015275454455546f6b656e3a20656d7074792061727261797360501b6044820152fd5b606490602085519162461bcd60e51b8352820152602060248201527f454455546f6b656e3a20617272617973206c656e677468206d69736d617463686044820152fd5b8680fd5b8580fd5b8380fd5b50503461027b578060031936011261027b57610331602092610acd610aa7610f93565b338352600186528483206001600160a01b0382168452865291849020546024359061107e565b9033611217565b50503461027b578160031936011261027b57602090516a52b7d2dcc80cd2e40000008152f35b50503461027b578160031936011261027b576020905160128152f35b50903461022e57602036600319011261022e57610b31610f93565b610b39611023565b6001600160a01b031680845260066020528184205490929060ff1615610b93575081835260066020528220805460ff191690557fe94479a9f7e1952cc78f2d6baab678adc1b772d936c6583def489e524cb666928280a280f35b6020606492519162461bcd60e51b8352820152601f60248201527f454455546f6b656e3a206d696e746572206e6f7420617574686f72697a6564006044820152fd5b50503461027b57606036600319011261027b57602090610331610bf6610f93565b610bfe610fae565b60443591610c0d833383611319565b6110a1565b50503461027b578160031936011261027b576020906002549051908152f35b5082903461027b578260031936011261027b5780359060243567ffffffffffffffff8111610a8057610c669036908301610fc4565b918315610d055733855284602052838686205410610cc25750610cbc839495610cb07f840b44fdbcb5cc554d649d4eff35e951766f31d646497b364a9cd6d6677d3e1495336113b1565b51928392339684611636565b0390a280f35b606490602087519162461bcd60e51b8352820152601e60248201527f454455546f6b656e3a20696e73756666696369656e742062616c616e636500006044820152fd5b608490602087519162461bcd60e51b8352820152602e60248201527f454455546f6b656e3a2072656465656d20616d6f756e74206d7573742062652060448201526d067726561746572207468616e20360941b6064820152fd5b503461022e57606036600319011261022e57610d79610f93565b916024356044359267ffffffffffffffff8411610a7c57610dc1610cbc917fb969d134776a7f04430dbbcac4e68734b1c6c5adcecbf68c3cbe6a9a4f2c8a1d95369101610fc4565b90933388526006602052610dda60ff828a2054166114c0565b6001600160a01b03871696610e21908590610df68a1515611521565b610e0182151561157d565b610e1c6a52b7d2dcc80cd2e40000006108ff8460025461107e565b611664565b5193849384611636565b50503461027b578060031936011261027b57602090610331610e4b610f93565b6024359033611217565b849150833461022e578260031936011261022e5782600354600181811c90808316928315610f40575b602093848410811461060557838852908115610f245750600114610ece57505050829003601f01601f191682019267ffffffffffffffff841183851017610581575082918261057d925282610f4a565b600387529192508591837fc2575a0e9e593c00f959f8c92f12db2869c3395a3b0502d05e2516446f71f85b5b838510610f10575050505083010185808061054b565b805488860183015293019284908201610efa565b60ff1916878501525050151560051b840101905085808061054b565b91607f1691610e7e565b6020808252825181830181905290939260005b828110610f7f57505060409293506000838284010152601f8019910116010190565b818101860151848201604001528501610f5d565b600435906001600160a01b0382168203610fa957565b600080fd5b602435906001600160a01b0382168203610fa957565b9181601f84011215610fa95782359167ffffffffffffffff8311610fa95760208381860195010111610fa957565b9181601f84011215610fa95782359167ffffffffffffffff8311610fa9576020808501948460051b010111610fa957565b60055460081c6001600160a01b0316330361103a57565b606460405162461bcd60e51b815260206004820152602060248201527f4f776e61626c653a2063616c6c6572206973206e6f7420746865206f776e65726044820152fd5b9190820180921161108b57565b634e487b7160e01b600052601160045260246000fd5b6001600160a01b039081169182156111c45716918215611173576110c3611758565b60008281528060205260408120549180831061111f57604082827fddf252ad1be2c89b69c2b068fc378daa952ba7f163c4a11628f55a4df523b3ef958760209652828652038282205586815220818154019055604051908152a3565b60405162461bcd60e51b815260206004820152602660248201527f45524332303a207472616e7366657220616d6f756e7420657863656564732062604482015265616c616e636560d01b6064820152608490fd5b60405162461bcd60e51b815260206004820152602360248201527f45524332303a207472616e7366657220746f20746865207a65726f206164647260448201526265737360e81b6064820152608490fd5b60405162461bcd60e51b815260206004820152602560248201527f45524332303a207472616e736665722066726f6d20746865207a65726f206164604482015264647265737360d81b6064820152608490fd5b6001600160a01b039081169182156112c857169182156112785760207f8c5be1e5ebec7d5bd14f71427d1e84f3dd0314c0f7b2291e5b200ac8c7c3b925918360005260018252604060002085600052825280604060002055604051908152a3565b60405162461bcd60e51b815260206004820152602260248201527f45524332303a20617070726f766520746f20746865207a65726f206164647265604482015261737360f01b6064820152608490fd5b60405162461bcd60e51b8152602060048201526024808201527f45524332303a20617070726f76652066726f6d20746865207a65726f206164646044820152637265737360e01b6064820152608490fd5b9060018060a01b0380831660005260016020526040600020908216600052602052604060002054926000198403611351575b50505050565b80841061136c57611363930391611217565b3880808061134b565b60405162461bcd60e51b815260206004820152601d60248201527f45524332303a20696e73756666696369656e7420616c6c6f77616e63650000006044820152606490fd5b6001600160a01b03168015611471576113c8611758565b60009181835282602052604083205481811061142157817fddf252ad1be2c89b69c2b068fc378daa952ba7f163c4a11628f55a4df523b3ef926020928587528684520360408620558060025403600255604051908152a3565b60405162461bcd60e51b815260206004820152602260248201527f45524332303a206275726e20616d6f756e7420657863656564732062616c616e604482015261636560f01b6064820152608490fd5b60405162461bcd60e51b815260206004820152602160248201527f45524332303a206275726e2066726f6d20746865207a65726f206164647265736044820152607360f81b6064820152608490fd5b156114c757565b60405162461bcd60e51b815260206004820152602c60248201527f454455546f6b656e3a2063616c6c6572206973206e6f7420616e20617574686f60448201526b3934bd32b21036b4b73a32b960a11b6064820152608490fd5b1561152857565b60405162461bcd60e51b815260206004820152602760248201527f454455546f6b656e3a2063616e6e6f742072657761726420746f207a65726f206044820152666164647265737360c81b6064820152608490fd5b1561158457565b60405162461bcd60e51b815260206004820152602e60248201527f454455546f6b656e3a2072657761726420616d6f756e74206d7573742062652060448201526d067726561746572207468616e20360941b6064820152608490fd5b156115e757565b60405162461bcd60e51b815260206004820152602160248201527f454455546f6b656e3a20776f756c6420657863656564206d617820737570706c6044820152607960f81b6064820152608490fd5b91926060938192845260406020850152816040850152848401376000828201840152601f01601f1916010190565b6001600160a01b03169081156116ca577fddf252ad1be2c89b69c2b068fc378daa952ba7f163c4a11628f55a4df523b3ef60206000926116a2611758565b6116ae8160025461107e565b60025584845283825260408420818154019055604051908152a3565b60405162461bcd60e51b815260206004820152601f60248201527f45524332303a206d696e7420746f20746865207a65726f2061646472657373006044820152606490fd5b600019811461108b5760010190565b919081101561172e5760051b0190565b634e487b7160e01b600052603260045260246000fd5b356001600160a01b0381168103610fa95790565b60ff6005541661176457565b60405162461bcd60e51b815260206004820152601060248201526f14185d5cd8589b194e881c185d5cd95960821b6044820152606490fdfea2646970667358221220cb6608b935d07af81c615fcf72a41d9919aace9043c77f229b684adde892909e64736f6c63430008130033","opcodes":"PUSH1 0x40 PUSH1 0x80 DUP2 MSTORE CALLVALUE PUSH3 0x494 JUMPI PUSH3 0x1D60 SWAP1 DUP2 CODESIZE SUB DUP1 PUSH3 0x1F DUP2 PUSH3 0x499 JUMP JUMPDEST SWAP4 DUP5 CODECOPY DUP3 ADD SWAP2 PUSH1 0x60 DUP2 DUP5 SUB SLT PUSH3 0x494 JUMPI DUP1 MLOAD PUSH1 0x1 PUSH1 0x1 PUSH1 0x40 SHL SUB SWAP4 SWAP1 DUP5 DUP2 GT PUSH3 0x494 JUMPI DUP2 PUSH3 0x52 SWAP2 DUP5 ADD PUSH3 0x4BF JUMP JUMPDEST SWAP1 PUSH1 0x20 SWAP1 DUP2 DUP5 ADD MLOAD DUP7 DUP2 GT PUSH3 0x494 JUMPI DUP6 SWAP2 PUSH3 0x71 SWAP2 DUP7 ADD PUSH3 0x4BF JUMP JUMPDEST SWAP4 ADD MLOAD PUSH1 0x1 PUSH1 0x1 PUSH1 0xA0 SHL SUB DUP2 AND SWAP6 SWAP1 SWAP4 SWAP1 DUP7 DUP6 SUB PUSH3 0x494 JUMPI DUP4 MLOAD SWAP1 DUP1 DUP3 GT PUSH3 0x394 JUMPI PUSH1 0x3 DUP1 SLOAD SWAP3 PUSH1 0x1 SWAP7 DUP8 DUP6 DUP2 SHR SWAP6 AND DUP1 ISZERO PUSH3 0x489 JUMPI JUMPDEST DUP8 DUP7 LT EQ PUSH3 0x473 JUMPI DUP2 SWAP1 PUSH1 0x1F SWAP6 DUP7 DUP2 GT PUSH3 0x41D JUMPI JUMPDEST POP DUP8 SWAP1 DUP7 DUP4 GT PUSH1 0x1 EQ PUSH3 0x3B6 JUMPI PUSH1 0x0 SWAP3 PUSH3 0x3AA JUMPI JUMPDEST POP POP PUSH1 0x0 NOT DUP3 DUP5 SHL SHR NOT AND SWAP1 DUP8 SHL OR DUP2 SSTORE JUMPDEST DUP4 MLOAD SWAP2 DUP3 GT PUSH3 0x394 JUMPI PUSH1 0x4 SWAP4 DUP5 SLOAD DUP8 DUP2 DUP2 SHR SWAP2 AND DUP1 ISZERO PUSH3 0x389 JUMPI JUMPDEST DUP8 DUP3 LT EQ PUSH3 0x374 JUMPI SWAP1 DUP2 DUP6 DUP6 SWAP5 SWAP4 GT PUSH3 0x31C JUMPI JUMPDEST POP DUP7 SWAP1 DUP6 DUP5 GT PUSH1 0x1 EQ PUSH3 0x2B1 JUMPI PUSH1 0x0 SWAP4 PUSH3 0x2A5 JUMPI JUMPDEST POP POP DUP3 DUP8 SHL SWAP3 PUSH1 0x0 NOT SWAP2 SHL SHR NOT AND OR DUP3 SSTORE JUMPDEST PUSH3 0x168 PUSH1 0xFF NOT SWAP6 DUP7 PUSH1 0x5 SLOAD AND PUSH1 0x5 SSTORE PUSH3 0x162 CALLER PUSH3 0x531 JUMP JUMPDEST PUSH3 0x531 JUMP JUMPDEST DUP7 ISZERO PUSH3 0x266 JUMPI POP PUSH1 0xFF PUSH1 0x5 SLOAD AND PUSH3 0x232 JUMPI PUSH1 0x2 SLOAD PUSH11 0x84595161401484A000000 SWAP2 DUP3 DUP3 ADD DUP1 SWAP3 GT PUSH3 0x21D JUMPI POP PUSH1 0x0 PUSH32 0xDDF252AD1BE2C89B69C2B068FC378DAA952BA7F163C4A11628F55A4DF523B3EF DUP5 PUSH1 0x6 SWAP6 SWAP5 DUP11 SWAP5 PUSH1 0x2 SSTORE DUP5 DUP5 MSTORE DUP4 DUP3 MSTORE DUP10 DUP5 KECCAK256 DUP2 DUP2 SLOAD ADD SWAP1 SSTORE DUP10 MLOAD SWAP1 DUP2 MSTORE LOG3 DUP6 PUSH1 0x0 MSTORE MSTORE DUP3 PUSH1 0x0 KECCAK256 SWAP2 DUP3 SLOAD AND OR SWAP1 SSTORE MLOAD SWAP1 PUSH32 0x6AE172837EA30B801FBFCDD4108AA1D5BF8FF775444FD70256B44E6BF3DFC3F6 PUSH1 0x0 DUP1 LOG2 PUSH2 0x17D2 SWAP1 DUP2 PUSH3 0x58E DUP3 CODECOPY RETURN JUMPDEST PUSH1 0x11 SWAP1 PUSH4 0x4E487B71 PUSH1 0xE0 SHL PUSH1 0x0 MSTORE MSTORE PUSH1 0x24 PUSH1 0x0 REVERT JUMPDEST PUSH1 0x64 SWAP2 DUP6 MLOAD SWAP2 PUSH3 0x461BCD PUSH1 0xE5 SHL DUP4 MSTORE DUP3 ADD MSTORE PUSH1 0x10 PUSH1 0x24 DUP3 ADD MSTORE PUSH16 0x14185D5CD8589B194E881C185D5CD959 PUSH1 0x82 SHL PUSH1 0x44 DUP3 ADD MSTORE REVERT JUMPDEST PUSH1 0x64 SWAP3 DUP7 MLOAD SWAP3 PUSH3 0x461BCD PUSH1 0xE5 SHL DUP5 MSTORE DUP4 ADD MSTORE PUSH1 0x24 DUP3 ADD MSTORE PUSH32 0x45524332303A206D696E7420746F20746865207A65726F206164647265737300 PUSH1 0x44 DUP3 ADD MSTORE REVERT JUMPDEST ADD MLOAD SWAP2 POP CODESIZE DUP1 PUSH3 0x135 JUMP JUMPDEST SWAP2 SWAP1 DUP9 SWAP5 POP PUSH1 0x1F NOT DUP5 AND SWAP3 DUP8 PUSH1 0x0 MSTORE DUP9 PUSH1 0x0 KECCAK256 SWAP4 PUSH1 0x0 JUMPDEST DUP11 DUP3 DUP3 LT PUSH3 0x305 JUMPI POP POP DUP6 GT PUSH3 0x2EA JUMPI JUMPDEST POP POP POP POP DUP2 SHL ADD DUP3 SSTORE PUSH3 0x147 JUMP JUMPDEST ADD MLOAD SWAP1 PUSH1 0xF8 DUP5 PUSH1 0x0 NOT SWAP3 SHL AND SHR NOT AND SWAP1 SSTORE CODESIZE DUP1 DUP1 DUP1 PUSH3 0x2DB JUMP JUMPDEST DUP4 DUP6 ADD MLOAD DUP8 SSTORE DUP13 SWAP9 SWAP1 SWAP7 ADD SWAP6 SWAP4 DUP5 ADD SWAP4 ADD PUSH3 0x2C8 JUMP JUMPDEST SWAP1 SWAP2 SWAP3 POP DUP6 PUSH1 0x0 MSTORE DUP7 PUSH1 0x0 KECCAK256 DUP6 DUP1 DUP7 ADD PUSH1 0x5 SHR DUP3 ADD SWAP3 DUP10 DUP8 LT PUSH3 0x36A JUMPI JUMPDEST SWAP2 DUP11 SWAP2 DUP8 SWAP7 SWAP6 SWAP5 SWAP4 ADD PUSH1 0x5 SHR ADD SWAP2 JUMPDEST DUP3 DUP2 LT PUSH3 0x35A JUMPI POP POP PUSH3 0x11E JUMP JUMPDEST PUSH1 0x0 DUP2 SSTORE DUP7 SWAP6 POP DUP11 SWAP2 ADD PUSH3 0x34A JUMP JUMPDEST SWAP3 POP DUP2 SWAP3 PUSH3 0x33B JUMP JUMPDEST PUSH1 0x22 DUP7 PUSH4 0x4E487B71 PUSH1 0xE0 SHL PUSH1 0x0 MSTORE MSTORE PUSH1 0x24 PUSH1 0x0 REVERT JUMPDEST SWAP1 PUSH1 0x7F AND SWAP1 PUSH3 0x108 JUMP JUMPDEST PUSH4 0x4E487B71 PUSH1 0xE0 SHL PUSH1 0x0 MSTORE PUSH1 0x41 PUSH1 0x4 MSTORE PUSH1 0x24 PUSH1 0x0 REVERT JUMPDEST ADD MLOAD SWAP1 POP CODESIZE DUP1 PUSH3 0xD9 JUMP JUMPDEST SWAP1 DUP10 SWAP4 POP PUSH1 0x1F NOT DUP4 AND SWAP2 DUP6 PUSH1 0x0 MSTORE DUP10 PUSH1 0x0 KECCAK256 SWAP3 PUSH1 0x0 JUMPDEST DUP12 DUP3 DUP3 LT PUSH3 0x406 JUMPI POP POP DUP5 GT PUSH3 0x3ED JUMPI JUMPDEST POP POP POP DUP2 SHL ADD DUP2 SSTORE PUSH3 0xEB JUMP JUMPDEST ADD MLOAD PUSH1 0x0 NOT DUP4 DUP7 SHL PUSH1 0xF8 AND SHR NOT AND SWAP1 SSTORE CODESIZE DUP1 DUP1 PUSH3 0x3DF JUMP JUMPDEST DUP4 DUP6 ADD MLOAD DUP7 SSTORE DUP14 SWAP8 SWAP1 SWAP6 ADD SWAP5 SWAP4 DUP5 ADD SWAP4 ADD PUSH3 0x3CC JUMP JUMPDEST SWAP1 SWAP2 POP DUP4 PUSH1 0x0 MSTORE DUP8 PUSH1 0x0 KECCAK256 DUP7 DUP1 DUP6 ADD PUSH1 0x5 SHR DUP3 ADD SWAP3 DUP11 DUP7 LT PUSH3 0x469 JUMPI JUMPDEST SWAP2 DUP12 SWAP2 DUP7 SWAP6 SWAP5 SWAP4 ADD PUSH1 0x5 SHR ADD SWAP2 JUMPDEST DUP3 DUP2 LT PUSH3 0x459 JUMPI POP POP PUSH3 0xC2 JUMP JUMPDEST PUSH1 0x0 DUP2 SSTORE DUP6 SWAP5 POP DUP12 SWAP2 ADD PUSH3 0x449 JUMP JUMPDEST SWAP3 POP DUP2 SWAP3 PUSH3 0x43B JUMP JUMPDEST PUSH4 0x4E487B71 PUSH1 0xE0 SHL PUSH1 0x0 MSTORE PUSH1 0x22 PUSH1 0x4 MSTORE PUSH1 0x24 PUSH1 0x0 REVERT JUMPDEST SWAP5 PUSH1 0x7F AND SWAP5 PUSH3 0xAB JUMP JUMPDEST PUSH1 0x0 DUP1 REVERT JUMPDEST PUSH1 0x40 MLOAD SWAP2 SWAP1 PUSH1 0x1F ADD PUSH1 0x1F NOT AND DUP3 ADD PUSH1 0x1 PUSH1 0x1 PUSH1 0x40 SHL SUB DUP2 GT DUP4 DUP3 LT OR PUSH3 0x394 JUMPI PUSH1 0x40 MSTORE JUMP JUMPDEST SWAP2 SWAP1 DUP1 PUSH1 0x1F DUP5 ADD SLT ISZERO PUSH3 0x494 JUMPI DUP3 MLOAD PUSH1 0x1 PUSH1 0x1 PUSH1 0x40 SHL SUB DUP2 GT PUSH3 0x394 JUMPI PUSH1 0x20 SWAP1 PUSH3 0x4F5 PUSH1 0x1F DUP3 ADD PUSH1 0x1F NOT AND DUP4 ADD PUSH3 0x499 JUMP JUMPDEST SWAP3 DUP2 DUP5 MSTORE DUP3 DUP3 DUP8 ADD ADD GT PUSH3 0x494 JUMPI PUSH1 0x0 JUMPDEST DUP2 DUP2 LT PUSH3 0x51D JUMPI POP DUP3 PUSH1 0x0 SWAP4 SWAP5 SWAP6 POP ADD ADD MSTORE SWAP1 JUMP JUMPDEST DUP6 DUP2 ADD DUP4 ADD MLOAD DUP5 DUP3 ADD DUP5 ADD MSTORE DUP3 ADD PUSH3 0x507 JUMP JUMPDEST PUSH1 0x5 DUP1 SLOAD PUSH2 0x100 PUSH1 0x1 PUSH1 0xA8 SHL SUB NOT DUP2 AND PUSH1 0x8 DUP5 DUP2 SHL PUSH2 0x100 PUSH1 0x1 PUSH1 0xA8 SHL SUB AND SWAP2 SWAP1 SWAP2 OR SWAP1 SWAP3 SSTORE PUSH1 0x1 PUSH1 0x1 PUSH1 0xA0 SHL SUB SWAP3 DUP4 AND SWAP3 SWAP2 SHR AND PUSH32 0x8BE0079C531659141344CD1FD0A4F28419497F9722A3DAAFE3B4186F6B6457E0 PUSH1 0x0 DUP1 LOG3 JUMP INVALID PUSH1 0x80 PUSH1 0x40 DUP2 DUP2 MSTORE PUSH1 0x4 DUP1 CALLDATASIZE LT ISZERO PUSH2 0x15 JUMPI PUSH1 0x0 DUP1 REVERT JUMPDEST PUSH1 0x0 SWAP3 DUP4 CALLDATALOAD PUSH1 0xE0 SHR SWAP1 DUP2 PUSH4 0x6FDDE03 EQ PUSH2 0xE55 JUMPI POP DUP1 PUSH4 0x95EA7B3 EQ PUSH2 0xE2B JUMPI DUP1 PUSH4 0xCEB382E EQ PUSH2 0xD5F JUMPI DUP1 PUSH4 0x17DCCBBC EQ PUSH2 0xC31 JUMPI DUP1 PUSH4 0x18160DDD EQ PUSH2 0xC12 JUMPI DUP1 PUSH4 0x23B872DD EQ PUSH2 0xBD5 JUMPI DUP1 PUSH4 0x3092AFD5 EQ PUSH2 0xB16 JUMPI DUP1 PUSH4 0x313CE567 EQ PUSH2 0xAFA JUMPI DUP1 PUSH4 0x32CB6B0C EQ PUSH2 0xAD4 JUMPI DUP1 PUSH4 0x39509351 EQ PUSH2 0xA84 JUMPI DUP1 PUSH4 0x3CF1FB3C EQ PUSH2 0x84C JUMPI DUP1 PUSH4 0x3F4BA83A EQ PUSH2 0x7B7 JUMPI DUP1 PUSH4 0x42966C68 EQ PUSH2 0x799 JUMPI DUP1 PUSH4 0x5C975ABB EQ PUSH2 0x775 JUMPI DUP1 PUSH4 0x70A08231 EQ PUSH2 0x73E JUMPI DUP1 PUSH4 0x715018A6 EQ PUSH2 0x6DD JUMPI DUP1 PUSH4 0x79CC6790 EQ PUSH2 0x6AA JUMPI DUP1 PUSH4 0x8456CB59 EQ PUSH2 0x64F JUMPI DUP1 PUSH4 0x8DA5CB5B EQ PUSH2 0x622 JUMPI DUP1 PUSH4 0x95D89B41 EQ PUSH2 0x502 JUMPI DUP1 PUSH4 0x983B2D56 EQ PUSH2 0x3DF JUMPI DUP1 PUSH4 0xA457C2D7 EQ PUSH2 0x338 JUMPI DUP1 PUSH4 0xA9059CBB EQ PUSH2 0x307 JUMPI DUP1 PUSH4 0xAA271E1A EQ PUSH2 0x2C9 JUMPI DUP1 PUSH4 0xAA2FE91B EQ PUSH2 0x2C9 JUMPI DUP1 PUSH4 0xDA0239A6 EQ PUSH2 0x27F JUMPI DUP1 PUSH4 0xDD62ED3E EQ PUSH2 0x232 JUMPI PUSH4 0xF2FDE38B EQ PUSH2 0x157 JUMPI PUSH1 0x0 DUP1 REVERT JUMPDEST CALLVALUE PUSH2 0x22E JUMPI PUSH1 0x20 CALLDATASIZE PUSH1 0x3 NOT ADD SLT PUSH2 0x22E JUMPI PUSH2 0x170 PUSH2 0xF93 JUMP JUMPDEST PUSH2 0x178 PUSH2 0x1023 JUMP JUMPDEST PUSH1 0x1 PUSH1 0x1 PUSH1 0xA0 SHL SUB DUP2 DUP2 AND SWAP4 SWAP1 SWAP3 SWAP1 DUP5 ISZERO PUSH2 0x1DC JUMPI POP POP PUSH1 0x5 DUP1 SLOAD PUSH2 0x100 PUSH1 0x1 PUSH1 0xA8 SHL SUB NOT DUP2 AND PUSH1 0x8 SWAP4 DUP5 SHL PUSH2 0x100 PUSH1 0x1 PUSH1 0xA8 SHL SUB AND OR SWAP1 SWAP2 SSTORE SWAP1 SHR AND PUSH32 0x8BE0079C531659141344CD1FD0A4F28419497F9722A3DAAFE3B4186F6B6457E0 DUP4 DUP1 LOG3 DUP1 RETURN JUMPDEST SWAP1 PUSH1 0x20 PUSH1 0x84 SWAP3 MLOAD SWAP2 PUSH3 0x461BCD PUSH1 0xE5 SHL DUP4 MSTORE DUP3 ADD MSTORE PUSH1 0x26 PUSH1 0x24 DUP3 ADD MSTORE PUSH32 0x4F776E61626C653A206E6577206F776E657220697320746865207A65726F2061 PUSH1 0x44 DUP3 ADD MSTORE PUSH6 0x646472657373 PUSH1 0xD0 SHL PUSH1 0x64 DUP3 ADD MSTORE REVERT JUMPDEST DUP3 DUP1 REVERT JUMPDEST POP POP CALLVALUE PUSH2 0x27B JUMPI DUP1 PUSH1 0x3 NOT CALLDATASIZE ADD SLT PUSH2 0x27B JUMPI DUP1 PUSH1 0x20 SWAP3 PUSH2 0x250 PUSH2 0xF93 JUMP JUMPDEST PUSH2 0x258 PUSH2 0xFAE JUMP JUMPDEST PUSH1 0x1 PUSH1 0x1 PUSH1 0xA0 SHL SUB SWAP2 DUP3 AND DUP4 MSTORE PUSH1 0x1 DUP7 MSTORE DUP4 DUP4 KECCAK256 SWAP2 AND DUP3 MSTORE DUP5 MSTORE KECCAK256 SLOAD SWAP1 MLOAD SWAP1 DUP2 MSTORE RETURN JUMPDEST POP DUP1 REVERT JUMPDEST POP SWAP2 SWAP1 CALLVALUE PUSH2 0x27B JUMPI DUP2 PUSH1 0x3 NOT CALLDATASIZE ADD SLT PUSH2 0x27B JUMPI PUSH1 0x2 SLOAD SWAP2 PUSH11 0x52B7D2DCC80CD2E4000000 SWAP3 DUP4 SUB SWAP3 DUP4 GT PUSH2 0x2B6 JUMPI PUSH1 0x20 DUP4 DUP4 MLOAD SWAP1 DUP2 MSTORE RETURN JUMPDEST PUSH4 0x4E487B71 PUSH1 0xE0 SHL DUP2 MSTORE PUSH1 0x11 DUP5 MSTORE PUSH1 0x24 SWAP1 REVERT JUMPDEST POP POP CALLVALUE PUSH2 0x27B JUMPI PUSH1 0x20 CALLDATASIZE PUSH1 0x3 NOT ADD SLT PUSH2 0x27B JUMPI PUSH1 0x20 SWAP2 PUSH1 0xFF SWAP1 DUP3 SWAP1 PUSH1 0x1 PUSH1 0x1 PUSH1 0xA0 SHL SUB PUSH2 0x2F4 PUSH2 0xF93 JUMP JUMPDEST AND DUP2 MSTORE PUSH1 0x6 DUP6 MSTORE KECCAK256 SLOAD AND SWAP1 MLOAD SWAP1 ISZERO ISZERO DUP2 MSTORE RETURN JUMPDEST POP POP CALLVALUE PUSH2 0x27B JUMPI DUP1 PUSH1 0x3 NOT CALLDATASIZE ADD SLT PUSH2 0x27B JUMPI PUSH1 0x20 SWAP1 PUSH2 0x331 PUSH2 0x327 PUSH2 0xF93 JUMP JUMPDEST PUSH1 0x24 CALLDATALOAD SWAP1 CALLER PUSH2 0x10A1 JUMP JUMPDEST MLOAD PUSH1 0x1 DUP2 MSTORE RETURN JUMPDEST POP DUP3 CALLVALUE PUSH2 0x3DC JUMPI DUP3 PUSH1 0x3 NOT CALLDATASIZE ADD SLT PUSH2 0x3DC JUMPI PUSH2 0x352 PUSH2 0xF93 JUMP JUMPDEST SWAP2 DUP4 PUSH1 0x24 CALLDATALOAD SWAP3 CALLER DUP2 MSTORE PUSH1 0x1 PUSH1 0x20 MSTORE DUP2 DUP2 KECCAK256 PUSH1 0x1 DUP1 PUSH1 0xA0 SHL SUB DUP7 AND DUP3 MSTORE PUSH1 0x20 MSTORE KECCAK256 SLOAD SWAP1 DUP3 DUP3 LT PUSH2 0x38B JUMPI PUSH1 0x20 DUP6 PUSH2 0x331 DUP6 DUP6 SUB DUP8 CALLER PUSH2 0x1217 JUMP JUMPDEST PUSH1 0x84 SWAP1 PUSH1 0x20 DUP7 MLOAD SWAP2 PUSH3 0x461BCD PUSH1 0xE5 SHL DUP4 MSTORE DUP3 ADD MSTORE PUSH1 0x25 PUSH1 0x24 DUP3 ADD MSTORE PUSH32 0x45524332303A2064656372656173656420616C6C6F77616E63652062656C6F77 PUSH1 0x44 DUP3 ADD MSTORE PUSH5 0x207A65726F PUSH1 0xD8 SHL PUSH1 0x64 DUP3 ADD MSTORE REVERT JUMPDEST DUP1 REVERT JUMPDEST POP SWAP1 CALLVALUE PUSH2 0x22E JUMPI PUSH1 0x20 CALLDATASIZE PUSH1 0x3 NOT ADD SLT PUSH2 0x22E JUMPI PUSH2 0x3FA PUSH2 0xF93 JUMP JUMPDEST PUSH2 0x402 PUSH2 0x1023 JUMP JUMPDEST PUSH1 0x1 PUSH1 0x1 PUSH1 0xA0 SHL SUB AND SWAP2 DUP3 ISZERO PUSH2 0x4B0 JUMPI DUP3 DUP5 MSTORE PUSH1 0x6 PUSH1 0x20 MSTORE PUSH1 0xFF DUP3 DUP6 KECCAK256 SLOAD AND PUSH2 0x462 JUMPI POP DUP2 DUP4 MSTORE PUSH1 0x6 PUSH1 0x20 MSTORE DUP3 KECCAK256 DUP1 SLOAD PUSH1 0xFF NOT AND PUSH1 0x1 OR SWAP1 SSTORE PUSH32 0x6AE172837EA30B801FBFCDD4108AA1D5BF8FF775444FD70256B44E6BF3DFC3F6 DUP3 DUP1 LOG2 DUP1 RETURN JUMPDEST PUSH1 0x20 PUSH1 0x84 SWAP3 MLOAD SWAP2 PUSH3 0x461BCD PUSH1 0xE5 SHL DUP4 MSTORE DUP3 ADD MSTORE PUSH1 0x23 PUSH1 0x24 DUP3 ADD MSTORE PUSH32 0x454455546F6B656E3A206D696E74657220616C726561647920617574686F7269 PUSH1 0x44 DUP3 ADD MSTORE PUSH3 0x1E9959 PUSH1 0xEA SHL PUSH1 0x64 DUP3 ADD MSTORE REVERT JUMPDEST PUSH1 0x20 PUSH1 0x84 SWAP3 MLOAD SWAP2 PUSH3 0x461BCD PUSH1 0xE5 SHL DUP4 MSTORE DUP3 ADD MSTORE PUSH1 0x27 PUSH1 0x24 DUP3 ADD MSTORE PUSH32 0x454455546F6B656E3A206D696E7465722063616E6E6F74206265207A65726F20 PUSH1 0x44 DUP3 ADD MSTORE PUSH7 0x61646472657373 PUSH1 0xC8 SHL PUSH1 0x64 DUP3 ADD MSTORE REVERT JUMPDEST POP SWAP2 SWAP1 CALLVALUE PUSH2 0x27B JUMPI DUP2 PUSH1 0x3 NOT CALLDATASIZE ADD SLT PUSH2 0x27B JUMPI DUP1 MLOAD SWAP1 DUP3 DUP5 SLOAD PUSH1 0x1 DUP2 DUP2 SHR SWAP1 DUP1 DUP4 AND SWAP3 DUP4 ISZERO PUSH2 0x618 JUMPI JUMPDEST PUSH1 0x20 SWAP4 DUP5 DUP5 LT DUP2 EQ PUSH2 0x605 JUMPI DUP4 DUP9 MSTORE SWAP1 DUP2 ISZERO PUSH2 0x5E9 JUMPI POP PUSH1 0x1 EQ PUSH2 0x594 JUMPI JUMPDEST POP POP POP DUP3 SWAP1 SUB PUSH1 0x1F ADD PUSH1 0x1F NOT AND DUP3 ADD SWAP3 PUSH8 0xFFFFFFFFFFFFFFFF DUP5 GT DUP4 DUP6 LT OR PUSH2 0x581 JUMPI POP DUP3 SWAP2 DUP3 PUSH2 0x57D SWAP3 MSTORE DUP3 PUSH2 0xF4A JUMP JUMPDEST SUB SWAP1 RETURN JUMPDEST PUSH4 0x4E487B71 PUSH1 0xE0 SHL DUP2 MSTORE PUSH1 0x41 DUP6 MSTORE PUSH1 0x24 SWAP1 REVERT JUMPDEST DUP8 DUP8 MSTORE SWAP2 SWAP3 POP DUP6 SWAP2 DUP4 PUSH32 0x8A35ACFBC15FF81A39AE7D344FD709F28E8600B4AA8C65C6B64BFE7FE36BD19B JUMPDEST DUP4 DUP6 LT PUSH2 0x5D5 JUMPI POP POP POP POP DUP4 ADD ADD CODESIZE DUP1 DUP1 PUSH2 0x54B JUMP JUMPDEST DUP1 SLOAD DUP9 DUP7 ADD DUP4 ADD MSTORE SWAP4 ADD SWAP3 DUP5 SWAP1 DUP3 ADD PUSH2 0x5BF JUMP JUMPDEST PUSH1 0xFF NOT AND DUP8 DUP6 ADD MSTORE POP POP ISZERO ISZERO PUSH1 0x5 SHL DUP5 ADD ADD SWAP1 POP CODESIZE DUP1 DUP1 PUSH2 0x54B JUMP JUMPDEST PUSH4 0x4E487B71 PUSH1 0xE0 SHL DUP10 MSTORE PUSH1 0x22 DUP11 MSTORE PUSH1 0x24 DUP10 REVERT JUMPDEST SWAP2 PUSH1 0x7F AND SWAP2 PUSH2 0x52C JUMP JUMPDEST POP POP CALLVALUE PUSH2 0x27B JUMPI DUP2 PUSH1 0x3 NOT CALLDATASIZE ADD SLT PUSH2 0x27B JUMPI PUSH1 0x5 SLOAD SWAP1 MLOAD PUSH1 0x8 SWAP2 SWAP1 SWAP2 SHR PUSH1 0x1 PUSH1 0x1 PUSH1 0xA0 SHL SUB AND DUP2 MSTORE PUSH1 0x20 SWAP1 RETURN JUMPDEST POP POP CALLVALUE PUSH2 0x27B JUMPI DUP2 PUSH1 0x3 NOT CALLDATASIZE ADD SLT PUSH2 0x27B JUMPI PUSH1 0x20 PUSH32 0x62E78CEA01BEE320CD4E420270B5EA74000D11B0C9F74754EBDBFC544B05A258 SWAP2 PUSH2 0x68D PUSH2 0x1023 JUMP JUMPDEST PUSH2 0x695 PUSH2 0x1758 JUMP JUMPDEST PUSH1 0x1 PUSH1 0xFF NOT PUSH1 0x5 SLOAD AND OR PUSH1 0x5 SSTORE MLOAD CALLER DUP2 MSTORE LOG1 DUP1 RETURN JUMPDEST POP POP CALLVALUE PUSH2 0x27B JUMPI CALLDATASIZE PUSH1 0x3 NOT ADD SLT PUSH2 0x3DC JUMPI PUSH2 0x6DA PUSH2 0x6C6 PUSH2 0xF93 JUMP JUMPDEST PUSH1 0x24 CALLDATALOAD SWAP1 PUSH2 0x6D5 DUP3 CALLER DUP4 PUSH2 0x1319 JUMP JUMPDEST PUSH2 0x13B1 JUMP JUMPDEST DUP1 RETURN JUMPDEST DUP4 CALLVALUE PUSH2 0x3DC JUMPI DUP1 PUSH1 0x3 NOT CALLDATASIZE ADD SLT PUSH2 0x3DC JUMPI PUSH2 0x6F6 PUSH2 0x1023 JUMP JUMPDEST PUSH1 0x5 DUP1 SLOAD PUSH2 0x100 PUSH1 0x1 PUSH1 0xA8 SHL SUB NOT DUP2 AND SWAP1 SWAP2 SSTORE DUP2 SWAP1 PUSH1 0x8 SHR PUSH1 0x1 PUSH1 0x1 PUSH1 0xA0 SHL SUB AND PUSH32 0x8BE0079C531659141344CD1FD0A4F28419497F9722A3DAAFE3B4186F6B6457E0 DUP3 DUP1 LOG3 DUP1 RETURN JUMPDEST POP POP CALLVALUE PUSH2 0x27B JUMPI PUSH1 0x20 CALLDATASIZE PUSH1 0x3 NOT ADD SLT PUSH2 0x27B JUMPI PUSH1 0x20 SWAP2 DUP2 SWAP1 PUSH1 0x1 PUSH1 0x1 PUSH1 0xA0 SHL SUB PUSH2 0x766 PUSH2 0xF93 JUMP JUMPDEST AND DUP2 MSTORE DUP1 DUP5 MSTORE KECCAK256 SLOAD SWAP1 MLOAD SWAP1 DUP2 MSTORE RETURN JUMPDEST POP POP CALLVALUE PUSH2 0x27B JUMPI DUP2 PUSH1 0x3 NOT CALLDATASIZE ADD SLT PUSH2 0x27B JUMPI PUSH1 0x20 SWAP1 PUSH1 0xFF PUSH1 0x5 SLOAD AND SWAP1 MLOAD SWAP1 ISZERO ISZERO DUP2 MSTORE RETURN JUMPDEST DUP4 DUP3 CALLVALUE PUSH2 0x27B JUMPI PUSH1 0x20 CALLDATASIZE PUSH1 0x3 NOT ADD SLT PUSH2 0x27B JUMPI PUSH2 0x6DA SWAP1 CALLDATALOAD CALLER PUSH2 0x13B1 JUMP JUMPDEST POP CALLVALUE PUSH2 0x22E JUMPI DUP3 PUSH1 0x3 NOT CALLDATASIZE ADD SLT PUSH2 0x22E JUMPI PUSH2 0x7D0 PUSH2 0x1023 JUMP JUMPDEST PUSH1 0x5 SLOAD SWAP1 PUSH1 0xFF DUP3 AND ISZERO PUSH2 0x812 JUMPI POP PUSH1 0xFF NOT AND PUSH1 0x5 SSTORE MLOAD CALLER DUP2 MSTORE PUSH32 0x5DB9EE0A495BF2E6FF9C91A7834C1BA4FDD244A5E8AA4E537BD38AEAE4B073AA SWAP1 PUSH1 0x20 SWAP1 LOG1 DUP1 RETURN JUMPDEST PUSH1 0x64 SWAP1 PUSH1 0x20 DUP5 MLOAD SWAP2 PUSH3 0x461BCD PUSH1 0xE5 SHL DUP4 MSTORE DUP3 ADD MSTORE PUSH1 0x14 PUSH1 0x24 DUP3 ADD MSTORE PUSH20 0x14185D5CD8589B194E881B9BDD081C185D5CD959 PUSH1 0x62 SHL PUSH1 0x44 DUP3 ADD MSTORE REVERT JUMPDEST POP DUP3 SWAP1 CALLVALUE PUSH2 0x27B JUMPI PUSH1 0x60 CALLDATASIZE PUSH1 0x3 NOT ADD SLT PUSH2 0x27B JUMPI PUSH8 0xFFFFFFFFFFFFFFFF DUP2 CALLDATALOAD DUP2 DUP2 GT PUSH2 0xA80 JUMPI PUSH2 0x87F SWAP1 CALLDATASIZE SWAP1 DUP5 ADD PUSH2 0xFF2 JUMP JUMPDEST SWAP2 SWAP1 SWAP5 PUSH1 0x24 CALLDATALOAD DUP3 DUP2 GT PUSH2 0xA7C JUMPI PUSH2 0x899 SWAP1 CALLDATASIZE SWAP1 DUP7 ADD PUSH2 0xFF2 JUMP JUMPDEST SWAP3 PUSH1 0x44 CALLDATALOAD SWAP1 DUP2 GT PUSH2 0xA78 JUMPI PUSH2 0x8B1 SWAP1 CALLDATASIZE SWAP1 DUP8 ADD PUSH2 0xFC4 JUMP JUMPDEST SWAP2 SWAP1 SWAP6 CALLER DUP9 MSTORE PUSH1 0x6 PUSH1 0x20 MSTORE PUSH2 0x8CB PUSH1 0xFF DUP6 DUP11 KECCAK256 SLOAD AND PUSH2 0x14C0 JUMP JUMPDEST DUP5 DUP7 SUB PUSH2 0xA35 JUMPI DUP6 ISZERO PUSH2 0x9F9 JUMPI POP DUP7 DUP8 JUMPDEST DUP6 DUP2 LT PUSH2 0x9D4 JUMPI POP PUSH11 0x52B7D2DCC80CD2E4000000 PUSH2 0x8FF PUSH2 0x906 SWAP3 PUSH1 0x2 SLOAD PUSH2 0x107E JUMP JUMPDEST GT ISZERO PUSH2 0x15E0 JUMP JUMPDEST DUP7 JUMPDEST DUP6 DUP2 LT PUSH2 0x913 JUMPI DUP8 DUP1 RETURN JUMPDEST DUP1 DUP6 PUSH32 0xB969D134776A7F04430DBBCAC4E68734B1C6C5ADCECBF68C3CBE6A9A4F2C8A1D PUSH2 0x9A7 PUSH2 0x964 DUP5 DUP12 DUP16 PUSH2 0x9A2 DUP11 PUSH2 0x99B PUSH2 0x9CF SWAP12 PUSH1 0x1 DUP1 PUSH1 0xA0 SHL SUB SWAP11 PUSH2 0x971 DUP13 PUSH2 0x969 PUSH2 0x964 DUP6 DUP12 DUP12 PUSH2 0x171E JUMP JUMPDEST PUSH2 0x1744 JUMP JUMPDEST AND ISZERO ISZERO PUSH2 0x1521 JUMP JUMPDEST PUSH2 0x987 PUSH2 0x97F DUP4 DUP4 DUP8 PUSH2 0x171E JUMP JUMPDEST CALLDATALOAD ISZERO ISZERO PUSH2 0x157D JUMP JUMPDEST PUSH2 0x995 PUSH2 0x964 DUP4 DUP10 DUP10 PUSH2 0x171E JUMP JUMPDEST SWAP4 PUSH2 0x171E JUMP JUMPDEST CALLDATALOAD SWAP1 PUSH2 0x1664 JUMP JUMPDEST PUSH2 0x171E JUMP JUMPDEST SWAP2 PUSH2 0x9B3 DUP5 DUP11 DUP9 PUSH2 0x171E JUMP JUMPDEST CALLDATALOAD SWAP3 PUSH2 0x9C7 DUP9 DUP14 DUP12 MLOAD SWAP5 DUP6 SWAP5 AND SWAP7 DUP5 PUSH2 0x1636 JUMP JUMPDEST SUB SWAP1 LOG2 PUSH2 0x170F JUMP JUMPDEST PUSH2 0x908 JUMP JUMPDEST SWAP1 PUSH2 0x9EE PUSH2 0x9F4 SWAP2 PUSH2 0x9E7 DUP5 DUP10 DUP8 PUSH2 0x171E JUMP JUMPDEST CALLDATALOAD SWAP1 PUSH2 0x107E JUMP JUMPDEST SWAP2 PUSH2 0x170F JUMP JUMPDEST PUSH2 0x8DC JUMP JUMPDEST PUSH1 0x64 SWAP1 PUSH1 0x20 DUP6 MLOAD SWAP2 PUSH3 0x461BCD PUSH1 0xE5 SHL DUP4 MSTORE DUP3 ADD MSTORE PUSH1 0x16 PUSH1 0x24 DUP3 ADD MSTORE PUSH22 0x454455546F6B656E3A20656D70747920617272617973 PUSH1 0x50 SHL PUSH1 0x44 DUP3 ADD MSTORE REVERT JUMPDEST PUSH1 0x64 SWAP1 PUSH1 0x20 DUP6 MLOAD SWAP2 PUSH3 0x461BCD PUSH1 0xE5 SHL DUP4 MSTORE DUP3 ADD MSTORE PUSH1 0x20 PUSH1 0x24 DUP3 ADD MSTORE PUSH32 0x454455546F6B656E3A20617272617973206C656E677468206D69736D61746368 PUSH1 0x44 DUP3 ADD MSTORE REVERT JUMPDEST DUP7 DUP1 REVERT JUMPDEST DUP6 DUP1 REVERT JUMPDEST DUP4 DUP1 REVERT JUMPDEST POP POP CALLVALUE PUSH2 0x27B JUMPI DUP1 PUSH1 0x3 NOT CALLDATASIZE ADD SLT PUSH2 0x27B JUMPI PUSH2 0x331 PUSH1 0x20 SWAP3 PUSH2 0xACD PUSH2 0xAA7 PUSH2 0xF93 JUMP JUMPDEST CALLER DUP4 MSTORE PUSH1 0x1 DUP7 MSTORE DUP5 DUP4 KECCAK256 PUSH1 0x1 PUSH1 0x1 PUSH1 0xA0 SHL SUB DUP3 AND DUP5 MSTORE DUP7 MSTORE SWAP2 DUP5 SWAP1 KECCAK256 SLOAD PUSH1 0x24 CALLDATALOAD SWAP1 PUSH2 0x107E JUMP JUMPDEST SWAP1 CALLER PUSH2 0x1217 JUMP JUMPDEST POP POP CALLVALUE PUSH2 0x27B JUMPI DUP2 PUSH1 0x3 NOT CALLDATASIZE ADD SLT PUSH2 0x27B JUMPI PUSH1 0x20 SWAP1 MLOAD PUSH11 0x52B7D2DCC80CD2E4000000 DUP2 MSTORE RETURN JUMPDEST POP POP CALLVALUE PUSH2 0x27B JUMPI DUP2 PUSH1 0x3 NOT CALLDATASIZE ADD SLT PUSH2 0x27B JUMPI PUSH1 0x20 SWAP1 MLOAD PUSH1 0x12 DUP2 MSTORE RETURN JUMPDEST POP SWAP1 CALLVALUE PUSH2 0x22E JUMPI PUSH1 0x20 CALLDATASIZE PUSH1 0x3 NOT ADD SLT PUSH2 0x22E JUMPI PUSH2 0xB31 PUSH2 0xF93 JUMP JUMPDEST PUSH2 0xB39 PUSH2 0x1023 JUMP JUMPDEST PUSH1 0x1 PUSH1 0x1 PUSH1 0xA0 SHL SUB AND DUP1 DUP5 MSTORE PUSH1 0x6 PUSH1 0x20 MSTORE DUP2 DUP5 KECCAK256 SLOAD SWAP1 SWAP3 SWAP1 PUSH1 0xFF AND ISZERO PUSH2 0xB93 JUMPI POP DUP2 DUP4 MSTORE PUSH1 0x6 PUSH1 0x20 MSTORE DUP3 KECCAK256 DUP1 SLOAD PUSH1 0xFF NOT AND SWAP1 SSTORE PUSH32 0xE94479A9F7E1952CC78F2D6BAAB678ADC1B772D936C6583DEF489E524CB66692 DUP3 DUP1 LOG2 DUP1 RETURN JUMPDEST PUSH1 0x20 PUSH1 0x64 SWAP3 MLOAD SWAP2 PUSH3 0x461BCD PUSH1 0xE5 SHL DUP4 MSTORE DUP3 ADD MSTORE PUSH1 0x1F PUSH1 0x24 DUP3 ADD MSTORE PUSH32 0x454455546F6B656E3A206D696E746572206E6F7420617574686F72697A656400 PUSH1 0x44 DUP3 ADD MSTORE REVERT JUMPDEST POP POP CALLVALUE PUSH2 0x27B JUMPI PUSH1 0x60 CALLDATASIZE PUSH1 0x3 NOT ADD SLT PUSH2 0x27B JUMPI PUSH1 0x20 SWAP1 PUSH2 0x331 PUSH2 0xBF6 PUSH2 0xF93 JUMP JUMPDEST PUSH2 0xBFE PUSH2 0xFAE JUMP JUMPDEST PUSH1 0x44 CALLDATALOAD SWAP2 PUSH2 0xC0D DUP4 CALLER DUP4 PUSH2 0x1319 JUMP JUMPDEST PUSH2 0x10A1 JUMP JUMPDEST POP POP CALLVALUE PUSH2 0x27B JUMPI DUP2 PUSH1 0x3 NOT CALLDATASIZE ADD SLT PUSH2 0x27B JUMPI PUSH1 0x20 SWAP1 PUSH1 0x2 SLOAD SWAP1 MLOAD SWAP1 DUP2 MSTORE RETURN JUMPDEST POP DUP3 SWAP1 CALLVALUE PUSH2 0x27B JUMPI DUP3 PUSH1 0x3 NOT CALLDATASIZE ADD SLT PUSH2 0x27B JUMPI DUP1 CALLDATALOAD SWAP1 PUSH1 0x24 CALLDATALOAD PUSH8 0xFFFFFFFFFFFFFFFF DUP2 GT PUSH2 0xA80 JUMPI PUSH2 0xC66 SWAP1 CALLDATASIZE SWAP1 DUP4 ADD PUSH2 0xFC4 JUMP JUMPDEST SWAP2 DUP4 ISZERO PUSH2 0xD05 JUMPI CALLER DUP6 MSTORE DUP5 PUSH1 0x20 MSTORE DUP4 DUP7 DUP7 KECCAK256 SLOAD LT PUSH2 0xCC2 JUMPI POP PUSH2 0xCBC DUP4 SWAP5 SWAP6 PUSH2 0xCB0 PUSH32 0x840B44FDBCB5CC554D649D4EFF35E951766F31D646497B364A9CD6D6677D3E14 SWAP6 CALLER PUSH2 0x13B1 JUMP JUMPDEST MLOAD SWAP3 DUP4 SWAP3 CALLER SWAP7 DUP5 PUSH2 0x1636 JUMP JUMPDEST SUB SWAP1 LOG2 DUP1 RETURN JUMPDEST PUSH1 0x64 SWAP1 PUSH1 0x20 DUP8 MLOAD SWAP2 PUSH3 0x461BCD PUSH1 0xE5 SHL DUP4 MSTORE DUP3 ADD MSTORE PUSH1 0x1E PUSH1 0x24 DUP3 ADD MSTORE PUSH32 0x454455546F6B656E3A20696E73756666696369656E742062616C616E63650000 PUSH1 0x44 DUP3 ADD MSTORE REVERT JUMPDEST PUSH1 0x84 SWAP1 PUSH1 0x20 DUP8 MLOAD SWAP2 PUSH3 0x461BCD PUSH1 0xE5 SHL DUP4 MSTORE DUP3 ADD MSTORE PUSH1 0x2E PUSH1 0x24 DUP3 ADD MSTORE PUSH32 0x454455546F6B656E3A2072656465656D20616D6F756E74206D75737420626520 PUSH1 0x44 DUP3 ADD MSTORE PUSH14 0x67726561746572207468616E203 PUSH1 0x94 SHL PUSH1 0x64 DUP3 ADD MSTORE REVERT JUMPDEST POP CALLVALUE PUSH2 0x22E JUMPI PUSH1 0x60 CALLDATASIZE PUSH1 0x3 NOT ADD SLT PUSH2 0x22E JUMPI PUSH2 0xD79 PUSH2 0xF93 JUMP JUMPDEST SWAP2 PUSH1 0x24 CALLDATALOAD PUSH1 0x44 CALLDATALOAD SWAP3 PUSH8 0xFFFFFFFFFFFFFFFF DUP5 GT PUSH2 0xA7C JUMPI PUSH2 0xDC1 PUSH2 0xCBC SWAP2 PUSH32 0xB969D134776A7F04430DBBCAC4E68734B1C6C5ADCECBF68C3CBE6A9A4F2C8A1D SWAP6 CALLDATASIZE SWAP2 ADD PUSH2 0xFC4 JUMP JUMPDEST SWAP1 SWAP4 CALLER DUP9 MSTORE PUSH1 0x6 PUSH1 0x20 MSTORE PUSH2 0xDDA PUSH1 0xFF DUP3 DUP11 KECCAK256 SLOAD AND PUSH2 0x14C0 JUMP JUMPDEST PUSH1 0x1 PUSH1 0x1 PUSH1 0xA0 SHL SUB DUP8 AND SWAP7 PUSH2 0xE21 SWAP1 DUP6 SWAP1 PUSH2 0xDF6 DUP11 ISZERO ISZERO PUSH2 0x1521 JUMP JUMPDEST PUSH2 0xE01 DUP3 ISZERO ISZERO PUSH2 0x157D JUMP JUMPDEST PUSH2 0xE1C PUSH11 0x52B7D2DCC80CD2E4000000 PUSH2 0x8FF DUP5 PUSH1 0x2 SLOAD PUSH2 0x107E JUMP JUMPDEST PUSH2 0x1664 JUMP JUMPDEST MLOAD SWAP4 DUP5 SWAP4 DUP5 PUSH2 0x1636 JUMP JUMPDEST POP POP CALLVALUE PUSH2 0x27B JUMPI DUP1 PUSH1 0x3 NOT CALLDATASIZE ADD SLT PUSH2 0x27B JUMPI PUSH1 0x20 SWAP1 PUSH2 0x331 PUSH2 0xE4B PUSH2 0xF93 JUMP JUMPDEST PUSH1 0x24 CALLDATALOAD SWAP1 CALLER PUSH2 0x1217 JUMP JUMPDEST DUP5 SWAP2 POP DUP4 CALLVALUE PUSH2 0x22E JUMPI DUP3 PUSH1 0x3 NOT CALLDATASIZE ADD SLT PUSH2 0x22E JUMPI DUP3 PUSH1 0x3 SLOAD PUSH1 0x1 DUP2 DUP2 SHR SWAP1 DUP1 DUP4 AND SWAP3 DUP4 ISZERO PUSH2 0xF40 JUMPI JUMPDEST PUSH1 0x20 SWAP4 DUP5 DUP5 LT DUP2 EQ PUSH2 0x605 JUMPI DUP4 DUP9 MSTORE SWAP1 DUP2 ISZERO PUSH2 0xF24 JUMPI POP PUSH1 0x1 EQ PUSH2 0xECE JUMPI POP POP POP DUP3 SWAP1 SUB PUSH1 0x1F ADD PUSH1 0x1F NOT AND DUP3 ADD SWAP3 PUSH8 0xFFFFFFFFFFFFFFFF DUP5 GT DUP4 DUP6 LT OR PUSH2 0x581 JUMPI POP DUP3 SWAP2 DUP3 PUSH2 0x57D SWAP3 MSTORE DUP3 PUSH2 0xF4A JUMP JUMPDEST PUSH1 0x3 DUP8 MSTORE SWAP2 SWAP3 POP DUP6 SWAP2 DUP4 PUSH32 0xC2575A0E9E593C00F959F8C92F12DB2869C3395A3B0502D05E2516446F71F85B JUMPDEST DUP4 DUP6 LT PUSH2 0xF10 JUMPI POP POP POP POP DUP4 ADD ADD DUP6 DUP1 DUP1 PUSH2 0x54B JUMP JUMPDEST DUP1 SLOAD DUP9 DUP7 ADD DUP4 ADD MSTORE SWAP4 ADD SWAP3 DUP5 SWAP1 DUP3 ADD PUSH2 0xEFA JUMP JUMPDEST PUSH1 0xFF NOT AND DUP8 DUP6 ADD MSTORE POP POP ISZERO ISZERO PUSH1 0x5 SHL DUP5 ADD ADD SWAP1 POP DUP6 DUP1 DUP1 PUSH2 0x54B JUMP JUMPDEST SWAP2 PUSH1 0x7F AND SWAP2 PUSH2 0xE7E JUMP JUMPDEST PUSH1 0x20 DUP1 DUP3 MSTORE DUP3 MLOAD DUP2 DUP4 ADD DUP2 SWAP1 MSTORE SWAP1 SWAP4 SWAP3 PUSH1 0x0 JUMPDEST DUP3 DUP2 LT PUSH2 0xF7F JUMPI POP POP PUSH1 0x40 SWAP3 SWAP4 POP PUSH1 0x0 DUP4 DUP3 DUP5 ADD ADD MSTORE PUSH1 0x1F DUP1 NOT SWAP2 ADD AND ADD ADD SWAP1 JUMP JUMPDEST DUP2 DUP2 ADD DUP7 ADD MLOAD DUP5 DUP3 ADD PUSH1 0x40 ADD MSTORE DUP6 ADD PUSH2 0xF5D JUMP JUMPDEST PUSH1 0x4 CALLDATALOAD SWAP1 PUSH1 0x1 PUSH1 0x1 PUSH1 0xA0 SHL SUB DUP3 AND DUP3 SUB PUSH2 0xFA9 JUMPI JUMP JUMPDEST PUSH1 0x0 DUP1 REVERT JUMPDEST PUSH1 0x24 CALLDATALOAD SWAP1 PUSH1 0x1 PUSH1 0x1 PUSH1 0xA0 SHL SUB DUP3 AND DUP3 SUB PUSH2 0xFA9 JUMPI JUMP JUMPDEST SWAP2 DUP2 PUSH1 0x1F DUP5 ADD SLT ISZERO PUSH2 0xFA9 JUMPI DUP3 CALLDATALOAD SWAP2 PUSH8 0xFFFFFFFFFFFFFFFF DUP4 GT PUSH2 0xFA9 JUMPI PUSH1 0x20 DUP4 DUP2 DUP7 ADD SWAP6 ADD ADD GT PUSH2 0xFA9 JUMPI JUMP JUMPDEST SWAP2 DUP2 PUSH1 0x1F DUP5 ADD SLT ISZERO PUSH2 0xFA9 JUMPI DUP3 CALLDATALOAD SWAP2 PUSH8 0xFFFFFFFFFFFFFFFF DUP4 GT PUSH2 0xFA9 JUMPI PUSH1 0x20 DUP1 DUP6 ADD SWAP5 DUP5 PUSH1 0x5 SHL ADD ADD GT PUSH2 0xFA9 JUMPI JUMP JUMPDEST PUSH1 0x5 SLOAD PUSH1 0x8 SHR PUSH1 0x1 PUSH1 0x1 PUSH1 0xA0 SHL SUB AND CALLER SUB PUSH2 0x103A JUMPI JUMP JUMPDEST PUSH1 0x64 PUSH1 0x40 MLOAD PUSH3 0x461BCD PUSH1 0xE5 SHL DUP2 MSTORE PUSH1 0x20 PUSH1 0x4 DUP3 ADD MSTORE PUSH1 0x20 PUSH1 0x24 DUP3 ADD MSTORE PUSH32 0x4F776E61626C653A2063616C6C6572206973206E6F7420746865206F776E6572 PUSH1 0x44 DUP3 ADD MSTORE REVERT JUMPDEST SWAP2 SWAP1 DUP3 ADD DUP1 SWAP3 GT PUSH2 0x108B JUMPI JUMP JUMPDEST PUSH4 0x4E487B71 PUSH1 0xE0 SHL PUSH1 0x0 MSTORE PUSH1 0x11 PUSH1 0x4 MSTORE PUSH1 0x24 PUSH1 0x0 REVERT JUMPDEST PUSH1 0x1 PUSH1 0x1 PUSH1 0xA0 SHL SUB SWAP1 DUP2 AND SWAP2 DUP3 ISZERO PUSH2 0x11C4 JUMPI AND SWAP2 DUP3 ISZERO PUSH2 0x1173 JUMPI PUSH2 0x10C3 PUSH2 0x1758 JUMP JUMPDEST PUSH1 0x0 DUP3 DUP2 MSTORE DUP1 PUSH1 0x20 MSTORE PUSH1 0x40 DUP2 KECCAK256 SLOAD SWAP2 DUP1 DUP4 LT PUSH2 0x111F JUMPI PUSH1 0x40 DUP3 DUP3 PUSH32 0xDDF252AD1BE2C89B69C2B068FC378DAA952BA7F163C4A11628F55A4DF523B3EF SWAP6 DUP8 PUSH1 0x20 SWAP7 MSTORE DUP3 DUP7 MSTORE SUB DUP3 DUP3 KECCAK256 SSTORE DUP7 DUP2 MSTORE KECCAK256 DUP2 DUP2 SLOAD ADD SWAP1 SSTORE PUSH1 0x40 MLOAD SWAP1 DUP2 MSTORE LOG3 JUMP JUMPDEST PUSH1 0x40 MLOAD PUSH3 0x461BCD PUSH1 0xE5 SHL DUP2 MSTORE PUSH1 0x20 PUSH1 0x4 DUP3 ADD MSTORE PUSH1 0x26 PUSH1 0x24 DUP3 ADD MSTORE PUSH32 0x45524332303A207472616E7366657220616D6F756E7420657863656564732062 PUSH1 0x44 DUP3 ADD MSTORE PUSH6 0x616C616E6365 PUSH1 0xD0 SHL PUSH1 0x64 DUP3 ADD MSTORE PUSH1 0x84 SWAP1 REVERT JUMPDEST PUSH1 0x40 MLOAD PUSH3 0x461BCD PUSH1 0xE5 SHL DUP2 MSTORE PUSH1 0x20 PUSH1 0x4 DUP3 ADD MSTORE PUSH1 0x23 PUSH1 0x24 DUP3 ADD MSTORE PUSH32 0x45524332303A207472616E7366657220746F20746865207A65726F2061646472 PUSH1 0x44 DUP3 ADD MSTORE PUSH3 0x657373 PUSH1 0xE8 SHL PUSH1 0x64 DUP3 ADD MSTORE PUSH1 0x84 SWAP1 REVERT JUMPDEST PUSH1 0x40 MLOAD PUSH3 0x461BCD PUSH1 0xE5 SHL DUP2 MSTORE PUSH1 0x20 PUSH1 0x4 DUP3 ADD MSTORE PUSH1 0x25 PUSH1 0x24 DUP3 ADD MSTORE PUSH32 0x45524332303A207472616E736665722066726F6D20746865207A65726F206164 PUSH1 0x44 DUP3 ADD MSTORE PUSH5 0x6472657373 PUSH1 0xD8 SHL PUSH1 0x64 DUP3 ADD MSTORE PUSH1 0x84 SWAP1 REVERT JUMPDEST PUSH1 0x1 PUSH1 0x1 PUSH1 0xA0 SHL SUB SWAP1 DUP2 AND SWAP2 DUP3 ISZERO PUSH2 0x12C8 JUMPI AND SWAP2 DUP3 ISZERO PUSH2 0x1278 JUMPI PUSH1 0x20 PUSH32 0x8C5BE1E5EBEC7D5BD14F71427D1E84F3DD0314C0F7B2291E5B200AC8C7C3B925 SWAP2 DUP4 PUSH1 0x0 MSTORE PUSH1 0x1 DUP3 MSTORE PUSH1 0x40 PUSH1 0x0 KECCAK256 DUP6 PUSH1 0x0 MSTORE DUP3 MSTORE DUP1 PUSH1 0x40 PUSH1 0x0 KECCAK256 SSTORE PUSH1 0x40 MLOAD SWAP1 DUP2 MSTORE LOG3 JUMP JUMPDEST PUSH1 0x40 MLOAD PUSH3 0x461BCD PUSH1 0xE5 SHL DUP2 MSTORE PUSH1 0x20 PUSH1 0x4 DUP3 ADD MSTORE PUSH1 0x22 PUSH1 0x24 DUP3 ADD MSTORE PUSH32 0x45524332303A20617070726F766520746F20746865207A65726F206164647265 PUSH1 0x44 DUP3 ADD MSTORE PUSH2 0x7373 PUSH1 0xF0 SHL PUSH1 0x64 DUP3 ADD MSTORE PUSH1 0x84 SWAP1 REVERT JUMPDEST PUSH1 0x40 MLOAD PUSH3 0x461BCD PUSH1 0xE5 SHL DUP2 MSTORE PUSH1 0x20 PUSH1 0x4 DUP3 ADD MSTORE PUSH1 0x24 DUP1 DUP3 ADD MSTORE PUSH32 0x45524332303A20617070726F76652066726F6D20746865207A65726F20616464 PUSH1 0x44 DUP3 ADD MSTORE PUSH4 0x72657373 PUSH1 0xE0 SHL PUSH1 0x64 DUP3 ADD MSTORE PUSH1 0x84 SWAP1 REVERT JUMPDEST SWAP1 PUSH1 0x1 DUP1 PUSH1 0xA0 SHL SUB DUP1 DUP4 AND PUSH1 0x0 MSTORE PUSH1 0x1 PUSH1 0x20 MSTORE PUSH1 0x40 PUSH1 0x0 KECCAK256 SWAP1 DUP3 AND PUSH1 0x0 MSTORE PUSH1 0x20 MSTORE PUSH1 0x40 PUSH1 0x0 KECCAK256 SLOAD SWAP3 PUSH1 0x0 NOT DUP5 SUB PUSH2 0x1351 JUMPI JUMPDEST POP POP POP POP JUMP JUMPDEST DUP1 DUP5 LT PUSH2 0x136C JUMPI PUSH2 0x1363 SWAP4 SUB SWAP2 PUSH2 0x1217 JUMP JUMPDEST CODESIZE DUP1 DUP1 DUP1 PUSH2 0x134B JUMP JUMPDEST PUSH1 0x40 MLOAD PUSH3 0x461BCD PUSH1 0xE5 SHL DUP2 MSTORE PUSH1 0x20 PUSH1 0x4 DUP3 ADD MSTORE PUSH1 0x1D PUSH1 0x24 DUP3 ADD MSTORE PUSH32 0x45524332303A20696E73756666696369656E7420616C6C6F77616E6365000000 PUSH1 0x44 DUP3 ADD MSTORE PUSH1 0x64 SWAP1 REVERT JUMPDEST PUSH1 0x1 PUSH1 0x1 PUSH1 0xA0 SHL SUB AND DUP1 ISZERO PUSH2 0x1471 JUMPI PUSH2 0x13C8 PUSH2 0x1758 JUMP JUMPDEST PUSH1 0x0 SWAP2 DUP2 DUP4 MSTORE DUP3 PUSH1 0x20 MSTORE PUSH1 0x40 DUP4 KECCAK256 SLOAD DUP2 DUP2 LT PUSH2 0x1421 JUMPI DUP2 PUSH32 0xDDF252AD1BE2C89B69C2B068FC378DAA952BA7F163C4A11628F55A4DF523B3EF SWAP3 PUSH1 0x20 SWAP3 DUP6 DUP8 MSTORE DUP7 DUP5 MSTORE SUB PUSH1 0x40 DUP7 KECCAK256 SSTORE DUP1 PUSH1 0x2 SLOAD SUB PUSH1 0x2 SSTORE PUSH1 0x40 MLOAD SWAP1 DUP2 MSTORE LOG3 JUMP JUMPDEST PUSH1 0x40 MLOAD PUSH3 0x461BCD PUSH1 0xE5 SHL DUP2 MSTORE PUSH1 0x20 PUSH1 0x4 DUP3 ADD MSTORE PUSH1 0x22 PUSH1 0x24 DUP3 ADD MSTORE PUSH32 0x45524332303A206275726E20616D6F756E7420657863656564732062616C616E PUSH1 0x44 DUP3 ADD MSTORE PUSH2 0x6365 PUSH1 0xF0 SHL PUSH1 0x64 DUP3 ADD MSTORE PUSH1 0x84 SWAP1 REVERT JUMPDEST PUSH1 0x40 MLOAD PUSH3 0x461BCD PUSH1 0xE5 SHL DUP2 MSTORE PUSH1 0x20 PUSH1 0x4 DUP3 ADD MSTORE PUSH1 0x21 PUSH1 0x24 DUP3 ADD MSTORE PUSH32 0x45524332303A206275726E2066726F6D20746865207A65726F20616464726573 PUSH1 0x44 DUP3 ADD MSTORE PUSH1 0x73 PUSH1 0xF8 SHL PUSH1 0x64 DUP3 ADD MSTORE PUSH1 0x84 SWAP1 REVERT JUMPDEST ISZERO PUSH2 0x14C7 JUMPI JUMP JUMPDEST PUSH1 0x40 MLOAD PUSH3 0x461BCD PUSH1 0xE5 SHL DUP2 MSTORE PUSH1 0x20 PUSH1 0x4 DUP3 ADD MSTORE PUSH1 0x2C PUSH1 0x24 DUP3 ADD MSTORE PUSH32 0x454455546F6B656E3A2063616C6C6572206973206E6F7420616E20617574686F PUSH1 0x44 DUP3 ADD MSTORE PUSH12 0x3934BD32B21036B4B73A32B9 PUSH1 0xA1 SHL PUSH1 0x64 DUP3 ADD MSTORE PUSH1 0x84 SWAP1 REVERT JUMPDEST ISZERO PUSH2 0x1528 JUMPI JUMP JUMPDEST PUSH1 0x40 MLOAD PUSH3 0x461BCD PUSH1 0xE5 SHL DUP2 MSTORE PUSH1 0x20 PUSH1 0x4 DUP3 ADD MSTORE PUSH1 0x27 PUSH1 0x24 DUP3 ADD MSTORE PUSH32 0x454455546F6B656E3A2063616E6E6F742072657761726420746F207A65726F20 PUSH1 0x44 DUP3 ADD MSTORE PUSH7 0x61646472657373 PUSH1 0xC8 SHL PUSH1 0x64 DUP3 ADD MSTORE PUSH1 0x84 SWAP1 REVERT JUMPDEST ISZERO PUSH2 0x1584 JUMPI JUMP JUMPDEST PUSH1 0x40 MLOAD PUSH3 0x461BCD PUSH1 0xE5 SHL DUP2 MSTORE PUSH1 0x20 PUSH1 0x4 DUP3 ADD MSTORE PUSH1 0x2E PUSH1 0x24 DUP3 ADD MSTORE PUSH32 0x454455546F6B656E3A2072657761726420616D6F756E74206D75737420626520 PUSH1 0x44 DUP3 ADD MSTORE PUSH14 0x67726561746572207468616E203 PUSH1 0x94 SHL PUSH1 0x64 DUP3 ADD MSTORE PUSH1 0x84 SWAP1 REVERT JUMPDEST ISZERO PUSH2 0x15E7 JUMPI JUMP JUMPDEST PUSH1 0x40 MLOAD PUSH3 0x461BCD PUSH1 0xE5 SHL DUP2 MSTORE PUSH1 0x20 PUSH1 0x4 DUP3 ADD MSTORE PUSH1 0x21 PUSH1 0x24 DUP3 ADD MSTORE PUSH32 0x454455546F6B656E3A20776F756C6420657863656564206D617820737570706C PUSH1 0x44 DUP3 ADD MSTORE PUSH1 0x79 PUSH1 0xF8 SHL PUSH1 0x64 DUP3 ADD MSTORE PUSH1 0x84 SWAP1 REVERT JUMPDEST SWAP2 SWAP3 PUSH1 0x60 SWAP4 DUP2 SWAP3 DUP5 MSTORE PUSH1 0x40 PUSH1 0x20 DUP6 ADD MSTORE DUP2 PUSH1 0x40 DUP6 ADD MSTORE DUP5 DUP5 ADD CALLDATACOPY PUSH1 0x0 DUP3 DUP3 ADD DUP5 ADD MSTORE PUSH1 0x1F ADD PUSH1 0x1F NOT AND ADD ADD SWAP1 JUMP JUMPDEST PUSH1 0x1 PUSH1 0x1 PUSH1 0xA0 SHL SUB AND SWAP1 DUP2 ISZERO PUSH2 0x16CA JUMPI PUSH32 0xDDF252AD1BE2C89B69C2B068FC378DAA952BA7F163C4A11628F55A4DF523B3EF PUSH1 0x20 PUSH1 0x0 SWAP3 PUSH2 0x16A2 PUSH2 0x1758 JUMP JUMPDEST PUSH2 0x16AE DUP2 PUSH1 0x2 SLOAD PUSH2 0x107E JUMP JUMPDEST PUSH1 0x2 SSTORE DUP5 DUP5 MSTORE DUP4 DUP3 MSTORE PUSH1 0x40 DUP5 KECCAK256 DUP2 DUP2 SLOAD ADD SWAP1 SSTORE PUSH1 0x40 MLOAD SWAP1 DUP2 MSTORE LOG3 JUMP JUMPDEST PUSH1 0x40 MLOAD PUSH3 0x461BCD PUSH1 0xE5 SHL DUP2 MSTORE PUSH1 0x20 PUSH1 0x4 DUP3 ADD MSTORE PUSH1 0x1F PUSH1 0x24 DUP3 ADD MSTORE PUSH32 0x45524332303A206D696E7420746F20746865207A65726F206164647265737300 PUSH1 0x44 DUP3 ADD MSTORE PUSH1 0x64 SWAP1 REVERT JUMPDEST PUSH1 0x0 NOT DUP2 EQ PUSH2 0x108B JUMPI PUSH1 0x1 ADD SWAP1 JUMP JUMPDEST SWAP2 SWAP1 DUP2 LT ISZERO PUSH2 0x172E JUMPI PUSH1 0x5 SHL ADD SWAP1 JUMP JUMPDEST PUSH4 0x4E487B71 PUSH1 0xE0 SHL PUSH1 0x0 MSTORE PUSH1 0x32 PUSH1 0x4 MSTORE PUSH1 0x24 PUSH1 0x0 REVERT JUMPDEST CALLDATALOAD PUSH1 0x1 PUSH1 0x1 PUSH1 0xA0 SHL SUB DUP2 AND DUP2 SUB PUSH2 0xFA9 JUMPI SWAP1 JUMP JUMPDEST PUSH1 0xFF PUSH1 0x5 SLOAD AND PUSH2 0x1764 JUMPI JUMP JUMPDEST PUSH1 0x40 MLOAD PUSH3 0x461BCD PUSH1 0xE5 SHL DUP2 MSTORE PUSH1 0x20 PUSH1 0x4 DUP3 ADD MSTORE PUSH1 0x10 PUSH1 0x24 DUP3 ADD MSTORE PUSH16 0x14185D5CD8589B194E881C185D5CD959 PUSH1 0x82 SHL PUSH1 0x44 DUP3 ADD MSTORE PUSH1 0x64 SWAP1 REVERT INVALID LOG2 PUSH5 0x6970667358 0x22 SLT KECCAK256 0xCB PUSH7 0x8B935D07AF81C PUSH2 0x5FCF PUSH19 0xA41D9919AACE9043C77F229B684ADDE892909E PUSH5 0x736F6C6343 STOP ADDMOD SGT STOP CALLER "},"methodIdentifiers":{"MAX_SUPPLY()":"32cb6b0c","addMinter(address)":"983b2d56","allowance(address,address)":"dd62ed3e","approve(address,uint256)":"095ea7b3","authorizedMinters(address)":"aa2fe91b","balanceOf(address)":"70a08231","batchRewardTokens(address[],uint256[],string)":"3cf1fb3c","burn(uint256)":"42966c68","burnFrom(address,uint256)":"79cc6790","decimals()":"313ce567","decreaseAllowance(address,uint256)":"a457c2d7","increaseAllowance(address,uint256)":"39509351","isMinter(address)":"aa271e1a","name()":"06fdde03","owner()":"8da5cb5b","pause()":"8456cb59","paused()":"5c975abb","redeemTokens(uint256,string)":"17dccbbc","remainingSupply()":"da0239a6","removeMinter(address)":"3092afd5","renounceOwnership()":"715018a6","rewardTokens(address,uint256,string)":"0ceb382e","symbol()":"95d89b41","totalSupply()":"18160ddd","transfer(address,uint256)":"a9059cbb","transferFrom(address,address,uint256)":"23b872dd","transferOwnership(address)":"f2fde38b","unpause()":"3f4ba83a"}}}}}