{"contracts/EDUCertificate.sol":{"EDUCertificate":{"abi":[{"inputs":[{"internalType":"string","name":"name","type":"string"},{"internalType":"string","name":"symbol","type":"string"},{"internalType":"address","name":"initialOwner","type":"address"}],"stateMutability":"nonpayable","type":"constructor"},{"anonymous":false,"inputs":[{"indexed":true,"internalType":"address","name":"owner","type":"address"},{"indexed":true,"internalType":"address","name":"approved","type":"address"},{"indexed":true,"internalType":"uint256","name":"tokenId","type":"uint256"}],"name":"Approval","type":"event"},{"anonymous":false,"inputs":[{"indexed":true,"internalType":"address","name":"owner","type":"address"},{"indexed":true,"internalType":"address","name":"operator","type":"address"},{"indexed":false,"internalType":"bool","name":"approved","type":"bool"}],"name":"ApprovalForAll","type":"event"},{"anonymous":false,"inputs":[{"indexed":false,"internalType":"uint256","name":"_fromTokenId","type":"uint256"},{"indexed":false,"internalType":"uint256","name":"_toTokenId","type":"uint256"}],"name":"BatchMetadataUpdate","type":"event"},{"anonymous":false,"inputs":[{"indexed":true,"internalType":"uint256","name":"tokenId","type":"uint256"},{"indexed":true,"internalType":"address","name":"student","type":"address"},{"indexed":false,"internalType":"string","name":"courseId","type":"string"},{"indexed":false,"internalType":"string","name":"courseName","type":"string"},{"indexed":false,"internalType":"uint256","name":"score","type":"uint256"}],"name":"CertificateIssued","type":"event"},{"anonymous":false,"inputs":[{"indexed":true,"internalType":"uint256","name":"tokenId","type":"uint256"},{"indexed":false,"internalType":"string","name":"reason","type":"string"}],"name":"CertificateRevoked","type":"event"},{"anonymous":false,"inputs":[{"indexed":true,"internalType":"address","name":"issuer","type":"address"}],"name":"IssuerAdded","type":"event"},{"anonymous":false,"inputs":[{"indexed":true,"internalType":"address","name":"issuer","type":"address"}],"name":"IssuerRemoved","type":"event"},{"anonymous":false,"inputs":[{"indexed":false,"internalType":"uint256","name":"_tokenId","type":"uint256"}],"name":"MetadataUpdate","type":"event"},{"anonymous":false,"inputs":[{"indexed":true,"internalType":"address","name":"previousOwner","type":"address"},{"indexed":true,"internalType":"address","name":"newOwner","type":"address"}],"name":"OwnershipTransferred","type":"event"},{"anonymous":false,"inputs":[{"indexed":false,"internalType":"address","name":"account","type":"address"}],"name":"Paused","type":"event"},{"anonymous":false,"inputs":[{"indexed":true,"internalType":"address","name":"from","type":"address"},{"indexed":true,"internalType":"address","name":"to","type":"address"},{"indexed":true,"internalType":"uint256","name":"tokenId","type":"uint256"}],"name":"Transfer","type":"event"},{"anonymous":false,"inputs":[{"indexed":false,"internalType":"address","name":"account","type":"address"}],"name":"Unpaused","type":"event"},{"inputs":[{"internalType":"address","name":"issuer","type":"address"}],"name":"addIssuer","outputs":[],"stateMutability":"nonpayable","type":"function"},{"inputs":[{"internalType":"address","name":"to","type":"address"},{"internalType":"uint256","name":"tokenId","type":"uint256"}],"name":"approve","outputs":[],"stateMutability":"nonpayable","type":"function"},{"inputs":[{"internalType":"address","name":"","type":"address"}],"name":"authorizedIssuers","outputs":[{"internalType":"bool","name":"","type":"bool"}],"stateMutability":"view","type":"function"},{"inputs":[{"internalType":"address","name":"owner","type":"address"}],"name":"balanceOf","outputs":[{"internalType":"uint256","name":"","type":"uint256"}],"stateMutability":"view","type":"function"},{"inputs":[{"internalType":"address[]","name":"students","type":"address[]"},{"internalType":"string[]","name":"courseIds","type":"string[]"},{"internalType":"string[]","name":"courseNames","type":"string[]"},{"internalType":"uint256[]","name":"scores","type":"uint256[]"},{"internalType":"string[]","name":"grades","type":"string[]"},{"internalType":"string[]","name":"instructorNames","type":"string[]"},{"internalType":"string[]","name":"tokenURIs","type":"string[]"}],"name":"batchIssueCertificates","outputs":[{"internalType":"uint256[]","name":"","type":"uint256[]"}],"stateMutability":"nonpayable","type":"function"},{"inputs":[{"internalType":"uint256","name":"tokenId","type":"uint256"}],"name":"burn","outputs":[],"stateMutability":"nonpayable","type":"function"},{"inputs":[{"internalType":"bytes32","name":"","type":"bytes32"}],"name":"certificateExists","outputs":[{"internalType":"bool","name":"","type":"bool"}],"stateMutability":"view","type":"function"},{"inputs":[{"internalType":"uint256","name":"","type":"uint256"}],"name":"certificates","outputs":[{"internalType":"string","name":"courseName","type":"string"},{"internalType":"string","name":"courseId","type":"string"},{"internalType":"address","name":"student","type":"address"},{"internalType":"uint256","name":"completionDate","type":"uint256"},{"internalType":"uint256","name":"score","type":"uint256"},{"internalType":"string","name":"grade","type":"string"},{"internalType":"string","name":"instructorName","type":"string"},{"internalType":"bool","name":"isValid","type":"bool"}],"stateMutability":"view","type":"function"},{"inputs":[{"internalType":"uint256","name":"tokenId","type":"uint256"}],"name":"getApproved","outputs":[{"internalType":"address","name":"","type":"address"}],"stateMutability":"view","type":"function"},{"inputs":[{"internalType":"address","name":"student","type":"address"},{"internalType":"string","name":"courseId","type":"string"}],"name":"getStudentCertificate","outputs":[{"internalType":"uint256","name":"","type":"uint256"}],"stateMutability":"view","type":"function"},{"inputs":[{"internalType":"address","name":"student","type":"address"}],"name":"getStudentCertificates","outputs":[{"internalType":"uint256[]","name":"","type":"uint256[]"}],"stateMutability":"view","type":"function"},{"inputs":[{"internalType":"address","name":"student","type":"address"},{"internalType":"string","name":"courseId","type":"string"}],"name":"hasCertificate","outputs":[{"internalType":"bool","name":"","type":"bool"}],"stateMutability":"view","type":"function"},{"inputs":[{"internalType":"address","name":"owner","type":"address"},{"internalType":"address","name":"operator","type":"address"}],"name":"isApprovedForAll","outputs":[{"internalType":"bool","name":"","type":"bool"}],"stateMutability":"view","type":"function"},{"inputs":[{"internalType":"address","name":"account","type":"address"}],"name":"isIssuer","outputs":[{"internalType":"bool","name":"","type":"bool"}],"stateMutability":"view","type":"function"},{"inputs":[{"internalType":"address","name":"student","type":"address"},{"internalType":"string","name":"courseId","type":"string"},{"internalType":"string","name":"courseName","type":"string"},{"internalType":"uint256","name":"score","type":"uint256"},{"internalType":"string","name":"grade","type":"string"},{"internalType":"string","name":"instructorName","type":"string"},{"internalType":"string","name":"metadataURI","type":"string"}],"name":"issueCertificate","outputs":[{"internalType":"uint256","name":"","type":"uint256"}],"stateMutability":"nonpayable","type":"function"},{"inputs":[],"name":"name","outputs":[{"internalType":"string","name":"","type":"string"}],"stateMutability":"view","type":"function"},{"inputs":[],"name":"owner","outputs":[{"internalType":"address","name":"","type":"address"}],"stateMutability":"view","type":"function"},{"inputs":[{"internalType":"uint256","name":"tokenId","type":"uint256"}],"name":"ownerOf","outputs":[{"internalType":"address","name":"","type":"address"}],"stateMutability":"view","type":"function"},{"inputs":[],"name":"pause","outputs":[],"stateMutability":"nonpayable","type":"function"},{"inputs":[],"name":"paused","outputs":[{"internalType":"bool","name":"","type":"bool"}],"stateMutability":"view","type":"function"},{"inputs":[{"internalType":"address","name":"issuer","type":"address"}],"name":"removeIssuer","outputs":[],"stateMutability":"nonpayable","type":"function"},{"inputs":[],"name":"renounceOwnership","outputs":[],"stateMutability":"nonpayable","type":"function"},{"inputs":[{"internalType":"uint256","name":"tokenId","type":"uint256"},{"internalType":"string","name":"reason","type":"string"}],"name":"revokeCertificate","outputs":[],"stateMutability":"nonpayable","type":"function"},{"inputs":[{"internalType":"address","name":"from","type":"address"},{"internalType":"address","name":"to","type":"address"},{"internalType":"uint256","name":"tokenId","type":"uint256"}],"name":"safeTransferFrom","outputs":[],"stateMutability":"nonpayable","type":"function"},{"inputs":[{"internalType":"address","name":"from","type":"address"},{"internalType":"address","name":"to","type":"address"},{"internalType":"uint256","name":"tokenId","type":"uint256"},{"internalType":"bytes","name":"data","type":"bytes"}],"name":"safeTransferFrom","outputs":[],"stateMutability":"nonpayable","type":"function"},{"inputs":[{"internalType":"address","name":"operator","type":"address"},{"internalType":"bool","name":"approved","type":"bool"}],"name":"setApprovalForAll","outputs":[],"stateMutability":"nonpayable","type":"function"},{"inputs":[{"internalType":"address","name":"","type":"address"},{"internalType":"string","name":"","type":"string"}],"name":"studentCertificates","outputs":[{"internalType":"uint256","name":"","type":"uint256"}],"stateMutability":"view","type":"function"},{"inputs":[{"internalType":"bytes4","name":"interfaceId","type":"bytes4"}],"name":"supportsInterface","outputs":[{"internalType":"bool","name":"","type":"bool"}],"stateMutability":"view","type":"function"},{"inputs":[],"name":"symbol","outputs":[{"internalType":"string","name":"","type":"string"}],"stateMutability":"view","type":"function"},{"inputs":[{"internalType":"uint256","name":"tokenId","type":"uint256"}],"name":"tokenURI","outputs":[{"internalType":"string","name":"","type":"string"}],"stateMutability":"view","type":"function"},{"inputs":[],"name":"totalSupply","outputs":[{"internalType":"uint256","name":"","type":"uint256"}],"stateMutability":"view","type":"function"},{"inputs":[{"internalType":"address","name":"from","type":"address"},{"internalType":"address","name":"to","type":"address"},{"internalType":"uint256","name":"tokenId","type":"uint256"}],"name":"transferFrom","outputs":[],"stateMutability":"nonpayable","type":"function"},{"inputs":[{"internalType":"address","name":"newOwner","type":"address"}],"name":"transferOwnership","outputs":[],"stateMutability":"nonpayable","type":"function"},{"inputs":[],"name":"unpause","outputs":[],"stateMutability":"nonpayable","type":"function"},{"inputs":[{"internalType":"uint256","name":"tokenId","type":"uint256"}],"name":"verifyCertificate","outputs":[{"internalType":"bool","name":"isValid","type":"bool"},{"internalType":"address","name":"student","type":"address"},{"internalType":"string","name":"courseId","type":"string"},{"internalType":"string","name":"courseName","type":"string"},{"internalType":"uint256","name":"completionDate","type":"uint256"},{"internalType":"uint256","name":"score","type":"uint256"},{"internalType":"string","name":"grade","type":"string"}],"stateMutability":"view","type":"function"}],"evm":{"bytecode":{"linkReferences":{},"object":"608060405234620003965762003333803803806200001d816200039b565b9283398101606082820312620003965781516001600160401b03908181116200039657826200004e918501620003c1565b916020908185015183811162000396576040916200006e918701620003c1565b9401516001600160a01b038116929091908383036200039657845181811162000380576000968754916001978884811c9416801562000375575b8685101462000361578190601f948581116200030e575b508690858311600114620002aa578b926200029e575b5050600019600383901b1c191690881b1788555b80519283116200028a5786548781811c911680156200027f575b858210146200026b5782811162000223575b5083918311600114620001bc576009939291889183620001b0575b5050600019600383901b1c191690861b1785555b6200016560ff199384600754166007556200015f3362000433565b62000433565b838652528260408520918254161790557f05e7c881d716bee8cb7ed92293133ba156704252439e5c502c277448f04e20c26040519380a260085401600855612ea39081620004908239f35b01519050388062000130565b868852838820601f1984169493889390928a5b8781106200020b57508360099710620001f1575b505050811b01855562000144565b015160001960f88460031b161c19169055388080620001e3565b8282015184558a9590930192918601918601620001cf565b8789528489208380860160051c82019287871062000261575b0160051c019088905b8281106200025557505062000115565b8a815501889062000245565b925081926200023c565b634e487b7160e01b89526022600452602489fd5b90607f169062000103565b634e487b7160e01b88526041600452602488fd5b015190503880620000d5565b8b8052878c208b94509190601f1984168d5b8a828210620002f75750508411620002dd575b505050811b018855620000e9565b015160001960f88460031b161c19169055388080620002cf565b8385015186558e97909501949384019301620002bc565b9091508a8052868b208580850160051c82019289861062000357575b918c91869594930160051c01915b82811062000348575050620000bf565b8d81558594508c910162000338565b925081926200032a565b634e487b7160e01b8a52602260045260248afd5b93607f1693620000a8565b634e487b7160e01b600052604160045260246000fd5b600080fd5b6040519190601f01601f191682016001600160401b038111838210176200038057604052565b919080601f84011215620003965782516001600160401b0381116200038057602090620003f7601f8201601f191683016200039b565b92818452828287010111620003965760005b8181106200041f57508260009394955001015290565b858101830151848201840152820162000409565b60078054610100600160a81b03198116600884811b610100600160a81b0316919091179092556001600160a01b0392831692911c167f8be0079c531659141344cd1fd0a4f28419497f9722a3daafe3b4186f6b6457e0600080a356fe61026060409080825260048036101561001757600080fd5b60003560e01c91826301ffc9a71461178b5750816306fdde03146116e3578163081812fc146116c5578163095ea7b31461154f5781631692a9421461142757816318160ddd146113e657816320694db0146112b457816323b872dd146112905781633c433ebe146111ff5781633f4ba83a1461116a57816342842e0e1461113657816342966c6814610fad57816347bc709314610edd5781635c975abb14610eb9578163603d0e6114610db25781636352211e14610d83578163663b3e2214610cae57816370a0823114610c82578163715018a614610c2157816377ec4eae14610be05781638456cb5914610b86578163877b9a6714610b615781638da5cb5b14610b3457816395d89b4114610a52578163a217160614610799578163a22cb465146106c3578163b1466d1d14610580578163b440983e14610552578163b88d4fde146104cc578163bbcc20f114610444578163c87b56dd146103d1578163e985e9c51461037f578163ebc63bc0146102c0578163f2fde38b146101e7575063f731fa0f146101a557600080fd5b346101e25760203660031901126101e2576020906001600160a01b036101c9611857565b166000526009825260ff81600020541690519015158152f35b600080fd5b9050346101e25760203660031901126101e257610202611857565b61020a611b33565b6001600160a01b0381811693909290841561026e57505060078054610100600160a81b03198116600893841b610100600160a81b031617909155901c167f8be0079c531659141344cd1fd0a4f28419497f9722a3daafe3b4186f6b6457e0600080a3005b906020608492519162461bcd60e51b8352820152602660248201527f4f776e61626c653a206e6577206f776e657220697320746865207a65726f206160448201526564647265737360d01b6064820152fd5b82346101e25760203660031901126101e2576102da611857565b6102eb6102e682611b8e565b612cf8565b906000600191600854925b83811061030e5785518061030a8782611aa6565b0390f35b6000818152600260205260409020546001600160a01b0316151580610362575b610341575b61033c90612d2a565b6102f6565b9161035a818461035461033c9489612db6565b52612d2a565b929050610333565b5061036c81611c51565b6001600160a01b0383811691161461032e565b82346101e257806003193601126101e25760209061039b611857565b6103a361186d565b9060018060a01b0380911660005260058452826000209116600052825260ff81600020541690519015158152f35b82346101e25760203660031901126101e25761030a913561040f61040a82600052600260205260018060a01b0360406000205416151590565b611c05565b6000526006602052610423816000206119d0565b906000815161043181611994565b5251918291602083526020830190611832565b82346101e257806003193601126101e25761045d611857565b91602435906001600160401b0382116101e257366023830112156101e25760209361049585928460246104bb96369301359101611afc565b9060018060a01b0316600052600b8252836000208285519483868095519384920161180f565b820190815203019020549051908152f35b346101e25760803660031901126101e2576104e5611857565b906104ee61186d565b91604435606435936001600160401b0385116101e257366023860112156101e25761052861054b9486602461055098369301359101611afc565b9261053b6105368433611d8e565b611cb5565b610546838383611e56565b612104565b611d6a565b005b82346101e25760203660031901126101e25760209135600052600c825260ff81600020541690519015158152f35b82346101e257806003193601126101e2578135906024356001600160401b0381116101e2576105b290369085016118b8565b91909333600052602090600982526105d060ff84600020541661218f565b6000858152600260205260409020546105f3906001600160a01b03161515612dca565b84600052600a825260ff6007846000200154161561066e5750828085967f65032d3cc955c731f4c2a4178f663dbcc6c08e5163bad5a3149773f3894548d396600052600a84526007856000200160ff1981541690558451958487958652850152848401376000828201840152601f01601f19168101030190a2005b915162461bcd60e51b815291820152602b60248201527f45445543657274696669636174653a20636572746966696361746520616c726560448201526a18591e481c995d9bdad95960aa1b6064820152608490fd5b82346101e257806003193601126101e2576106dc611857565b90602435801515928382036101e2576001600160a01b031693338514610756575061072a903360005260056020528260002085600052602052826000209060ff801983541691151516179055565b519081527f17307eab39ab6107e8899845ad3d59bd9653f200f220920489ca2b5937696c3160203392a3005b606490602084519162461bcd60e51b8352820152601960248201527f4552433732313a20617070726f766520746f2063616c6c6572000000000000006044820152fd5b82346101e25760e03660031901126101e2576001600160401b039180358381116101e2576107ca9036908301611a76565b60c052926024358181116101e2576107e59036908401611a76565b61014052610200526044358181116101e2576108049036908401611a76565b61010052610180526064358181116101e2576108239036908401611a76565b60805260e0526084358181116101e2576108409036908401611a76565b60a0526102205260a4358181116101e25761085e9036908401611a76565b6101c0526101a05260c4359081116101e25761087d9036908301611a76565b610120526101e05233600052600960205261089e60ff83600020541661218f565b6108ae6101405160c05114612c86565b6108be6101005160c05114612c86565b6108cd60805160c05114612c86565b6108dc60a05160c05114612c86565b6108ec6101c05160c05114612c86565b6108fc6101205160c05114612c86565b60c05115610a10575061091060c051612cf8565b6101605260005b60c05180821015610a00578161092d9185612d4f565b35906001600160a01b03821682036101e2576109ee6109fb926109c661095a846101405161020051612d75565b6109d86109e8610974886101009695965161018051612d75565b9190936109e08a6109d861098d8260805160e051612d4f565b359761099f8360a05161022051612d75565b9890916109d06109b6866101c0516101a051612d75565b9d9096610120516101e051612d75565b9e90983691611afc565b983691611afc565b973691611afc565b963691611afc565b9561220d565b6103548261016051612db6565b610917565b82518061030a6101605182611aa6565b6020606492519162461bcd60e51b8352820152601c60248201527f45445543657274696669636174653a20656d70747920617272617973000000006044820152fd5b82346101e25760003660031901126101e25780516000916001805490610a7782611928565b80855291818116908115610b0c5750600114610ab1575b5050610a9f8261030a9403836119af565b51918291602083526020830190611832565b600081815294507fb10e2d527612073b26eecdfd717e6a320cf44b4afac2b0732d9fcbe2b7fa0cf65b828610610af45750505091810160200191610a9f82610a8e565b80546020878701810191909152909501948101610ada565b61030a96508592506020915092610a9f9360ff191682840152151560051b8201019450610a8e565b82346101e25760003660031901126101e257600754905160089190911c6001600160a01b03168152602090f35b82346101e25760203660031901126101e2576020906001600160a01b036101c9611857565b82346101e25760003660031901126101e25760207f62e78cea01bee320cd4e420270b5ea74000d11b0c9f74754ebdbfc544b05a25891610bc4611b33565b610bcc612e29565b600160ff19600754161760075551338152a1005b82346101e25760209081610bf3366118e5565b929160018060a01b0316600052600b8252836000208385519485938437820190815203019020549051908152f35b346101e25760003660031901126101e257610c3a611b33565b60078054610100600160a81b0319811690915560009060081c6001600160a01b03167f8be0079c531659141344cd1fd0a4f28419497f9722a3daafe3b4186f6b6457e08280a3005b82346101e25760203660031901126101e257602090610ca7610ca2611857565b611b8e565b9051908152f35b82346101e25760203660031901126101e25781610d409235600052600a602052610d7782600020610d69610ce1826119d0565b94610cee600184016119d0565b9460018060a01b036002850154169060038501549085015490610d13600587016119d0565b92610d4e60ff6007610d2760068b016119d0565b990154169986519c8d9c8d610100908181520190611832565b8c810360208e015290611832565b948a01526060890152608088015286820360a0880152611832565b9084820360c0860152611832565b90151560e08301520390f35b82346101e25760203660031901126101e257610da160209235611c51565b90516001600160a01b039091168152f35b82346101e25760e03660031901126101e257610dcc611857565b6001600160401b03906024358281116101e257610dec90369086016118b8565b94906044358481116101e257610e0590369084016118b8565b93906084358681116101e257610e1e90369086016118b8565b91909660a4358181116101e257610e3890369088016118b8565b610240529460c4359182116101e257610ea2610ca799610e9a610eaf95610e9260209f958f9796610e8b610e7460ff9f610e9a9a3691016118b8565b9f909a33600052602060099052600020541661218f565b3691611afc565b9b3691611afc565b953691611afc565b9536906102405190611afc565b946064359261220d565b82346101e25760003660031901126101e25760209060ff6007541690519015158152f35b82346101e25760203660031901126101e257610ef7611857565b610eff611b33565b6001600160a01b0316600081815260096020528290205490929060ff1615610f5d575081600052600960205260002060ff1981541690557faf66545c919a3be306ee446d8f42a9558b5b022620df880517bc9593ec0f2d52600080a2005b6020608492519162461bcd60e51b8352820152602560248201527f45445543657274696669636174653a20697373756572206e6f7420617574686f6044820152641c9a5e995960da1b6064820152fd5b82346101e257602091826003193601126101e257803590610fd16105368333611d8e565b610fda82611c51565b610fe2612e29565b6001600160a01b0390811615801561112e575b156110d157829160009161100884611c51565b918484528752858320916001600160601b0360a01b9283815416905516908183526003875285832083198154019055838352600287528583209081541690557fddf252ad1be2c89b69c2b068fc378daa952ba7f163c4a11628f55a4df523b3ef8280a46006835261107c8260002054611928565b61108257005b600052600682526000206110968154611928565b8061109d57005b600092601f82116001146110b057505055005b82845283209183916110cd90601f0160051c8401600185016121f6565b5555005b835162461bcd60e51b8152808301869052603160248201527f45445543657274696669636174653a2063657274696669636174657320617265604482015270206e6f6e2d7472616e7366657261626c6560781b6064820152608490fd5b506001610ff5565b82346101e25761054b6105509161114c36611883565b9192519261115984611994565b6000845261053b6105368433611d8e565b9050346101e25760003660031901126101e257611185611b33565b6007549060ff8216156111c5577f5db9ee0a495bf2e6ff9c91a7834c1ba4fdd244a5e8aa4e537bd38aeae4b073aa6020848460ff191660075551338152a1005b606490602084519162461bcd60e51b8352820152601460248201527314185d5cd8589b194e881b9bdd081c185d5cd95960621b6044820152fd5b82346101e25760209081611212366118e5565b929160018060a01b0316600052600b82528360002083855194859384378201908152030190205490811515918261126f575b82611253575b50519015158152f35b909150600052600a825260ff600782600020015416908361124a565b6000818152600260205260409020546001600160a01b031615159250611244565b346101e2576105506112a136611883565b916112af6105368433611d8e565b611e56565b82346101e25760203660031901126101e2576112ce611857565b6112d6611b33565b6001600160a01b031691821561138e5782600052600960205260ff82600020541661133a5750816000526009602052600020600160ff198254161790557f05e7c881d716bee8cb7ed92293133ba156704252439e5c502c277448f04e20c2600080a2005b6020608492519162461bcd60e51b8352820152602960248201527f45445543657274696669636174653a2069737375657220616c726561647920616044820152681d5d1a1bdc9a5e995960ba1b6064820152fd5b6020608492519162461bcd60e51b8352820152602d60248201527f45445543657274696669636174653a206973737565722063616e6e6f7420626560448201526c207a65726f206164647265737360981b6064820152fd5b82346101e25760003660031901126101e257600854600019810191908211611412576020925051908152f35b601183634e487b7160e01b6000525260246000fd5b82346101e25760203660031901126101e257813560008181526002602052604090205461145e906001600160a01b03161515612dca565b600052600a60205261030a816000209282519261147a84611962565b611483856119d0565b8452611491600186016119d0565b946020850195865261153760018060a01b0393611529856002850154169785810198895260e060038601549360608301948552860154976080830198895260ff60076114df60058a016119d0565b9860a08601998a526114f3600682016119d0565b60c087015201541615159a8b8385015251169a5191519351975195519680519b8c9b8c5260208c01528a015260e0890190611832565b908782036060890152611832565b92608086015260a085015283820360c0850152611832565b9050346101e257816003193601126101e257611569611857565b6024359290916001600160a01b039190828061158487611c51565b1694169380851461167857803314908115611655575b50156115ed5784600052602052600020826001600160601b0360a01b8254161790556115c583611c51565b167f8c5be1e5ebec7d5bd14f71427d1e84f3dd0314c0f7b2291e5b200ac8c7c3b925600080a4005b6020608492519162461bcd60e51b8352820152603d60248201527f4552433732313a20617070726f76652063616c6c6572206973206e6f7420746f60448201527f6b656e206f776e6572206f7220617070726f76656420666f7220616c6c0000006064820152fd5b90506000526005602052816000203360005260205260ff8260002054163861159a565b506020608492519162461bcd60e51b8352820152602160248201527f4552433732313a20617070726f76616c20746f2063757272656e74206f776e656044820152603960f91b6064820152fd5b82346101e25760203660031901126101e257610da160209235611c77565b82346101e25760003660031901126101e257805160009160005461170681611928565b80845290600190818116908115610b0c5750600114611730575050610a9f8261030a9403836119af565b600080805294507f290decd9548b62a8d60345a988386fc84ba6bc95484008f6362f93160ef3e5635b8286106117735750505091810160200191610a9f82610a8e565b80546020878701810191909152909501948101611759565b90346101e25760203660031901126101e257359063ffffffff60e01b82168092036101e257602091632483248360e11b81149081156117cc575b5015158152f35b6380ac58cd60e01b8114915081156117fe575b81156117ed575b50836117c5565b6301ffc9a760e01b149050836117e6565b635b5e139f60e01b811491506117df565b60005b8381106118225750506000910152565b8181015183820152602001611812565b9060209161184b8151809281855285808601910161180f565b601f01601f1916010190565b600435906001600160a01b03821682036101e257565b602435906001600160a01b03821682036101e257565b60609060031901126101e2576001600160a01b039060043582811681036101e2579160243590811681036101e2579060443590565b9181601f840112156101e2578235916001600160401b0383116101e257602083818601950101116101e257565b9060406003198301126101e2576004356001600160a01b03811681036101e25791602435906001600160401b0382116101e257611924916004016118b8565b9091565b90600182811c92168015611958575b602083101461194257565b634e487b7160e01b600052602260045260246000fd5b91607f1691611937565b61010081019081106001600160401b0382111761197e57604052565b634e487b7160e01b600052604160045260246000fd5b602081019081106001600160401b0382111761197e57604052565b90601f801991011681019081106001600160401b0382111761197e57604052565b90604051918260008254926119e484611928565b908184526001948581169081600014611a535750600114611a10575b5050611a0e925003836119af565b565b9093915060005260209081600020936000915b818310611a3b575050611a0e93508201013880611a00565b85548884018501529485019487945091830191611a23565b915050611a0e94506020925060ff191682840152151560051b8201013880611a00565b9181601f840112156101e2578235916001600160401b0383116101e2576020808501948460051b0101116101e257565b6020908160408183019282815285518094520193019160005b828110611acd575050505090565b835185529381019392810192600101611abf565b6001600160401b03811161197e57601f01601f191660200190565b929192611b0882611ae1565b91611b1660405193846119af565b8294818452818301116101e2578281602093846000960137010152565b60075460081c6001600160a01b03163303611b4a57565b606460405162461bcd60e51b815260206004820152602060248201527f4f776e61626c653a2063616c6c6572206973206e6f7420746865206f776e65726044820152fd5b6001600160a01b03168015611bae57600052600360205260406000205490565b60405162461bcd60e51b815260206004820152602960248201527f4552433732313a2061646472657373207a65726f206973206e6f7420612076616044820152683634b21037bbb732b960b91b6064820152608490fd5b15611c0c57565b60405162461bcd60e51b815260206004820152601860248201527f4552433732313a20696e76616c696420746f6b656e20494400000000000000006044820152606490fd5b6000908152600260205260409020546001600160a01b0316611c74811515611c05565b90565b600081815260026020526040902054611c9a906001600160a01b03161515611c05565b6000908152600460205260409020546001600160a01b031690565b15611cbc57565b60405162461bcd60e51b815260206004820152602d60248201527f4552433732313a2063616c6c6572206973206e6f7420746f6b656e206f776e6560448201526c1c881bdc88185c1c1c9bdd9959609a1b6064820152608490fd5b60809060208152603260208201527f4552433732313a207472616e7366657220746f206e6f6e20455243373231526560408201527131b2b4bb32b91034b6b83632b6b2b73a32b960711b60608201520190565b15611d7157565b60405162461bcd60e51b815280611d8a60048201611d17565b0390fd5b906001600160a01b038080611da284611c51565b16931691838314938415611dd5575b508315611dbf575b50505090565b611dcb91929350611c77565b1614388080611db9565b909350600052600560205260406000208260005260205260ff604060002054169238611db1565b15611e0357565b60405162461bcd60e51b815260206004820152602560248201527f4552433732313a207472616e736665722066726f6d20696e636f72726563742060448201526437bbb732b960d91b6064820152608490fd5b90611e7e91611e6484611c51565b6001600160a01b0393918416928492909183168414611dfc565b16918215611f9357611e8e612e29565b81158015611f8b575b15611f2c5781611eb191611eaa86611c51565b1614611dfc565b7fddf252ad1be2c89b69c2b068fc378daa952ba7f163c4a11628f55a4df523b3ef60008481526004602052604081206001600160601b0360a01b9081815416905583825260036020526040822060001981540190558482526040822060018154019055858252600260205284604083209182541617905580a4565b60405162461bcd60e51b815260206004820152603160248201527f45445543657274696669636174653a2063657274696669636174657320617265604482015270206e6f6e2d7472616e7366657261626c6560781b6064820152608490fd5b506000611e97565b60405162461bcd60e51b8152602060048201526024808201527f4552433732313a207472616e7366657220746f20746865207a65726f206164646044820152637265737360e01b6064820152608490fd5b9192600092909190803b156120fa57612032946040518092630a85bd0160e11b9485835233600484015287602484015260448301526080606483015281878160209a8b966084830190611832565b03926001600160a01b03165af18491816120b6575b506120a5575050503d60001461209d573d61206181611ae1565b9061206f60405192836119af565b81528091833d92013e5b8051918261209a5760405162461bcd60e51b815280611d8a60048201611d17565b01fd5b506060612079565b6001600160e01b0319161492509050565b9091508581813d83116120f3575b6120ce81836119af565b810103126120ef57516001600160e01b0319811681036120ef579038612047565b8480fd5b503d6120c4565b5050915050600190565b9293600093909291803b156121845794849161215e9660405180948193630a85bd0160e11b9788845233600485015260018060a01b0380921660248501526044840152608060648401528260209b8c976084830190611832565b0393165af18491816120b657506120a5575050503d60001461209d573d61206181611ae1565b505050915050600190565b1561219657565b60405162461bcd60e51b815260206004820152603260248201527f45445543657274696669636174653a2063616c6c6572206973206e6f7420616e6044820152711030baba3437b934bd32b21034b9b9bab2b960711b6064820152608490fd5b818110612201575050565b600081556001016121f6565b9294909291906001600160a01b03831615612be057835115612b8a57815115612b325760405160208101906001600160601b03198560601b16825261227060348288516122608184840160208d0161180f565b81010360148101845201826119af565b5190209081600052600c60205260ff60406000205416612ada57600854976001890160085561236461054b6040516122a781611994565b60008082528c8152600260205260409020546122cf906001600160a01b031615155b15612c3a565b6122d7612e29565b60008c8152600260205260409020546122fa906001600160a01b031615156122c9565b6001600160a01b0388166000818152600360209081526040808320805460010190558f83526002909152812080546001600160a01b031916831790558d91907fddf252ad1be2c89b69c2b068fc378daa952ba7f163c4a11628f55a4df523b3ef8180a48b88611fe4565b6000898152600260205260409020546001600160a01b031615612a7e578860005260066020526040600020908051906001600160401b03821161197e5781906123ad8454611928565b601f8111612a4c575b50602090601f83116001146129e0576000926129d5575b50508160011b916000199060031b1c19161790555b7ff8e1a15aba9398e019f0b49df1a4fde98ee17ae345cb5f6b5e2c27f5033e8ce760206040518a8152a16040519561241987611962565b83875285602088015260018060a01b038516604088015242606088015287608088015260a087015260c0860152600160e086015286600052600a602052604060002085518051906001600160401b03821161197e57819061247a8454611928565b601f81116129a3575b50602090601f83116001146129375760009261292c575b50508160011b916000199060031b1c19161781555b60208601518051906001600160401b03821161197e5781906124d46001850154611928565b601f81116128f7575b50602090601f83116001146128855760009261287a575b50508160011b916000199060031b1c19161760018201555b6002810160018060a01b036040880151166001600160601b0360a01b825416179055606086015160038201556080860151600482015560a08601518051906001600160401b03821161197e5781906125676005850154611928565b601f8111612845575b50602090601f83116001146127d3576000926127c8575b50508160011b916000199060031b1c19161760058201555b60c08601519586516001600160401b03811161197e5789976125c46006850154611928565b601f8111612788575b50602090601f83116001146126e15793600760e07f69c2ef69279bd95361b92e81471ac7e6062d893b90c8da20820cfd23255b96aa9a9895856126b09b999661264b966126be9a6000926126d6575b50508160011b916000199060031b1c19161760068501555b0151151591019060ff801983541691151516179055565b60018060a01b038416600052600b602052876040600020602060405180928261267a8b8481519384920161180f565b82019081520301902055600052600c6020526040600020600160ff19825416179055604051948594606086526060860190611832565b908482036020860152611832565b60408301969096526001600160a01b0316940390a390565b01519050388061261c565b906006850160005260206000209160005b601f198516811061276d575060e07f69c2ef69279bd95361b92e81471ac7e6062d893b90c8da20820cfd23255b96aa9a989560018661264b966126be9a966007966126b09f9d9a601f19811610612754575b505050811b016006850155612634565b015160001960f88460031b161c19169055388080612744565b8183015184558d9b50600190930192602092830192016126f2565b6127b890600686016000526020600020601f850160051c810191602086106127be575b601f0160051c01906121f6565b386125cd565b90915081906127ab565b015190503880612587565b9250600584016000526020600020906000935b601f198416851061282a576001945083601f19811610612811575b505050811b01600582015561259f565b015160001960f88460031b161c19169055388080612801565b818101518355602094850194600190930192909101906127e6565b61287490600586016000526020600020601f850160051c810191602086106127be57601f0160051c01906121f6565b38612570565b0151905038806124f4565b9250600184016000526020600020906000935b601f19841685106128dc576001945083601f198116106128c3575b505050811b01600182015561250c565b015160001960f88460031b161c191690553880806128b3565b81810151835560209485019460019093019290910190612898565b61292690600186016000526020600020601f850160051c810191602086106127be57601f0160051c01906121f6565b386124dd565b01519050388061249a565b9250836000526020600020906000935b601f1984168510612988576001945083601f1981161061296f575b505050811b0181556124af565b015160001960f88460031b161c19169055388080612962565b81810151835560209485019460019093019290910190612947565b6129cf90856000526020600020601f850160051c810191602086106127be57601f0160051c01906121f6565b38612483565b0151905038806123cd565b9250836000526020600020906000935b601f1984168510612a31576001945083601f19811610612a18575b505050811b0190556123e2565b015160001960f88460031b161c19169055388080612a0b565b818101518355602094850194600190930192909101906129f0565b612a7890856000526020600020601f850160051c810191602086106127be57601f0160051c01906121f6565b386123b6565b60405162461bcd60e51b815260206004820152602e60248201527f45524337323155524953746f726167653a2055524920736574206f66206e6f6e60448201526d32bc34b9ba32b73a103a37b5b2b760911b6064820152608490fd5b60405162461bcd60e51b815260206004820152602a60248201527f45445543657274696669636174653a20636572746966696361746520616c72656044820152696164792065786973747360b01b6064820152608490fd5b60405162461bcd60e51b815260206004820152602a60248201527f45445543657274696669636174653a20636f757273654e616d652063616e6e6f6044820152697420626520656d70747960b01b6064820152608490fd5b60405162461bcd60e51b815260206004820152602860248201527f45445543657274696669636174653a20636f7572736549642063616e6e6f7420604482015267626520656d70747960c01b6064820152608490fd5b60405162461bcd60e51b815260206004820152602c60248201527f45445543657274696669636174653a2063616e6e6f7420697373756520746f2060448201526b7a65726f206164647265737360a01b6064820152608490fd5b15612c4157565b60405162461bcd60e51b815260206004820152601c60248201527f4552433732313a20746f6b656e20616c7265616479206d696e746564000000006044820152606490fd5b15612c8d57565b60405162461bcd60e51b815260206004820152602660248201527f45445543657274696669636174653a20617272617973206c656e677468206d696044820152650e6dac2e8c6d60d31b6064820152608490fd5b6001600160401b03811161197e5760051b60200190565b90612d0282612ce1565b612d0f60405191826119af565b8281528092612d20601f1991612ce1565b0190602036910137565b6000198114612d395760010190565b634e487b7160e01b600052601160045260246000fd5b9190811015612d5f5760051b0190565b634e487b7160e01b600052603260045260246000fd5b9190811015612d5f5760051b81013590601e19813603018212156101e25701908135916001600160401b0383116101e25760200182360381136101e2579190565b8051821015612d5f5760209160051b010190565b15612dd157565b60405162461bcd60e51b815260206004820152602a60248201527f45445543657274696669636174653a20636572746966696361746520646f6573604482015269081b9bdd08195e1a5cdd60b21b6064820152608490fd5b60ff60075416612e3557565b60405162461bcd60e51b815260206004820152601060248201526f14185d5cd8589b194e881c185d5cd95960821b6044820152606490fdfea26469706673582212208e8a6f8a6919c6bbd16769b6cc010c471d96315cf61b2b385ed52cdc7ce8d50a64736f6c63430008130033","opcodes":"PUSH1 0x80 PUSH1 0x40 MSTORE CALLVALUE PUSH3 0x396 JUMPI PUSH3 0x3333 DUP1 CODESIZE SUB DUP1 PUSH3 0x1D DUP2 PUSH3 0x39B JUMP JUMPDEST SWAP3 DUP4 CODECOPY DUP2 ADD PUSH1 0x60 DUP3 DUP3 SUB SLT PUSH3 0x396 JUMPI DUP2 MLOAD PUSH1 0x1 PUSH1 0x1 PUSH1 0x40 SHL SUB SWAP1 DUP2 DUP2 GT PUSH3 0x396 JUMPI DUP3 PUSH3 0x4E SWAP2 DUP6 ADD PUSH3 0x3C1 JUMP JUMPDEST SWAP2 PUSH1 0x20 SWAP1 DUP2 DUP6 ADD MLOAD DUP4 DUP2 GT PUSH3 0x396 JUMPI PUSH1 0x40 SWAP2 PUSH3 0x6E SWAP2 DUP8 ADD PUSH3 0x3C1 JUMP JUMPDEST SWAP5 ADD MLOAD PUSH1 0x1 PUSH1 0x1 PUSH1 0xA0 SHL SUB DUP2 AND SWAP3 SWAP1 SWAP2 SWAP1 DUP4 DUP4 SUB PUSH3 0x396 JUMPI DUP5 MLOAD DUP2 DUP2 GT PUSH3 0x380 JUMPI PUSH1 0x0 SWAP7 DUP8 SLOAD SWAP2 PUSH1 0x1 SWAP8 DUP9 DUP5 DUP2 SHR SWAP5 AND DUP1 ISZERO PUSH3 0x375 JUMPI JUMPDEST DUP7 DUP6 LT EQ PUSH3 0x361 JUMPI DUP2 SWAP1 PUSH1 0x1F SWAP5 DUP6 DUP2 GT PUSH3 0x30E JUMPI JUMPDEST POP DUP7 SWAP1 DUP6 DUP4 GT PUSH1 0x1 EQ PUSH3 0x2AA JUMPI DUP12 SWAP3 PUSH3 0x29E JUMPI JUMPDEST POP POP PUSH1 0x0 NOT PUSH1 0x3 DUP4 SWAP1 SHL SHR NOT AND SWAP1 DUP9 SHL OR DUP9 SSTORE JUMPDEST DUP1 MLOAD SWAP3 DUP4 GT PUSH3 0x28A JUMPI DUP7 SLOAD DUP8 DUP2 DUP2 SHR SWAP2 AND DUP1 ISZERO PUSH3 0x27F JUMPI JUMPDEST DUP6 DUP3 LT EQ PUSH3 0x26B JUMPI DUP3 DUP2 GT PUSH3 0x223 JUMPI JUMPDEST POP DUP4 SWAP2 DUP4 GT PUSH1 0x1 EQ PUSH3 0x1BC JUMPI PUSH1 0x9 SWAP4 SWAP3 SWAP2 DUP9 SWAP2 DUP4 PUSH3 0x1B0 JUMPI JUMPDEST POP POP PUSH1 0x0 NOT PUSH1 0x3 DUP4 SWAP1 SHL SHR NOT AND SWAP1 DUP7 SHL OR DUP6 SSTORE JUMPDEST PUSH3 0x165 PUSH1 0xFF NOT SWAP4 DUP5 PUSH1 0x7 SLOAD AND PUSH1 0x7 SSTORE PUSH3 0x15F CALLER PUSH3 0x433 JUMP JUMPDEST PUSH3 0x433 JUMP JUMPDEST DUP4 DUP7 MSTORE MSTORE DUP3 PUSH1 0x40 DUP6 KECCAK256 SWAP2 DUP3 SLOAD AND OR SWAP1 SSTORE PUSH32 0x5E7C881D716BEE8CB7ED92293133BA156704252439E5C502C277448F04E20C2 PUSH1 0x40 MLOAD SWAP4 DUP1 LOG2 PUSH1 0x8 SLOAD ADD PUSH1 0x8 SSTORE PUSH2 0x2EA3 SWAP1 DUP2 PUSH3 0x490 DUP3 CODECOPY RETURN JUMPDEST ADD MLOAD SWAP1 POP CODESIZE DUP1 PUSH3 0x130 JUMP JUMPDEST DUP7 DUP9 MSTORE DUP4 DUP9 KECCAK256 PUSH1 0x1F NOT DUP5 AND SWAP5 SWAP4 DUP9 SWAP4 SWAP1 SWAP3 DUP11 JUMPDEST DUP8 DUP2 LT PUSH3 0x20B JUMPI POP DUP4 PUSH1 0x9 SWAP8 LT PUSH3 0x1F1 JUMPI JUMPDEST POP POP POP DUP2 SHL ADD DUP6 SSTORE PUSH3 0x144 JUMP JUMPDEST ADD MLOAD PUSH1 0x0 NOT PUSH1 0xF8 DUP5 PUSH1 0x3 SHL AND SHR NOT AND SWAP1 SSTORE CODESIZE DUP1 DUP1 PUSH3 0x1E3 JUMP JUMPDEST DUP3 DUP3 ADD MLOAD DUP5 SSTORE DUP11 SWAP6 SWAP1 SWAP4 ADD SWAP3 SWAP2 DUP7 ADD SWAP2 DUP7 ADD PUSH3 0x1CF JUMP JUMPDEST DUP8 DUP10 MSTORE DUP5 DUP10 KECCAK256 DUP4 DUP1 DUP7 ADD PUSH1 0x5 SHR DUP3 ADD SWAP3 DUP8 DUP8 LT PUSH3 0x261 JUMPI JUMPDEST ADD PUSH1 0x5 SHR ADD SWAP1 DUP9 SWAP1 JUMPDEST DUP3 DUP2 LT PUSH3 0x255 JUMPI POP POP PUSH3 0x115 JUMP JUMPDEST DUP11 DUP2 SSTORE ADD DUP9 SWAP1 PUSH3 0x245 JUMP JUMPDEST SWAP3 POP DUP2 SWAP3 PUSH3 0x23C JUMP JUMPDEST PUSH4 0x4E487B71 PUSH1 0xE0 SHL DUP10 MSTORE PUSH1 0x22 PUSH1 0x4 MSTORE PUSH1 0x24 DUP10 REVERT JUMPDEST SWAP1 PUSH1 0x7F AND SWAP1 PUSH3 0x103 JUMP JUMPDEST PUSH4 0x4E487B71 PUSH1 0xE0 SHL DUP9 MSTORE PUSH1 0x41 PUSH1 0x4 MSTORE PUSH1 0x24 DUP9 REVERT JUMPDEST ADD MLOAD SWAP1 POP CODESIZE DUP1 PUSH3 0xD5 JUMP JUMPDEST DUP12 DUP1 MSTORE DUP8 DUP13 KECCAK256 DUP12 SWAP5 POP SWAP2 SWAP1 PUSH1 0x1F NOT DUP5 AND DUP14 JUMPDEST DUP11 DUP3 DUP3 LT PUSH3 0x2F7 JUMPI POP POP DUP5 GT PUSH3 0x2DD JUMPI JUMPDEST POP POP POP DUP2 SHL ADD DUP9 SSTORE PUSH3 0xE9 JUMP JUMPDEST ADD MLOAD PUSH1 0x0 NOT PUSH1 0xF8 DUP5 PUSH1 0x3 SHL AND SHR NOT AND SWAP1 SSTORE CODESIZE DUP1 DUP1 PUSH3 0x2CF JUMP JUMPDEST DUP4 DUP6 ADD MLOAD DUP7 SSTORE DUP15 SWAP8 SWAP1 SWAP6 ADD SWAP5 SWAP4 DUP5 ADD SWAP4 ADD PUSH3 0x2BC JUMP JUMPDEST SWAP1 SWAP2 POP DUP11 DUP1 MSTORE DUP7 DUP12 KECCAK256 DUP6 DUP1 DUP6 ADD PUSH1 0x5 SHR DUP3 ADD SWAP3 DUP10 DUP7 LT PUSH3 0x357 JUMPI JUMPDEST SWAP2 DUP13 SWAP2 DUP7 SWAP6 SWAP5 SWAP4 ADD PUSH1 0x5 SHR ADD SWAP2 JUMPDEST DUP3 DUP2 LT PUSH3 0x348 JUMPI POP POP PUSH3 0xBF JUMP JUMPDEST DUP14 DUP2 SSTORE DUP6 SWAP5 POP DUP13 SWAP2 ADD PUSH3 0x338 JUMP JUMPDEST SWAP3 POP DUP2 SWAP3 PUSH3 0x32A JUMP JUMPDEST PUSH4 0x4E487B71 PUSH1 0xE0 SHL DUP11 MSTORE PUSH1 0x22 PUSH1 0x4 MSTORE PUSH1 0x24 DUP11 REVERT JUMPDEST SWAP4 PUSH1 0x7F AND SWAP4 PUSH3 0xA8 JUMP JUMPDEST PUSH4 0x4E487B71 PUSH1 0xE0 SHL PUSH1 0x0 MSTORE PUSH1 0x41 PUSH1 0x4 MSTORE PUSH1 0x24 PUSH1 0x0 REVERT JUMPDEST PUSH1 0x0 DUP1 REVERT JUMPDEST PUSH1 0x40 MLOAD SWAP2 SWAP1 PUSH1 0x1F ADD PUSH1 0x1F NOT AND DUP3 ADD PUSH1 0x1 PUSH1 0x1 PUSH1 0x40 SHL SUB DUP2 GT DUP4 DUP3 LT OR PUSH3 0x380 JUMPI PUSH1 0x40 MSTORE JUMP JUMPDEST SWAP2 SWAP1 DUP1 PUSH1 0x1F DUP5 ADD SLT ISZERO PUSH3 0x396 JUMPI DUP3 MLOAD PUSH1 0x1 PUSH1 0x1 PUSH1 0x40 SHL SUB DUP2 GT PUSH3 0x380 JUMPI PUSH1 0x20 SWAP1 PUSH3 0x3F7 PUSH1 0x1F DUP3 ADD PUSH1 0x1F NOT AND DUP4 ADD PUSH3 0x39B JUMP JUMPDEST SWAP3 DUP2 DUP5 MSTORE DUP3 DUP3 DUP8 ADD ADD GT PUSH3 0x396 JUMPI PUSH1 0x0 JUMPDEST DUP2 DUP2 LT PUSH3 0x41F JUMPI POP DUP3 PUSH1 0x0 SWAP4 SWAP5 SWAP6 POP ADD ADD MSTORE SWAP1 JUMP JUMPDEST DUP6 DUP2 ADD DUP4 ADD MLOAD DUP5 DUP3 ADD DUP5 ADD MSTORE DUP3 ADD PUSH3 0x409 JUMP JUMPDEST PUSH1 0x7 DUP1 SLOAD PUSH2 0x100 PUSH1 0x1 PUSH1 0xA8 SHL SUB NOT DUP2 AND PUSH1 0x8 DUP5 DUP2 SHL PUSH2 0x100 PUSH1 0x1 PUSH1 0xA8 SHL SUB AND SWAP2 SWAP1 SWAP2 OR SWAP1 SWAP3 SSTORE PUSH1 0x1 PUSH1 0x1 PUSH1 0xA0 SHL SUB SWAP3 DUP4 AND SWAP3 SWAP2 SHR AND PUSH32 0x8BE0079C531659141344CD1FD0A4F28419497F9722A3DAAFE3B4186F6B6457E0 PUSH1 0x0 DUP1 LOG3 JUMP INVALID PUSH2 0x260 PUSH1 0x40 SWAP1 DUP1 DUP3 MSTORE PUSH1 0x4 DUP1 CALLDATASIZE LT ISZERO PUSH2 0x17 JUMPI PUSH1 0x0 DUP1 REVERT JUMPDEST PUSH1 0x0 CALLDATALOAD PUSH1 0xE0 SHR SWAP2 DUP3 PUSH4 0x1FFC9A7 EQ PUSH2 0x178B JUMPI POP DUP2 PUSH4 0x6FDDE03 EQ PUSH2 0x16E3 JUMPI DUP2 PUSH4 0x81812FC EQ PUSH2 0x16C5 JUMPI DUP2 PUSH4 0x95EA7B3 EQ PUSH2 0x154F JUMPI DUP2 PUSH4 0x1692A942 EQ PUSH2 0x1427 JUMPI DUP2 PUSH4 0x18160DDD EQ PUSH2 0x13E6 JUMPI DUP2 PUSH4 0x20694DB0 EQ PUSH2 0x12B4 JUMPI DUP2 PUSH4 0x23B872DD EQ PUSH2 0x1290 JUMPI DUP2 PUSH4 0x3C433EBE EQ PUSH2 0x11FF JUMPI DUP2 PUSH4 0x3F4BA83A EQ PUSH2 0x116A JUMPI DUP2 PUSH4 0x42842E0E EQ PUSH2 0x1136 JUMPI DUP2 PUSH4 0x42966C68 EQ PUSH2 0xFAD JUMPI DUP2 PUSH4 0x47BC7093 EQ PUSH2 0xEDD JUMPI DUP2 PUSH4 0x5C975ABB EQ PUSH2 0xEB9 JUMPI DUP2 PUSH4 0x603D0E61 EQ PUSH2 0xDB2 JUMPI DUP2 PUSH4 0x6352211E EQ PUSH2 0xD83 JUMPI DUP2 PUSH4 0x663B3E22 EQ PUSH2 0xCAE JUMPI DUP2 PUSH4 0x70A08231 EQ PUSH2 0xC82 JUMPI DUP2 PUSH4 0x715018A6 EQ PUSH2 0xC21 JUMPI DUP2 PUSH4 0x77EC4EAE EQ PUSH2 0xBE0 JUMPI DUP2 PUSH4 0x8456CB59 EQ PUSH2 0xB86 JUMPI DUP2 PUSH4 0x877B9A67 EQ PUSH2 0xB61 JUMPI DUP2 PUSH4 0x8DA5CB5B EQ PUSH2 0xB34 JUMPI DUP2 PUSH4 0x95D89B41 EQ PUSH2 0xA52 JUMPI DUP2 PUSH4 0xA2171606 EQ PUSH2 0x799 JUMPI DUP2 PUSH4 0xA22CB465 EQ PUSH2 0x6C3 JUMPI DUP2 PUSH4 0xB1466D1D EQ PUSH2 0x580 JUMPI DUP2 PUSH4 0xB440983E EQ PUSH2 0x552 JUMPI DUP2 PUSH4 0xB88D4FDE EQ PUSH2 0x4CC JUMPI DUP2 PUSH4 0xBBCC20F1 EQ PUSH2 0x444 JUMPI DUP2 PUSH4 0xC87B56DD EQ PUSH2 0x3D1 JUMPI DUP2 PUSH4 0xE985E9C5 EQ PUSH2 0x37F JUMPI DUP2 PUSH4 0xEBC63BC0 EQ PUSH2 0x2C0 JUMPI DUP2 PUSH4 0xF2FDE38B EQ PUSH2 0x1E7 JUMPI POP PUSH4 0xF731FA0F EQ PUSH2 0x1A5 JUMPI PUSH1 0x0 DUP1 REVERT JUMPDEST CALLVALUE PUSH2 0x1E2 JUMPI PUSH1 0x20 CALLDATASIZE PUSH1 0x3 NOT ADD SLT PUSH2 0x1E2 JUMPI PUSH1 0x20 SWAP1 PUSH1 0x1 PUSH1 0x1 PUSH1 0xA0 SHL SUB PUSH2 0x1C9 PUSH2 0x1857 JUMP JUMPDEST AND PUSH1 0x0 MSTORE PUSH1 0x9 DUP3 MSTORE PUSH1 0xFF DUP2 PUSH1 0x0 KECCAK256 SLOAD AND SWAP1 MLOAD SWAP1 ISZERO ISZERO DUP2 MSTORE RETURN JUMPDEST PUSH1 0x0 DUP1 REVERT JUMPDEST SWAP1 POP CALLVALUE PUSH2 0x1E2 JUMPI PUSH1 0x20 CALLDATASIZE PUSH1 0x3 NOT ADD SLT PUSH2 0x1E2 JUMPI PUSH2 0x202 PUSH2 0x1857 JUMP JUMPDEST PUSH2 0x20A PUSH2 0x1B33 JUMP JUMPDEST PUSH1 0x1 PUSH1 0x1 PUSH1 0xA0 SHL SUB DUP2 DUP2 AND SWAP4 SWAP1 SWAP3 SWAP1 DUP5 ISZERO PUSH2 0x26E JUMPI POP POP PUSH1 0x7 DUP1 SLOAD PUSH2 0x100 PUSH1 0x1 PUSH1 0xA8 SHL SUB NOT DUP2 AND PUSH1 0x8 SWAP4 DUP5 SHL PUSH2 0x100 PUSH1 0x1 PUSH1 0xA8 SHL SUB AND OR SWAP1 SWAP2 SSTORE SWAP1 SHR AND PUSH32 0x8BE0079C531659141344CD1FD0A4F28419497F9722A3DAAFE3B4186F6B6457E0 PUSH1 0x0 DUP1 LOG3 STOP JUMPDEST SWAP1 PUSH1 0x20 PUSH1 0x84 SWAP3 MLOAD SWAP2 PUSH3 0x461BCD PUSH1 0xE5 SHL DUP4 MSTORE DUP3 ADD MSTORE PUSH1 0x26 PUSH1 0x24 DUP3 ADD MSTORE PUSH32 0x4F776E61626C653A206E6577206F776E657220697320746865207A65726F2061 PUSH1 0x44 DUP3 ADD MSTORE PUSH6 0x646472657373 PUSH1 0xD0 SHL PUSH1 0x64 DUP3 ADD MSTORE REVERT JUMPDEST DUP3 CALLVALUE PUSH2 0x1E2 JUMPI PUSH1 0x20 CALLDATASIZE PUSH1 0x3 NOT ADD SLT PUSH2 0x1E2 JUMPI PUSH2 0x2DA PUSH2 0x1857 JUMP JUMPDEST PUSH2 0x2EB PUSH2 0x2E6 DUP3 PUSH2 0x1B8E JUMP JUMPDEST PUSH2 0x2CF8 JUMP JUMPDEST SWAP1 PUSH1 0x0 PUSH1 0x1 SWAP2 PUSH1 0x8 SLOAD SWAP3 JUMPDEST DUP4 DUP2 LT PUSH2 0x30E JUMPI DUP6 MLOAD DUP1 PUSH2 0x30A DUP8 DUP3 PUSH2 0x1AA6 JUMP JUMPDEST SUB SWAP1 RETURN JUMPDEST PUSH1 0x0 DUP2 DUP2 MSTORE PUSH1 0x2 PUSH1 0x20 MSTORE PUSH1 0x40 SWAP1 KECCAK256 SLOAD PUSH1 0x1 PUSH1 0x1 PUSH1 0xA0 SHL SUB AND ISZERO ISZERO DUP1 PUSH2 0x362 JUMPI JUMPDEST PUSH2 0x341 JUMPI JUMPDEST PUSH2 0x33C SWAP1 PUSH2 0x2D2A JUMP JUMPDEST PUSH2 0x2F6 JUMP JUMPDEST SWAP2 PUSH2 0x35A DUP2 DUP5 PUSH2 0x354 PUSH2 0x33C SWAP5 DUP10 PUSH2 0x2DB6 JUMP JUMPDEST MSTORE PUSH2 0x2D2A JUMP JUMPDEST SWAP3 SWAP1 POP PUSH2 0x333 JUMP JUMPDEST POP PUSH2 0x36C DUP2 PUSH2 0x1C51 JUMP JUMPDEST PUSH1 0x1 PUSH1 0x1 PUSH1 0xA0 SHL SUB DUP4 DUP2 AND SWAP2 AND EQ PUSH2 0x32E JUMP JUMPDEST DUP3 CALLVALUE PUSH2 0x1E2 JUMPI DUP1 PUSH1 0x3 NOT CALLDATASIZE ADD SLT PUSH2 0x1E2 JUMPI PUSH1 0x20 SWAP1 PUSH2 0x39B PUSH2 0x1857 JUMP JUMPDEST PUSH2 0x3A3 PUSH2 0x186D JUMP JUMPDEST SWAP1 PUSH1 0x1 DUP1 PUSH1 0xA0 SHL SUB DUP1 SWAP2 AND PUSH1 0x0 MSTORE PUSH1 0x5 DUP5 MSTORE DUP3 PUSH1 0x0 KECCAK256 SWAP2 AND PUSH1 0x0 MSTORE DUP3 MSTORE PUSH1 0xFF DUP2 PUSH1 0x0 KECCAK256 SLOAD AND SWAP1 MLOAD SWAP1 ISZERO ISZERO DUP2 MSTORE RETURN JUMPDEST DUP3 CALLVALUE PUSH2 0x1E2 JUMPI PUSH1 0x20 CALLDATASIZE PUSH1 0x3 NOT ADD SLT PUSH2 0x1E2 JUMPI PUSH2 0x30A SWAP2 CALLDATALOAD PUSH2 0x40F PUSH2 0x40A DUP3 PUSH1 0x0 MSTORE PUSH1 0x2 PUSH1 0x20 MSTORE PUSH1 0x1 DUP1 PUSH1 0xA0 SHL SUB PUSH1 0x40 PUSH1 0x0 KECCAK256 SLOAD AND ISZERO ISZERO SWAP1 JUMP JUMPDEST PUSH2 0x1C05 JUMP JUMPDEST PUSH1 0x0 MSTORE PUSH1 0x6 PUSH1 0x20 MSTORE PUSH2 0x423 DUP2 PUSH1 0x0 KECCAK256 PUSH2 0x19D0 JUMP JUMPDEST SWAP1 PUSH1 0x0 DUP2 MLOAD PUSH2 0x431 DUP2 PUSH2 0x1994 JUMP JUMPDEST MSTORE MLOAD SWAP2 DUP3 SWAP2 PUSH1 0x20 DUP4 MSTORE PUSH1 0x20 DUP4 ADD SWAP1 PUSH2 0x1832 JUMP JUMPDEST DUP3 CALLVALUE PUSH2 0x1E2 JUMPI DUP1 PUSH1 0x3 NOT CALLDATASIZE ADD SLT PUSH2 0x1E2 JUMPI PUSH2 0x45D PUSH2 0x1857 JUMP JUMPDEST SWAP2 PUSH1 0x24 CALLDATALOAD SWAP1 PUSH1 0x1 PUSH1 0x1 PUSH1 0x40 SHL SUB DUP3 GT PUSH2 0x1E2 JUMPI CALLDATASIZE PUSH1 0x23 DUP4 ADD SLT ISZERO PUSH2 0x1E2 JUMPI PUSH1 0x20 SWAP4 PUSH2 0x495 DUP6 SWAP3 DUP5 PUSH1 0x24 PUSH2 0x4BB SWAP7 CALLDATASIZE SWAP4 ADD CALLDATALOAD SWAP2 ADD PUSH2 0x1AFC JUMP JUMPDEST SWAP1 PUSH1 0x1 DUP1 PUSH1 0xA0 SHL SUB AND PUSH1 0x0 MSTORE PUSH1 0xB DUP3 MSTORE DUP4 PUSH1 0x0 KECCAK256 DUP3 DUP6 MLOAD SWAP5 DUP4 DUP7 DUP1 SWAP6 MLOAD SWAP4 DUP5 SWAP3 ADD PUSH2 0x180F JUMP JUMPDEST DUP3 ADD SWAP1 DUP2 MSTORE SUB ADD SWAP1 KECCAK256 SLOAD SWAP1 MLOAD SWAP1 DUP2 MSTORE RETURN JUMPDEST CALLVALUE PUSH2 0x1E2 JUMPI PUSH1 0x80 CALLDATASIZE PUSH1 0x3 NOT ADD SLT PUSH2 0x1E2 JUMPI PUSH2 0x4E5 PUSH2 0x1857 JUMP JUMPDEST SWAP1 PUSH2 0x4EE PUSH2 0x186D JUMP JUMPDEST SWAP2 PUSH1 0x44 CALLDATALOAD PUSH1 0x64 CALLDATALOAD SWAP4 PUSH1 0x1 PUSH1 0x1 PUSH1 0x40 SHL SUB DUP6 GT PUSH2 0x1E2 JUMPI CALLDATASIZE PUSH1 0x23 DUP7 ADD SLT ISZERO PUSH2 0x1E2 JUMPI PUSH2 0x528 PUSH2 0x54B SWAP5 DUP7 PUSH1 0x24 PUSH2 0x550 SWAP9 CALLDATASIZE SWAP4 ADD CALLDATALOAD SWAP2 ADD PUSH2 0x1AFC JUMP JUMPDEST SWAP3 PUSH2 0x53B PUSH2 0x536 DUP5 CALLER PUSH2 0x1D8E JUMP JUMPDEST PUSH2 0x1CB5 JUMP JUMPDEST PUSH2 0x546 DUP4 DUP4 DUP4 PUSH2 0x1E56 JUMP JUMPDEST PUSH2 0x2104 JUMP JUMPDEST PUSH2 0x1D6A JUMP JUMPDEST STOP JUMPDEST DUP3 CALLVALUE PUSH2 0x1E2 JUMPI PUSH1 0x20 CALLDATASIZE PUSH1 0x3 NOT ADD SLT PUSH2 0x1E2 JUMPI PUSH1 0x20 SWAP2 CALLDATALOAD PUSH1 0x0 MSTORE PUSH1 0xC DUP3 MSTORE PUSH1 0xFF DUP2 PUSH1 0x0 KECCAK256 SLOAD AND SWAP1 MLOAD SWAP1 ISZERO ISZERO DUP2 MSTORE RETURN JUMPDEST DUP3 CALLVALUE PUSH2 0x1E2 JUMPI DUP1 PUSH1 0x3 NOT CALLDATASIZE ADD SLT PUSH2 0x1E2 JUMPI DUP2 CALLDATALOAD SWAP1 PUSH1 0x24 CALLDATALOAD PUSH1 0x1 PUSH1 0x1 PUSH1 0x40 SHL SUB DUP2 GT PUSH2 0x1E2 JUMPI PUSH2 0x5B2 SWAP1 CALLDATASIZE SWAP1 DUP6 ADD PUSH2 0x18B8 JUMP JUMPDEST SWAP2 SWAP1 SWAP4 CALLER PUSH1 0x0 MSTORE PUSH1 0x20 SWAP1 PUSH1 0x9 DUP3 MSTORE PUSH2 0x5D0 PUSH1 0xFF DUP5 PUSH1 0x0 KECCAK256 SLOAD AND PUSH2 0x218F JUMP JUMPDEST PUSH1 0x0 DUP6 DUP2 MSTORE PUSH1 0x2 PUSH1 0x20 MSTORE PUSH1 0x40 SWAP1 KECCAK256 SLOAD PUSH2 0x5F3 SWAP1 PUSH1 0x1 PUSH1 0x1 PUSH1 0xA0 SHL SUB AND ISZERO ISZERO PUSH2 0x2DCA JUMP JUMPDEST DUP5 PUSH1 0x0 MSTORE PUSH1 0xA DUP3 MSTORE PUSH1 0xFF PUSH1 0x7 DUP5 PUSH1 0x0 KECCAK256 ADD SLOAD AND ISZERO PUSH2 0x66E JUMPI POP DUP3 DUP1 DUP6 SWAP7 PUSH32 0x65032D3CC955C731F4C2A4178F663DBCC6C08E5163BAD5A3149773F3894548D3 SWAP7 PUSH1 0x0 MSTORE PUSH1 0xA DUP5 MSTORE PUSH1 0x7 DUP6 PUSH1 0x0 KECCAK256 ADD PUSH1 0xFF NOT DUP2 SLOAD AND SWAP1 SSTORE DUP5 MLOAD SWAP6 DUP5 DUP8 SWAP6 DUP7 MSTORE DUP6 ADD MSTORE DUP5 DUP5 ADD CALLDATACOPY PUSH1 0x0 DUP3 DUP3 ADD DUP5 ADD MSTORE PUSH1 0x1F ADD PUSH1 0x1F NOT AND DUP2 ADD SUB ADD SWAP1 LOG2 STOP JUMPDEST SWAP2 MLOAD PUSH3 0x461BCD PUSH1 0xE5 SHL DUP2 MSTORE SWAP2 DUP3 ADD MSTORE PUSH1 0x2B PUSH1 0x24 DUP3 ADD MSTORE PUSH32 0x45445543657274696669636174653A20636572746966696361746520616C7265 PUSH1 0x44 DUP3 ADD MSTORE PUSH11 0x18591E481C995D9BDAD959 PUSH1 0xAA SHL PUSH1 0x64 DUP3 ADD MSTORE PUSH1 0x84 SWAP1 REVERT JUMPDEST DUP3 CALLVALUE PUSH2 0x1E2 JUMPI DUP1 PUSH1 0x3 NOT CALLDATASIZE ADD SLT PUSH2 0x1E2 JUMPI PUSH2 0x6DC PUSH2 0x1857 JUMP JUMPDEST SWAP1 PUSH1 0x24 CALLDATALOAD DUP1 ISZERO ISZERO SWAP3 DUP4 DUP3 SUB PUSH2 0x1E2 JUMPI PUSH1 0x1 PUSH1 0x1 PUSH1 0xA0 SHL SUB AND SWAP4 CALLER DUP6 EQ PUSH2 0x756 JUMPI POP PUSH2 0x72A SWAP1 CALLER PUSH1 0x0 MSTORE PUSH1 0x5 PUSH1 0x20 MSTORE DUP3 PUSH1 0x0 KECCAK256 DUP6 PUSH1 0x0 MSTORE PUSH1 0x20 MSTORE DUP3 PUSH1 0x0 KECCAK256 SWAP1 PUSH1 0xFF DUP1 NOT DUP4 SLOAD AND SWAP2 ISZERO ISZERO AND OR SWAP1 SSTORE JUMP JUMPDEST MLOAD SWAP1 DUP2 MSTORE PUSH32 0x17307EAB39AB6107E8899845AD3D59BD9653F200F220920489CA2B5937696C31 PUSH1 0x20 CALLER SWAP3 LOG3 STOP JUMPDEST PUSH1 0x64 SWAP1 PUSH1 0x20 DUP5 MLOAD SWAP2 PUSH3 0x461BCD PUSH1 0xE5 SHL DUP4 MSTORE DUP3 ADD MSTORE PUSH1 0x19 PUSH1 0x24 DUP3 ADD MSTORE PUSH32 0x4552433732313A20617070726F766520746F2063616C6C657200000000000000 PUSH1 0x44 DUP3 ADD MSTORE REVERT JUMPDEST DUP3 CALLVALUE PUSH2 0x1E2 JUMPI PUSH1 0xE0 CALLDATASIZE PUSH1 0x3 NOT ADD SLT PUSH2 0x1E2 JUMPI PUSH1 0x1 PUSH1 0x1 PUSH1 0x40 SHL SUB SWAP2 DUP1 CALLDATALOAD DUP4 DUP2 GT PUSH2 0x1E2 JUMPI PUSH2 0x7CA SWAP1 CALLDATASIZE SWAP1 DUP4 ADD PUSH2 0x1A76 JUMP JUMPDEST PUSH1 0xC0 MSTORE SWAP3 PUSH1 0x24 CALLDATALOAD DUP2 DUP2 GT PUSH2 0x1E2 JUMPI PUSH2 0x7E5 SWAP1 CALLDATASIZE SWAP1 DUP5 ADD PUSH2 0x1A76 JUMP JUMPDEST PUSH2 0x140 MSTORE PUSH2 0x200 MSTORE PUSH1 0x44 CALLDATALOAD DUP2 DUP2 GT PUSH2 0x1E2 JUMPI PUSH2 0x804 SWAP1 CALLDATASIZE SWAP1 DUP5 ADD PUSH2 0x1A76 JUMP JUMPDEST PUSH2 0x100 MSTORE PUSH2 0x180 MSTORE PUSH1 0x64 CALLDATALOAD DUP2 DUP2 GT PUSH2 0x1E2 JUMPI PUSH2 0x823 SWAP1 CALLDATASIZE SWAP1 DUP5 ADD PUSH2 0x1A76 JUMP JUMPDEST PUSH1 0x80 MSTORE PUSH1 0xE0 MSTORE PUSH1 0x84 CALLDATALOAD DUP2 DUP2 GT PUSH2 0x1E2 JUMPI PUSH2 0x840 SWAP1 CALLDATASIZE SWAP1 DUP5 ADD PUSH2 0x1A76 JUMP JUMPDEST PUSH1 0xA0 MSTORE PUSH2 0x220 MSTORE PUSH1 0xA4 CALLDATALOAD DUP2 DUP2 GT PUSH2 0x1E2 JUMPI PUSH2 0x85E SWAP1 CALLDATASIZE SWAP1 DUP5 ADD PUSH2 0x1A76 JUMP JUMPDEST PUSH2 0x1C0 MSTORE PUSH2 0x1A0 MSTORE PUSH1 0xC4 CALLDATALOAD SWAP1 DUP2 GT PUSH2 0x1E2 JUMPI PUSH2 0x87D SWAP1 CALLDATASIZE SWAP1 DUP4 ADD PUSH2 0x1A76 JUMP JUMPDEST PUSH2 0x120 MSTORE PUSH2 0x1E0 MSTORE CALLER PUSH1 0x0 MSTORE PUSH1 0x9 PUSH1 0x20 MSTORE PUSH2 0x89E PUSH1 0xFF DUP4 PUSH1 0x0 KECCAK256 SLOAD AND PUSH2 0x218F JUMP JUMPDEST PUSH2 0x8AE PUSH2 0x140 MLOAD PUSH1 0xC0 MLOAD EQ PUSH2 0x2C86 JUMP JUMPDEST PUSH2 0x8BE PUSH2 0x100 MLOAD PUSH1 0xC0 MLOAD EQ PUSH2 0x2C86 JUMP JUMPDEST PUSH2 0x8CD PUSH1 0x80 MLOAD PUSH1 0xC0 MLOAD EQ PUSH2 0x2C86 JUMP JUMPDEST PUSH2 0x8DC PUSH1 0xA0 MLOAD PUSH1 0xC0 MLOAD EQ PUSH2 0x2C86 JUMP JUMPDEST PUSH2 0x8EC PUSH2 0x1C0 MLOAD PUSH1 0xC0 MLOAD EQ PUSH2 0x2C86 JUMP JUMPDEST PUSH2 0x8FC PUSH2 0x120 MLOAD PUSH1 0xC0 MLOAD EQ PUSH2 0x2C86 JUMP JUMPDEST PUSH1 0xC0 MLOAD ISZERO PUSH2 0xA10 JUMPI POP PUSH2 0x910 PUSH1 0xC0 MLOAD PUSH2 0x2CF8 JUMP JUMPDEST PUSH2 0x160 MSTORE PUSH1 0x0 JUMPDEST PUSH1 0xC0 MLOAD DUP1 DUP3 LT ISZERO PUSH2 0xA00 JUMPI DUP2 PUSH2 0x92D SWAP2 DUP6 PUSH2 0x2D4F JUMP JUMPDEST CALLDATALOAD SWAP1 PUSH1 0x1 PUSH1 0x1 PUSH1 0xA0 SHL SUB DUP3 AND DUP3 SUB PUSH2 0x1E2 JUMPI PUSH2 0x9EE PUSH2 0x9FB SWAP3 PUSH2 0x9C6 PUSH2 0x95A DUP5 PUSH2 0x140 MLOAD PUSH2 0x200 MLOAD PUSH2 0x2D75 JUMP JUMPDEST PUSH2 0x9D8 PUSH2 0x9E8 PUSH2 0x974 DUP9 PUSH2 0x100 SWAP7 SWAP6 SWAP7 MLOAD PUSH2 0x180 MLOAD PUSH2 0x2D75 JUMP JUMPDEST SWAP2 SWAP1 SWAP4 PUSH2 0x9E0 DUP11 PUSH2 0x9D8 PUSH2 0x98D DUP3 PUSH1 0x80 MLOAD PUSH1 0xE0 MLOAD PUSH2 0x2D4F JUMP JUMPDEST CALLDATALOAD SWAP8 PUSH2 0x99F DUP4 PUSH1 0xA0 MLOAD PUSH2 0x220 MLOAD PUSH2 0x2D75 JUMP JUMPDEST SWAP9 SWAP1 SWAP2 PUSH2 0x9D0 PUSH2 0x9B6 DUP7 PUSH2 0x1C0 MLOAD PUSH2 0x1A0 MLOAD PUSH2 0x2D75 JUMP JUMPDEST SWAP14 SWAP1 SWAP7 PUSH2 0x120 MLOAD PUSH2 0x1E0 MLOAD PUSH2 0x2D75 JUMP JUMPDEST SWAP15 SWAP1 SWAP9 CALLDATASIZE SWAP2 PUSH2 0x1AFC JUMP JUMPDEST SWAP9 CALLDATASIZE SWAP2 PUSH2 0x1AFC JUMP JUMPDEST SWAP8 CALLDATASIZE SWAP2 PUSH2 0x1AFC JUMP JUMPDEST SWAP7 CALLDATASIZE SWAP2 PUSH2 0x1AFC JUMP JUMPDEST SWAP6 PUSH2 0x220D JUMP JUMPDEST PUSH2 0x354 DUP3 PUSH2 0x160 MLOAD PUSH2 0x2DB6 JUMP JUMPDEST PUSH2 0x917 JUMP JUMPDEST DUP3 MLOAD DUP1 PUSH2 0x30A PUSH2 0x160 MLOAD DUP3 PUSH2 0x1AA6 JUMP JUMPDEST PUSH1 0x20 PUSH1 0x64 SWAP3 MLOAD SWAP2 PUSH3 0x461BCD PUSH1 0xE5 SHL DUP4 MSTORE DUP3 ADD MSTORE PUSH1 0x1C PUSH1 0x24 DUP3 ADD MSTORE PUSH32 0x45445543657274696669636174653A20656D7074792061727261797300000000 PUSH1 0x44 DUP3 ADD MSTORE REVERT JUMPDEST DUP3 CALLVALUE PUSH2 0x1E2 JUMPI PUSH1 0x0 CALLDATASIZE PUSH1 0x3 NOT ADD SLT PUSH2 0x1E2 JUMPI DUP1 MLOAD PUSH1 0x0 SWAP2 PUSH1 0x1 DUP1 SLOAD SWAP1 PUSH2 0xA77 DUP3 PUSH2 0x1928 JUMP JUMPDEST DUP1 DUP6 MSTORE SWAP2 DUP2 DUP2 AND SWAP1 DUP2 ISZERO PUSH2 0xB0C JUMPI POP PUSH1 0x1 EQ PUSH2 0xAB1 JUMPI JUMPDEST POP POP PUSH2 0xA9F DUP3 PUSH2 0x30A SWAP5 SUB DUP4 PUSH2 0x19AF JUMP JUMPDEST MLOAD SWAP2 DUP3 SWAP2 PUSH1 0x20 DUP4 MSTORE PUSH1 0x20 DUP4 ADD SWAP1 PUSH2 0x1832 JUMP JUMPDEST PUSH1 0x0 DUP2 DUP2 MSTORE SWAP5 POP PUSH32 0xB10E2D527612073B26EECDFD717E6A320CF44B4AFAC2B0732D9FCBE2B7FA0CF6 JUMPDEST DUP3 DUP7 LT PUSH2 0xAF4 JUMPI POP POP POP SWAP2 DUP2 ADD PUSH1 0x20 ADD SWAP2 PUSH2 0xA9F DUP3 PUSH2 0xA8E JUMP JUMPDEST DUP1 SLOAD PUSH1 0x20 DUP8 DUP8 ADD DUP2 ADD SWAP2 SWAP1 SWAP2 MSTORE SWAP1 SWAP6 ADD SWAP5 DUP2 ADD PUSH2 0xADA JUMP JUMPDEST PUSH2 0x30A SWAP7 POP DUP6 SWAP3 POP PUSH1 0x20 SWAP2 POP SWAP3 PUSH2 0xA9F SWAP4 PUSH1 0xFF NOT AND DUP3 DUP5 ADD MSTORE ISZERO ISZERO PUSH1 0x5 SHL DUP3 ADD ADD SWAP5 POP PUSH2 0xA8E JUMP JUMPDEST DUP3 CALLVALUE PUSH2 0x1E2 JUMPI PUSH1 0x0 CALLDATASIZE PUSH1 0x3 NOT ADD SLT PUSH2 0x1E2 JUMPI PUSH1 0x7 SLOAD SWAP1 MLOAD PUSH1 0x8 SWAP2 SWAP1 SWAP2 SHR PUSH1 0x1 PUSH1 0x1 PUSH1 0xA0 SHL SUB AND DUP2 MSTORE PUSH1 0x20 SWAP1 RETURN JUMPDEST DUP3 CALLVALUE PUSH2 0x1E2 JUMPI PUSH1 0x20 CALLDATASIZE PUSH1 0x3 NOT ADD SLT PUSH2 0x1E2 JUMPI PUSH1 0x20 SWAP1 PUSH1 0x1 PUSH1 0x1 PUSH1 0xA0 SHL SUB PUSH2 0x1C9 PUSH2 0x1857 JUMP JUMPDEST DUP3 CALLVALUE PUSH2 0x1E2 JUMPI PUSH1 0x0 CALLDATASIZE PUSH1 0x3 NOT ADD SLT PUSH2 0x1E2 JUMPI PUSH1 0x20 PUSH32 0x62E78CEA01BEE320CD4E420270B5EA74000D11B0C9F74754EBDBFC544B05A258 SWAP2 PUSH2 0xBC4 PUSH2 0x1B33 JUMP JUMPDEST PUSH2 0xBCC PUSH2 0x2E29 JUMP JUMPDEST PUSH1 0x1 PUSH1 0xFF NOT PUSH1 0x7 SLOAD AND OR PUSH1 0x7 SSTORE MLOAD CALLER DUP2 MSTORE LOG1 STOP JUMPDEST DUP3 CALLVALUE PUSH2 0x1E2 JUMPI PUSH1 0x20 SWAP1 DUP2 PUSH2 0xBF3 CALLDATASIZE PUSH2 0x18E5 JUMP JUMPDEST SWAP3 SWAP2 PUSH1 0x1 DUP1 PUSH1 0xA0 SHL SUB AND PUSH1 0x0 MSTORE PUSH1 0xB DUP3 MSTORE DUP4 PUSH1 0x0 KECCAK256 DUP4 DUP6 MLOAD SWAP5 DUP6 SWAP4 DUP5 CALLDATACOPY DUP3 ADD SWAP1 DUP2 MSTORE SUB ADD SWAP1 KECCAK256 SLOAD SWAP1 MLOAD SWAP1 DUP2 MSTORE RETURN JUMPDEST CALLVALUE PUSH2 0x1E2 JUMPI PUSH1 0x0 CALLDATASIZE PUSH1 0x3 NOT ADD SLT PUSH2 0x1E2 JUMPI PUSH2 0xC3A PUSH2 0x1B33 JUMP JUMPDEST PUSH1 0x7 DUP1 SLOAD PUSH2 0x100 PUSH1 0x1 PUSH1 0xA8 SHL SUB NOT DUP2 AND SWAP1 SWAP2 SSTORE PUSH1 0x0 SWAP1 PUSH1 0x8 SHR PUSH1 0x1 PUSH1 0x1 PUSH1 0xA0 SHL SUB AND PUSH32 0x8BE0079C531659141344CD1FD0A4F28419497F9722A3DAAFE3B4186F6B6457E0 DUP3 DUP1 LOG3 STOP JUMPDEST DUP3 CALLVALUE PUSH2 0x1E2 JUMPI PUSH1 0x20 CALLDATASIZE PUSH1 0x3 NOT ADD SLT PUSH2 0x1E2 JUMPI PUSH1 0x20 SWAP1 PUSH2 0xCA7 PUSH2 0xCA2 PUSH2 0x1857 JUMP JUMPDEST PUSH2 0x1B8E JUMP JUMPDEST SWAP1 MLOAD SWAP1 DUP2 MSTORE RETURN JUMPDEST DUP3 CALLVALUE PUSH2 0x1E2 JUMPI PUSH1 0x20 CALLDATASIZE PUSH1 0x3 NOT ADD SLT PUSH2 0x1E2 JUMPI DUP2 PUSH2 0xD40 SWAP3 CALLDATALOAD PUSH1 0x0 MSTORE PUSH1 0xA PUSH1 0x20 MSTORE PUSH2 0xD77 DUP3 PUSH1 0x0 KECCAK256 PUSH2 0xD69 PUSH2 0xCE1 DUP3 PUSH2 0x19D0 JUMP JUMPDEST SWAP5 PUSH2 0xCEE PUSH1 0x1 DUP5 ADD PUSH2 0x19D0 JUMP JUMPDEST SWAP5 PUSH1 0x1 DUP1 PUSH1 0xA0 SHL SUB PUSH1 0x2 DUP6 ADD SLOAD AND SWAP1 PUSH1 0x3 DUP6 ADD SLOAD SWAP1 DUP6 ADD SLOAD SWAP1 PUSH2 0xD13 PUSH1 0x5 DUP8 ADD PUSH2 0x19D0 JUMP JUMPDEST SWAP3 PUSH2 0xD4E PUSH1 0xFF PUSH1 0x7 PUSH2 0xD27 PUSH1 0x6 DUP12 ADD PUSH2 0x19D0 JUMP JUMPDEST SWAP10 ADD SLOAD AND SWAP10 DUP7 MLOAD SWAP13 DUP14 SWAP13 DUP14 PUSH2 0x100 SWAP1 DUP2 DUP2 MSTORE ADD SWAP1 PUSH2 0x1832 JUMP JUMPDEST DUP13 DUP2 SUB PUSH1 0x20 DUP15 ADD MSTORE SWAP1 PUSH2 0x1832 JUMP JUMPDEST SWAP5 DUP11 ADD MSTORE PUSH1 0x60 DUP10 ADD MSTORE PUSH1 0x80 DUP9 ADD MSTORE DUP7 DUP3 SUB PUSH1 0xA0 DUP9 ADD MSTORE PUSH2 0x1832 JUMP JUMPDEST SWAP1 DUP5 DUP3 SUB PUSH1 0xC0 DUP7 ADD MSTORE PUSH2 0x1832 JUMP JUMPDEST SWAP1 ISZERO ISZERO PUSH1 0xE0 DUP4 ADD MSTORE SUB SWAP1 RETURN JUMPDEST DUP3 CALLVALUE PUSH2 0x1E2 JUMPI PUSH1 0x20 CALLDATASIZE PUSH1 0x3 NOT ADD SLT PUSH2 0x1E2 JUMPI PUSH2 0xDA1 PUSH1 0x20 SWAP3 CALLDATALOAD PUSH2 0x1C51 JUMP JUMPDEST SWAP1 MLOAD PUSH1 0x1 PUSH1 0x1 PUSH1 0xA0 SHL SUB SWAP1 SWAP2 AND DUP2 MSTORE RETURN JUMPDEST DUP3 CALLVALUE PUSH2 0x1E2 JUMPI PUSH1 0xE0 CALLDATASIZE PUSH1 0x3 NOT ADD SLT PUSH2 0x1E2 JUMPI PUSH2 0xDCC PUSH2 0x1857 JUMP JUMPDEST PUSH1 0x1 PUSH1 0x1 PUSH1 0x40 SHL SUB SWAP1 PUSH1 0x24 CALLDATALOAD DUP3 DUP2 GT PUSH2 0x1E2 JUMPI PUSH2 0xDEC SWAP1 CALLDATASIZE SWAP1 DUP7 ADD PUSH2 0x18B8 JUMP JUMPDEST SWAP5 SWAP1 PUSH1 0x44 CALLDATALOAD DUP5 DUP2 GT PUSH2 0x1E2 JUMPI PUSH2 0xE05 SWAP1 CALLDATASIZE SWAP1 DUP5 ADD PUSH2 0x18B8 JUMP JUMPDEST SWAP4 SWAP1 PUSH1 0x84 CALLDATALOAD DUP7 DUP2 GT PUSH2 0x1E2 JUMPI PUSH2 0xE1E SWAP1 CALLDATASIZE SWAP1 DUP7 ADD PUSH2 0x18B8 JUMP JUMPDEST SWAP2 SWAP1 SWAP7 PUSH1 0xA4 CALLDATALOAD DUP2 DUP2 GT PUSH2 0x1E2 JUMPI PUSH2 0xE38 SWAP1 CALLDATASIZE SWAP1 DUP9 ADD PUSH2 0x18B8 JUMP JUMPDEST PUSH2 0x240 MSTORE SWAP5 PUSH1 0xC4 CALLDATALOAD SWAP2 DUP3 GT PUSH2 0x1E2 JUMPI PUSH2 0xEA2 PUSH2 0xCA7 SWAP10 PUSH2 0xE9A PUSH2 0xEAF SWAP6 PUSH2 0xE92 PUSH1 0x20 SWAP16 SWAP6 DUP16 SWAP8 SWAP7 PUSH2 0xE8B PUSH2 0xE74 PUSH1 0xFF SWAP16 PUSH2 0xE9A SWAP11 CALLDATASIZE SWAP2 ADD PUSH2 0x18B8 JUMP JUMPDEST SWAP16 SWAP1 SWAP11 CALLER PUSH1 0x0 MSTORE PUSH1 0x20 PUSH1 0x9 SWAP1 MSTORE PUSH1 0x0 KECCAK256 SLOAD AND PUSH2 0x218F JUMP JUMPDEST CALLDATASIZE SWAP2 PUSH2 0x1AFC JUMP JUMPDEST SWAP12 CALLDATASIZE SWAP2 PUSH2 0x1AFC JUMP JUMPDEST SWAP6 CALLDATASIZE SWAP2 PUSH2 0x1AFC JUMP JUMPDEST SWAP6 CALLDATASIZE SWAP1 PUSH2 0x240 MLOAD SWAP1 PUSH2 0x1AFC JUMP JUMPDEST SWAP5 PUSH1 0x64 CALLDATALOAD SWAP3 PUSH2 0x220D JUMP JUMPDEST DUP3 CALLVALUE PUSH2 0x1E2 JUMPI PUSH1 0x0 CALLDATASIZE PUSH1 0x3 NOT ADD SLT PUSH2 0x1E2 JUMPI PUSH1 0x20 SWAP1 PUSH1 0xFF PUSH1 0x7 SLOAD AND SWAP1 MLOAD SWAP1 ISZERO ISZERO DUP2 MSTORE RETURN JUMPDEST DUP3 CALLVALUE PUSH2 0x1E2 JUMPI PUSH1 0x20 CALLDATASIZE PUSH1 0x3 NOT ADD SLT PUSH2 0x1E2 JUMPI PUSH2 0xEF7 PUSH2 0x1857 JUMP JUMPDEST PUSH2 0xEFF PUSH2 0x1B33 JUMP JUMPDEST PUSH1 0x1 PUSH1 0x1 PUSH1 0xA0 SHL SUB AND PUSH1 0x0 DUP2 DUP2 MSTORE PUSH1 0x9 PUSH1 0x20 MSTORE DUP3 SWAP1 KECCAK256 SLOAD SWAP1 SWAP3 SWAP1 PUSH1 0xFF AND ISZERO PUSH2 0xF5D JUMPI POP DUP2 PUSH1 0x0 MSTORE PUSH1 0x9 PUSH1 0x20 MSTORE PUSH1 0x0 KECCAK256 PUSH1 0xFF NOT DUP2 SLOAD AND SWAP1 SSTORE PUSH32 0xAF66545C919A3BE306EE446D8F42A9558B5B022620DF880517BC9593EC0F2D52 PUSH1 0x0 DUP1 LOG2 STOP JUMPDEST PUSH1 0x20 PUSH1 0x84 SWAP3 MLOAD SWAP2 PUSH3 0x461BCD PUSH1 0xE5 SHL DUP4 MSTORE DUP3 ADD MSTORE PUSH1 0x25 PUSH1 0x24 DUP3 ADD MSTORE PUSH32 0x45445543657274696669636174653A20697373756572206E6F7420617574686F PUSH1 0x44 DUP3 ADD MSTORE PUSH5 0x1C9A5E9959 PUSH1 0xDA SHL PUSH1 0x64 DUP3 ADD MSTORE REVERT JUMPDEST DUP3 CALLVALUE PUSH2 0x1E2 JUMPI PUSH1 0x20 SWAP2 DUP3 PUSH1 0x3 NOT CALLDATASIZE ADD SLT PUSH2 0x1E2 JUMPI DUP1 CALLDATALOAD SWAP1 PUSH2 0xFD1 PUSH2 0x536 DUP4 CALLER PUSH2 0x1D8E JUMP JUMPDEST PUSH2 0xFDA DUP3 PUSH2 0x1C51 JUMP JUMPDEST PUSH2 0xFE2 PUSH2 0x2E29 JUMP JUMPDEST PUSH1 0x1 PUSH1 0x1 PUSH1 0xA0 SHL SUB SWAP1 DUP2 AND ISZERO DUP1 ISZERO PUSH2 0x112E JUMPI JUMPDEST ISZERO PUSH2 0x10D1 JUMPI DUP3 SWAP2 PUSH1 0x0 SWAP2 PUSH2 0x1008 DUP5 PUSH2 0x1C51 JUMP JUMPDEST SWAP2 DUP5 DUP5 MSTORE DUP8 MSTORE DUP6 DUP4 KECCAK256 SWAP2 PUSH1 0x1 PUSH1 0x1 PUSH1 0x60 SHL SUB PUSH1 0xA0 SHL SWAP3 DUP4 DUP2 SLOAD AND SWAP1 SSTORE AND SWAP1 DUP2 DUP4 MSTORE PUSH1 0x3 DUP8 MSTORE DUP6 DUP4 KECCAK256 DUP4 NOT DUP2 SLOAD ADD SWAP1 SSTORE DUP4 DUP4 MSTORE PUSH1 0x2 DUP8 MSTORE DUP6 DUP4 KECCAK256 SWAP1 DUP2 SLOAD AND SWAP1 SSTORE PUSH32 0xDDF252AD1BE2C89B69C2B068FC378DAA952BA7F163C4A11628F55A4DF523B3EF DUP3 DUP1 LOG4 PUSH1 0x6 DUP4 MSTORE PUSH2 0x107C DUP3 PUSH1 0x0 KECCAK256 SLOAD PUSH2 0x1928 JUMP JUMPDEST PUSH2 0x1082 JUMPI STOP JUMPDEST PUSH1 0x0 MSTORE PUSH1 0x6 DUP3 MSTORE PUSH1 0x0 KECCAK256 PUSH2 0x1096 DUP2 SLOAD PUSH2 0x1928 JUMP JUMPDEST DUP1 PUSH2 0x109D JUMPI STOP JUMPDEST PUSH1 0x0 SWAP3 PUSH1 0x1F DUP3 GT PUSH1 0x1 EQ PUSH2 0x10B0 JUMPI POP POP SSTORE STOP JUMPDEST DUP3 DUP5 MSTORE DUP4 KECCAK256 SWAP2 DUP4 SWAP2 PUSH2 0x10CD SWAP1 PUSH1 0x1F ADD PUSH1 0x5 SHR DUP5 ADD PUSH1 0x1 DUP6 ADD PUSH2 0x21F6 JUMP JUMPDEST SSTORE SSTORE STOP JUMPDEST DUP4 MLOAD PUSH3 0x461BCD PUSH1 0xE5 SHL DUP2 MSTORE DUP1 DUP4 ADD DUP7 SWAP1 MSTORE PUSH1 0x31 PUSH1 0x24 DUP3 ADD MSTORE PUSH32 0x45445543657274696669636174653A2063657274696669636174657320617265 PUSH1 0x44 DUP3 ADD MSTORE PUSH17 0x206E6F6E2D7472616E7366657261626C65 PUSH1 0x78 SHL PUSH1 0x64 DUP3 ADD MSTORE PUSH1 0x84 SWAP1 REVERT JUMPDEST POP PUSH1 0x1 PUSH2 0xFF5 JUMP JUMPDEST DUP3 CALLVALUE PUSH2 0x1E2 JUMPI PUSH2 0x54B PUSH2 0x550 SWAP2 PUSH2 0x114C CALLDATASIZE PUSH2 0x1883 JUMP JUMPDEST SWAP2 SWAP3 MLOAD SWAP3 PUSH2 0x1159 DUP5 PUSH2 0x1994 JUMP JUMPDEST PUSH1 0x0 DUP5 MSTORE PUSH2 0x53B PUSH2 0x536 DUP5 CALLER PUSH2 0x1D8E JUMP JUMPDEST SWAP1 POP CALLVALUE PUSH2 0x1E2 JUMPI PUSH1 0x0 CALLDATASIZE PUSH1 0x3 NOT ADD SLT PUSH2 0x1E2 JUMPI PUSH2 0x1185 PUSH2 0x1B33 JUMP JUMPDEST PUSH1 0x7 SLOAD SWAP1 PUSH1 0xFF DUP3 AND ISZERO PUSH2 0x11C5 JUMPI PUSH32 0x5DB9EE0A495BF2E6FF9C91A7834C1BA4FDD244A5E8AA4E537BD38AEAE4B073AA PUSH1 0x20 DUP5 DUP5 PUSH1 0xFF NOT AND PUSH1 0x7 SSTORE MLOAD CALLER DUP2 MSTORE LOG1 STOP JUMPDEST PUSH1 0x64 SWAP1 PUSH1 0x20 DUP5 MLOAD SWAP2 PUSH3 0x461BCD PUSH1 0xE5 SHL DUP4 MSTORE DUP3 ADD MSTORE PUSH1 0x14 PUSH1 0x24 DUP3 ADD MSTORE PUSH20 0x14185D5CD8589B194E881B9BDD081C185D5CD959 PUSH1 0x62 SHL PUSH1 0x44 DUP3 ADD MSTORE REVERT JUMPDEST DUP3 CALLVALUE PUSH2 0x1E2 JUMPI PUSH1 0x20 SWAP1 DUP2 PUSH2 0x1212 CALLDATASIZE PUSH2 0x18E5 JUMP JUMPDEST SWAP3 SWAP2 PUSH1 0x1 DUP1 PUSH1 0xA0 SHL SUB AND PUSH1 0x0 MSTORE PUSH1 0xB DUP3 MSTORE DUP4 PUSH1 0x0 KECCAK256 DUP4 DUP6 MLOAD SWAP5 DUP6 SWAP4 DUP5 CALLDATACOPY DUP3 ADD SWAP1 DUP2 MSTORE SUB ADD SWAP1 KECCAK256 SLOAD SWAP1 DUP2 ISZERO ISZERO SWAP2 DUP3 PUSH2 0x126F JUMPI JUMPDEST DUP3 PUSH2 0x1253 JUMPI JUMPDEST POP MLOAD SWAP1 ISZERO ISZERO DUP2 MSTORE RETURN JUMPDEST SWAP1 SWAP2 POP PUSH1 0x0 MSTORE PUSH1 0xA DUP3 MSTORE PUSH1 0xFF PUSH1 0x7 DUP3 PUSH1 0x0 KECCAK256 ADD SLOAD AND SWAP1 DUP4 PUSH2 0x124A JUMP JUMPDEST PUSH1 0x0 DUP2 DUP2 MSTORE PUSH1 0x2 PUSH1 0x20 MSTORE PUSH1 0x40 SWAP1 KECCAK256 SLOAD PUSH1 0x1 PUSH1 0x1 PUSH1 0xA0 SHL SUB AND ISZERO ISZERO SWAP3 POP PUSH2 0x1244 JUMP JUMPDEST CALLVALUE PUSH2 0x1E2 JUMPI PUSH2 0x550 PUSH2 0x12A1 CALLDATASIZE PUSH2 0x1883 JUMP JUMPDEST SWAP2 PUSH2 0x12AF PUSH2 0x536 DUP5 CALLER PUSH2 0x1D8E JUMP JUMPDEST PUSH2 0x1E56 JUMP JUMPDEST DUP3 CALLVALUE PUSH2 0x1E2 JUMPI PUSH1 0x20 CALLDATASIZE PUSH1 0x3 NOT ADD SLT PUSH2 0x1E2 JUMPI PUSH2 0x12CE PUSH2 0x1857 JUMP JUMPDEST PUSH2 0x12D6 PUSH2 0x1B33 JUMP JUMPDEST PUSH1 0x1 PUSH1 0x1 PUSH1 0xA0 SHL SUB AND SWAP2 DUP3 ISZERO PUSH2 0x138E JUMPI DUP3 PUSH1 0x0 MSTORE PUSH1 0x9 PUSH1 0x20 MSTORE PUSH1 0xFF DUP3 PUSH1 0x0 KECCAK256 SLOAD AND PUSH2 0x133A JUMPI POP DUP2 PUSH1 0x0 MSTORE PUSH1 0x9 PUSH1 0x20 MSTORE PUSH1 0x0 KECCAK256 PUSH1 0x1 PUSH1 0xFF NOT DUP3 SLOAD AND OR SWAP1 SSTORE PUSH32 0x5E7C881D716BEE8CB7ED92293133BA156704252439E5C502C277448F04E20C2 PUSH1 0x0 DUP1 LOG2 STOP JUMPDEST PUSH1 0x20 PUSH1 0x84 SWAP3 MLOAD SWAP2 PUSH3 0x461BCD PUSH1 0xE5 SHL DUP4 MSTORE DUP3 ADD MSTORE PUSH1 0x29 PUSH1 0x24 DUP3 ADD MSTORE PUSH32 0x45445543657274696669636174653A2069737375657220616C72656164792061 PUSH1 0x44 DUP3 ADD MSTORE PUSH9 0x1D5D1A1BDC9A5E9959 PUSH1 0xBA SHL PUSH1 0x64 DUP3 ADD MSTORE REVERT JUMPDEST PUSH1 0x20 PUSH1 0x84 SWAP3 MLOAD SWAP2 PUSH3 0x461BCD PUSH1 0xE5 SHL DUP4 MSTORE DUP3 ADD MSTORE PUSH1 0x2D PUSH1 0x24 DUP3 ADD MSTORE PUSH32 0x45445543657274696669636174653A206973737565722063616E6E6F74206265 PUSH1 0x44 DUP3 ADD MSTORE PUSH13 0x207A65726F2061646472657373 PUSH1 0x98 SHL PUSH1 0x64 DUP3 ADD MSTORE REVERT JUMPDEST DUP3 CALLVALUE PUSH2 0x1E2 JUMPI PUSH1 0x0 CALLDATASIZE PUSH1 0x3 NOT ADD SLT PUSH2 0x1E2 JUMPI PUSH1 0x8 SLOAD PUSH1 0x0 NOT DUP2 ADD SWAP2 SWAP1 DUP3 GT PUSH2 0x1412 JUMPI PUSH1 0x20 SWAP3 POP MLOAD SWAP1 DUP2 MSTORE RETURN JUMPDEST PUSH1 0x11 DUP4 PUSH4 0x4E487B71 PUSH1 0xE0 SHL PUSH1 0x0 MSTORE MSTORE PUSH1 0x24 PUSH1 0x0 REVERT JUMPDEST DUP3 CALLVALUE PUSH2 0x1E2 JUMPI PUSH1 0x20 CALLDATASIZE PUSH1 0x3 NOT ADD SLT PUSH2 0x1E2 JUMPI DUP2 CALLDATALOAD PUSH1 0x0 DUP2 DUP2 MSTORE PUSH1 0x2 PUSH1 0x20 MSTORE PUSH1 0x40 SWAP1 KECCAK256 SLOAD PUSH2 0x145E SWAP1 PUSH1 0x1 PUSH1 0x1 PUSH1 0xA0 SHL SUB AND ISZERO ISZERO PUSH2 0x2DCA JUMP JUMPDEST PUSH1 0x0 MSTORE PUSH1 0xA PUSH1 0x20 MSTORE PUSH2 0x30A DUP2 PUSH1 0x0 KECCAK256 SWAP3 DUP3 MLOAD SWAP3 PUSH2 0x147A DUP5 PUSH2 0x1962 JUMP JUMPDEST PUSH2 0x1483 DUP6 PUSH2 0x19D0 JUMP JUMPDEST DUP5 MSTORE PUSH2 0x1491 PUSH1 0x1 DUP7 ADD PUSH2 0x19D0 JUMP JUMPDEST SWAP5 PUSH1 0x20 DUP6 ADD SWAP6 DUP7 MSTORE PUSH2 0x1537 PUSH1 0x1 DUP1 PUSH1 0xA0 SHL SUB SWAP4 PUSH2 0x1529 DUP6 PUSH1 0x2 DUP6 ADD SLOAD AND SWAP8 DUP6 DUP2 ADD SWAP9 DUP10 MSTORE PUSH1 0xE0 PUSH1 0x3 DUP7 ADD SLOAD SWAP4 PUSH1 0x60 DUP4 ADD SWAP5 DUP6 MSTORE DUP7 ADD SLOAD SWAP8 PUSH1 0x80 DUP4 ADD SWAP9 DUP10 MSTORE PUSH1 0xFF PUSH1 0x7 PUSH2 0x14DF PUSH1 0x5 DUP11 ADD PUSH2 0x19D0 JUMP JUMPDEST SWAP9 PUSH1 0xA0 DUP7 ADD SWAP10 DUP11 MSTORE PUSH2 0x14F3 PUSH1 0x6 DUP3 ADD PUSH2 0x19D0 JUMP JUMPDEST PUSH1 0xC0 DUP8 ADD MSTORE ADD SLOAD AND ISZERO ISZERO SWAP11 DUP12 DUP4 DUP6 ADD MSTORE MLOAD AND SWAP11 MLOAD SWAP2 MLOAD SWAP4 MLOAD SWAP8 MLOAD SWAP6 MLOAD SWAP7 DUP1 MLOAD SWAP12 DUP13 SWAP12 DUP13 MSTORE PUSH1 0x20 DUP13 ADD MSTORE DUP11 ADD MSTORE PUSH1 0xE0 DUP10 ADD SWAP1 PUSH2 0x1832 JUMP JUMPDEST SWAP1 DUP8 DUP3 SUB PUSH1 0x60 DUP10 ADD MSTORE PUSH2 0x1832 JUMP JUMPDEST SWAP3 PUSH1 0x80 DUP7 ADD MSTORE PUSH1 0xA0 DUP6 ADD MSTORE DUP4 DUP3 SUB PUSH1 0xC0 DUP6 ADD MSTORE PUSH2 0x1832 JUMP JUMPDEST SWAP1 POP CALLVALUE PUSH2 0x1E2 JUMPI DUP2 PUSH1 0x3 NOT CALLDATASIZE ADD SLT PUSH2 0x1E2 JUMPI PUSH2 0x1569 PUSH2 0x1857 JUMP JUMPDEST PUSH1 0x24 CALLDATALOAD SWAP3 SWAP1 SWAP2 PUSH1 0x1 PUSH1 0x1 PUSH1 0xA0 SHL SUB SWAP2 SWAP1 DUP3 DUP1 PUSH2 0x1584 DUP8 PUSH2 0x1C51 JUMP JUMPDEST AND SWAP5 AND SWAP4 DUP1 DUP6 EQ PUSH2 0x1678 JUMPI DUP1 CALLER EQ SWAP1 DUP2 ISZERO PUSH2 0x1655 JUMPI JUMPDEST POP ISZERO PUSH2 0x15ED JUMPI DUP5 PUSH1 0x0 MSTORE PUSH1 0x20 MSTORE PUSH1 0x0 KECCAK256 DUP3 PUSH1 0x1 PUSH1 0x1 PUSH1 0x60 SHL SUB PUSH1 0xA0 SHL DUP3 SLOAD AND OR SWAP1 SSTORE PUSH2 0x15C5 DUP4 PUSH2 0x1C51 JUMP JUMPDEST AND PUSH32 0x8C5BE1E5EBEC7D5BD14F71427D1E84F3DD0314C0F7B2291E5B200AC8C7C3B925 PUSH1 0x0 DUP1 LOG4 STOP JUMPDEST PUSH1 0x20 PUSH1 0x84 SWAP3 MLOAD SWAP2 PUSH3 0x461BCD PUSH1 0xE5 SHL DUP4 MSTORE DUP3 ADD MSTORE PUSH1 0x3D PUSH1 0x24 DUP3 ADD MSTORE PUSH32 0x4552433732313A20617070726F76652063616C6C6572206973206E6F7420746F PUSH1 0x44 DUP3 ADD MSTORE PUSH32 0x6B656E206F776E6572206F7220617070726F76656420666F7220616C6C000000 PUSH1 0x64 DUP3 ADD MSTORE REVERT JUMPDEST SWAP1 POP PUSH1 0x0 MSTORE PUSH1 0x5 PUSH1 0x20 MSTORE DUP2 PUSH1 0x0 KECCAK256 CALLER PUSH1 0x0 MSTORE PUSH1 0x20 MSTORE PUSH1 0xFF DUP3 PUSH1 0x0 KECCAK256 SLOAD AND CODESIZE PUSH2 0x159A JUMP JUMPDEST POP PUSH1 0x20 PUSH1 0x84 SWAP3 MLOAD SWAP2 PUSH3 0x461BCD PUSH1 0xE5 SHL DUP4 MSTORE DUP3 ADD MSTORE PUSH1 0x21 PUSH1 0x24 DUP3 ADD MSTORE PUSH32 0x4552433732313A20617070726F76616C20746F2063757272656E74206F776E65 PUSH1 0x44 DUP3 ADD MSTORE PUSH1 0x39 PUSH1 0xF9 SHL PUSH1 0x64 DUP3 ADD MSTORE REVERT JUMPDEST DUP3 CALLVALUE PUSH2 0x1E2 JUMPI PUSH1 0x20 CALLDATASIZE PUSH1 0x3 NOT ADD SLT PUSH2 0x1E2 JUMPI PUSH2 0xDA1 PUSH1 0x20 SWAP3 CALLDATALOAD PUSH2 0x1C77 JUMP JUMPDEST DUP3 CALLVALUE PUSH2 0x1E2 JUMPI PUSH1 0x0 CALLDATASIZE PUSH1 0x3 NOT ADD SLT PUSH2 0x1E2 JUMPI DUP1 MLOAD PUSH1 0x0 SWAP2 PUSH1 0x0 SLOAD PUSH2 0x1706 DUP2 PUSH2 0x1928 JUMP JUMPDEST DUP1 DUP5 MSTORE SWAP1 PUSH1 0x1 SWAP1 DUP2 DUP2 AND SWAP1 DUP2 ISZERO PUSH2 0xB0C JUMPI POP PUSH1 0x1 EQ PUSH2 0x1730 JUMPI POP POP PUSH2 0xA9F DUP3 PUSH2 0x30A SWAP5 SUB DUP4 PUSH2 0x19AF JUMP JUMPDEST PUSH1 0x0 DUP1 DUP1 MSTORE SWAP5 POP PUSH32 0x290DECD9548B62A8D60345A988386FC84BA6BC95484008F6362F93160EF3E563 JUMPDEST DUP3 DUP7 LT PUSH2 0x1773 JUMPI POP POP POP SWAP2 DUP2 ADD PUSH1 0x20 ADD SWAP2 PUSH2 0xA9F DUP3 PUSH2 0xA8E JUMP JUMPDEST DUP1 SLOAD PUSH1 0x20 DUP8 DUP8 ADD DUP2 ADD SWAP2 SWAP1 SWAP2 MSTORE SWAP1 SWAP6 ADD SWAP5 DUP2 ADD PUSH2 0x1759 JUMP JUMPDEST SWAP1 CALLVALUE PUSH2 0x1E2 JUMPI PUSH1 0x20 CALLDATASIZE PUSH1 0x3 NOT ADD SLT PUSH2 0x1E2 JUMPI CALLDATALOAD SWAP1 PUSH4 0xFFFFFFFF PUSH1 0xE0 SHL DUP3 AND DUP1 SWAP3 SUB PUSH2 0x1E2 JUMPI PUSH1 0x20 SWAP2 PUSH4 0x24832483 PUSH1 0xE1 SHL DUP2 EQ SWAP1 DUP2 ISZERO PUSH2 0x17CC JUMPI JUMPDEST POP ISZERO ISZERO DUP2 MSTORE RETURN JUMPDEST PUSH4 0x80AC58CD PUSH1 0xE0 SHL DUP2 EQ SWAP2 POP DUP2 ISZERO PUSH2 0x17FE JUMPI JUMPDEST DUP2 ISZERO PUSH2 0x17ED JUMPI JUMPDEST POP DUP4 PUSH2 0x17C5 JUMP JUMPDEST PUSH4 0x1FFC9A7 PUSH1 0xE0 SHL EQ SWAP1 POP DUP4 PUSH2 0x17E6 JUMP JUMPDEST PUSH4 0x5B5E139F PUSH1 0xE0 SHL DUP2 EQ SWAP2 POP PUSH2 0x17DF JUMP JUMPDEST PUSH1 0x0 JUMPDEST DUP4 DUP2 LT PUSH2 0x1822 JUMPI POP POP PUSH1 0x0 SWAP2 ADD MSTORE JUMP JUMPDEST DUP2 DUP2 ADD MLOAD DUP4 DUP3 ADD MSTORE PUSH1 0x20 ADD PUSH2 0x1812 JUMP JUMPDEST SWAP1 PUSH1 0x20 SWAP2 PUSH2 0x184B DUP2 MLOAD DUP1 SWAP3 DUP2 DUP6 MSTORE DUP6 DUP1 DUP7 ADD SWAP2 ADD PUSH2 0x180F JUMP JUMPDEST PUSH1 0x1F ADD PUSH1 0x1F NOT AND ADD ADD SWAP1 JUMP JUMPDEST PUSH1 0x4 CALLDATALOAD SWAP1 PUSH1 0x1 PUSH1 0x1 PUSH1 0xA0 SHL SUB DUP3 AND DUP3 SUB PUSH2 0x1E2 JUMPI JUMP JUMPDEST PUSH1 0x24 CALLDATALOAD SWAP1 PUSH1 0x1 PUSH1 0x1 PUSH1 0xA0 SHL SUB DUP3 AND DUP3 SUB PUSH2 0x1E2 JUMPI JUMP JUMPDEST PUSH1 0x60 SWAP1 PUSH1 0x3 NOT ADD SLT PUSH2 0x1E2 JUMPI PUSH1 0x1 PUSH1 0x1 PUSH1 0xA0 SHL SUB SWAP1 PUSH1 0x4 CALLDATALOAD DUP3 DUP2 AND DUP2 SUB PUSH2 0x1E2 JUMPI SWAP2 PUSH1 0x24 CALLDATALOAD SWAP1 DUP2 AND DUP2 SUB PUSH2 0x1E2 JUMPI SWAP1 PUSH1 0x44 CALLDATALOAD SWAP1 JUMP JUMPDEST SWAP2 DUP2 PUSH1 0x1F DUP5 ADD SLT ISZERO PUSH2 0x1E2 JUMPI DUP3 CALLDATALOAD SWAP2 PUSH1 0x1 PUSH1 0x1 PUSH1 0x40 SHL SUB DUP4 GT PUSH2 0x1E2 JUMPI PUSH1 0x20 DUP4 DUP2 DUP7 ADD SWAP6 ADD ADD GT PUSH2 0x1E2 JUMPI JUMP JUMPDEST SWAP1 PUSH1 0x40 PUSH1 0x3 NOT DUP4 ADD SLT PUSH2 0x1E2 JUMPI PUSH1 0x4 CALLDATALOAD PUSH1 0x1 PUSH1 0x1 PUSH1 0xA0 SHL SUB DUP2 AND DUP2 SUB PUSH2 0x1E2 JUMPI SWAP2 PUSH1 0x24 CALLDATALOAD SWAP1 PUSH1 0x1 PUSH1 0x1 PUSH1 0x40 SHL SUB DUP3 GT PUSH2 0x1E2 JUMPI PUSH2 0x1924 SWAP2 PUSH1 0x4 ADD PUSH2 0x18B8 JUMP JUMPDEST SWAP1 SWAP2 JUMP JUMPDEST SWAP1 PUSH1 0x1 DUP3 DUP2 SHR SWAP3 AND DUP1 ISZERO PUSH2 0x1958 JUMPI JUMPDEST PUSH1 0x20 DUP4 LT EQ PUSH2 0x1942 JUMPI JUMP JUMPDEST PUSH4 0x4E487B71 PUSH1 0xE0 SHL PUSH1 0x0 MSTORE PUSH1 0x22 PUSH1 0x4 MSTORE PUSH1 0x24 PUSH1 0x0 REVERT JUMPDEST SWAP2 PUSH1 0x7F AND SWAP2 PUSH2 0x1937 JUMP JUMPDEST PUSH2 0x100 DUP2 ADD SWAP1 DUP2 LT PUSH1 0x1 PUSH1 0x1 PUSH1 0x40 SHL SUB DUP3 GT OR PUSH2 0x197E JUMPI PUSH1 0x40 MSTORE JUMP JUMPDEST PUSH4 0x4E487B71 PUSH1 0xE0 SHL PUSH1 0x0 MSTORE PUSH1 0x41 PUSH1 0x4 MSTORE PUSH1 0x24 PUSH1 0x0 REVERT JUMPDEST PUSH1 0x20 DUP2 ADD SWAP1 DUP2 LT PUSH1 0x1 PUSH1 0x1 PUSH1 0x40 SHL SUB DUP3 GT OR PUSH2 0x197E JUMPI PUSH1 0x40 MSTORE JUMP JUMPDEST SWAP1 PUSH1 0x1F DUP1 NOT SWAP2 ADD AND DUP2 ADD SWAP1 DUP2 LT PUSH1 0x1 PUSH1 0x1 PUSH1 0x40 SHL SUB DUP3 GT OR PUSH2 0x197E JUMPI PUSH1 0x40 MSTORE JUMP JUMPDEST SWAP1 PUSH1 0x40 MLOAD SWAP2 DUP3 PUSH1 0x0 DUP3 SLOAD SWAP3 PUSH2 0x19E4 DUP5 PUSH2 0x1928 JUMP JUMPDEST SWAP1 DUP2 DUP5 MSTORE PUSH1 0x1 SWAP5 DUP6 DUP2 AND SWAP1 DUP2 PUSH1 0x0 EQ PUSH2 0x1A53 JUMPI POP PUSH1 0x1 EQ PUSH2 0x1A10 JUMPI JUMPDEST POP POP PUSH2 0x1A0E SWAP3 POP SUB DUP4 PUSH2 0x19AF JUMP JUMPDEST JUMP JUMPDEST SWAP1 SWAP4 SWAP2 POP PUSH1 0x0 MSTORE PUSH1 0x20 SWAP1 DUP2 PUSH1 0x0 KECCAK256 SWAP4 PUSH1 0x0 SWAP2 JUMPDEST DUP2 DUP4 LT PUSH2 0x1A3B JUMPI POP POP PUSH2 0x1A0E SWAP4 POP DUP3 ADD ADD CODESIZE DUP1 PUSH2 0x1A00 JUMP JUMPDEST DUP6 SLOAD DUP9 DUP5 ADD DUP6 ADD MSTORE SWAP5 DUP6 ADD SWAP5 DUP8 SWAP5 POP SWAP2 DUP4 ADD SWAP2 PUSH2 0x1A23 JUMP JUMPDEST SWAP2 POP POP PUSH2 0x1A0E SWAP5 POP PUSH1 0x20 SWAP3 POP PUSH1 0xFF NOT AND DUP3 DUP5 ADD MSTORE ISZERO ISZERO PUSH1 0x5 SHL DUP3 ADD ADD CODESIZE DUP1 PUSH2 0x1A00 JUMP JUMPDEST SWAP2 DUP2 PUSH1 0x1F DUP5 ADD SLT ISZERO PUSH2 0x1E2 JUMPI DUP3 CALLDATALOAD SWAP2 PUSH1 0x1 PUSH1 0x1 PUSH1 0x40 SHL SUB DUP4 GT PUSH2 0x1E2 JUMPI PUSH1 0x20 DUP1 DUP6 ADD SWAP5 DUP5 PUSH1 0x5 SHL ADD ADD GT PUSH2 0x1E2 JUMPI JUMP JUMPDEST PUSH1 0x20 SWAP1 DUP2 PUSH1 0x40 DUP2 DUP4 ADD SWAP3 DUP3 DUP2 MSTORE DUP6 MLOAD DUP1 SWAP5 MSTORE ADD SWAP4 ADD SWAP2 PUSH1 0x0 JUMPDEST DUP3 DUP2 LT PUSH2 0x1ACD JUMPI POP POP POP POP SWAP1 JUMP JUMPDEST DUP4 MLOAD DUP6 MSTORE SWAP4 DUP2 ADD SWAP4 SWAP3 DUP2 ADD SWAP3 PUSH1 0x1 ADD PUSH2 0x1ABF JUMP JUMPDEST PUSH1 0x1 PUSH1 0x1 PUSH1 0x40 SHL SUB DUP2 GT PUSH2 0x197E JUMPI PUSH1 0x1F ADD PUSH1 0x1F NOT AND PUSH1 0x20 ADD SWAP1 JUMP JUMPDEST SWAP3 SWAP2 SWAP3 PUSH2 0x1B08 DUP3 PUSH2 0x1AE1 JUMP JUMPDEST SWAP2 PUSH2 0x1B16 PUSH1 0x40 MLOAD SWAP4 DUP5 PUSH2 0x19AF JUMP JUMPDEST DUP3 SWAP5 DUP2 DUP5 MSTORE DUP2 DUP4 ADD GT PUSH2 0x1E2 JUMPI DUP3 DUP2 PUSH1 0x20 SWAP4 DUP5 PUSH1 0x0 SWAP7 ADD CALLDATACOPY ADD ADD MSTORE JUMP JUMPDEST PUSH1 0x7 SLOAD PUSH1 0x8 SHR PUSH1 0x1 PUSH1 0x1 PUSH1 0xA0 SHL SUB AND CALLER SUB PUSH2 0x1B4A JUMPI JUMP JUMPDEST PUSH1 0x64 PUSH1 0x40 MLOAD PUSH3 0x461BCD PUSH1 0xE5 SHL DUP2 MSTORE PUSH1 0x20 PUSH1 0x4 DUP3 ADD MSTORE PUSH1 0x20 PUSH1 0x24 DUP3 ADD MSTORE PUSH32 0x4F776E61626C653A2063616C6C6572206973206E6F7420746865206F776E6572 PUSH1 0x44 DUP3 ADD MSTORE REVERT JUMPDEST PUSH1 0x1 PUSH1 0x1 PUSH1 0xA0 SHL SUB AND DUP1 ISZERO PUSH2 0x1BAE JUMPI PUSH1 0x0 MSTORE PUSH1 0x3 PUSH1 0x20 MSTORE PUSH1 0x40 PUSH1 0x0 KECCAK256 SLOAD SWAP1 JUMP JUMPDEST PUSH1 0x40 MLOAD PUSH3 0x461BCD PUSH1 0xE5 SHL DUP2 MSTORE PUSH1 0x20 PUSH1 0x4 DUP3 ADD MSTORE PUSH1 0x29 PUSH1 0x24 DUP3 ADD MSTORE PUSH32 0x4552433732313A2061646472657373207A65726F206973206E6F742061207661 PUSH1 0x44 DUP3 ADD MSTORE PUSH9 0x3634B21037BBB732B9 PUSH1 0xB9 SHL PUSH1 0x64 DUP3 ADD MSTORE PUSH1 0x84 SWAP1 REVERT JUMPDEST ISZERO PUSH2 0x1C0C JUMPI JUMP JUMPDEST PUSH1 0x40 MLOAD PUSH3 0x461BCD PUSH1 0xE5 SHL DUP2 MSTORE PUSH1 0x20 PUSH1 0x4 DUP3 ADD MSTORE PUSH1 0x18 PUSH1 0x24 DUP3 ADD MSTORE PUSH32 0x4552433732313A20696E76616C696420746F6B656E2049440000000000000000 PUSH1 0x44 DUP3 ADD MSTORE PUSH1 0x64 SWAP1 REVERT JUMPDEST PUSH1 0x0 SWAP1 DUP2 MSTORE PUSH1 0x2 PUSH1 0x20 MSTORE PUSH1 0x40 SWAP1 KECCAK256 SLOAD PUSH1 0x1 PUSH1 0x1 PUSH1 0xA0 SHL SUB AND PUSH2 0x1C74 DUP2 ISZERO ISZERO PUSH2 0x1C05 JUMP JUMPDEST SWAP1 JUMP JUMPDEST PUSH1 0x0 DUP2 DUP2 MSTORE PUSH1 0x2 PUSH1 0x20 MSTORE PUSH1 0x40 SWAP1 KECCAK256 SLOAD PUSH2 0x1C9A SWAP1 PUSH1 0x1 PUSH1 0x1 PUSH1 0xA0 SHL SUB AND ISZERO ISZERO PUSH2 0x1C05 JUMP JUMPDEST PUSH1 0x0 SWAP1 DUP2 MSTORE PUSH1 0x4 PUSH1 0x20 MSTORE PUSH1 0x40 SWAP1 KECCAK256 SLOAD PUSH1 0x1 PUSH1 0x1 PUSH1 0xA0 SHL SUB AND SWAP1 JUMP JUMPDEST ISZERO PUSH2 0x1CBC JUMPI JUMP JUMPDEST PUSH1 0x40 MLOAD PUSH3 0x461BCD PUSH1 0xE5 SHL DUP2 MSTORE PUSH1 0x20 PUSH1 0x4 DUP3 ADD MSTORE PUSH1 0x2D PUSH1 0x24 DUP3 ADD MSTORE PUSH32 0x4552433732313A2063616C6C6572206973206E6F7420746F6B656E206F776E65 PUSH1 0x44 DUP3 ADD MSTORE PUSH13 0x1C881BDC88185C1C1C9BDD9959 PUSH1 0x9A SHL PUSH1 0x64 DUP3 ADD MSTORE PUSH1 0x84 SWAP1 REVERT JUMPDEST PUSH1 0x80 SWAP1 PUSH1 0x20 DUP2 MSTORE PUSH1 0x32 PUSH1 0x20 DUP3 ADD MSTORE PUSH32 0x4552433732313A207472616E7366657220746F206E6F6E204552433732315265 PUSH1 0x40 DUP3 ADD MSTORE PUSH18 0x31B2B4BB32B91034B6B83632B6B2B73A32B9 PUSH1 0x71 SHL PUSH1 0x60 DUP3 ADD MSTORE ADD SWAP1 JUMP JUMPDEST ISZERO PUSH2 0x1D71 JUMPI JUMP JUMPDEST PUSH1 0x40 MLOAD PUSH3 0x461BCD PUSH1 0xE5 SHL DUP2 MSTORE DUP1 PUSH2 0x1D8A PUSH1 0x4 DUP3 ADD PUSH2 0x1D17 JUMP JUMPDEST SUB SWAP1 REVERT JUMPDEST SWAP1 PUSH1 0x1 PUSH1 0x1 PUSH1 0xA0 SHL SUB DUP1 DUP1 PUSH2 0x1DA2 DUP5 PUSH2 0x1C51 JUMP JUMPDEST AND SWAP4 AND SWAP2 DUP4 DUP4 EQ SWAP4 DUP5 ISZERO PUSH2 0x1DD5 JUMPI JUMPDEST POP DUP4 ISZERO PUSH2 0x1DBF JUMPI JUMPDEST POP POP POP SWAP1 JUMP JUMPDEST PUSH2 0x1DCB SWAP2 SWAP3 SWAP4 POP PUSH2 0x1C77 JUMP JUMPDEST AND EQ CODESIZE DUP1 DUP1 PUSH2 0x1DB9 JUMP JUMPDEST SWAP1 SWAP4 POP PUSH1 0x0 MSTORE PUSH1 0x5 PUSH1 0x20 MSTORE PUSH1 0x40 PUSH1 0x0 KECCAK256 DUP3 PUSH1 0x0 MSTORE PUSH1 0x20 MSTORE PUSH1 0xFF PUSH1 0x40 PUSH1 0x0 KECCAK256 SLOAD AND SWAP3 CODESIZE PUSH2 0x1DB1 JUMP JUMPDEST ISZERO PUSH2 0x1E03 JUMPI JUMP JUMPDEST PUSH1 0x40 MLOAD PUSH3 0x461BCD PUSH1 0xE5 SHL DUP2 MSTORE PUSH1 0x20 PUSH1 0x4 DUP3 ADD MSTORE PUSH1 0x25 PUSH1 0x24 DUP3 ADD MSTORE PUSH32 0x4552433732313A207472616E736665722066726F6D20696E636F727265637420 PUSH1 0x44 DUP3 ADD MSTORE PUSH5 0x37BBB732B9 PUSH1 0xD9 SHL PUSH1 0x64 DUP3 ADD MSTORE PUSH1 0x84 SWAP1 REVERT JUMPDEST SWAP1 PUSH2 0x1E7E SWAP2 PUSH2 0x1E64 DUP5 PUSH2 0x1C51 JUMP JUMPDEST PUSH1 0x1 PUSH1 0x1 PUSH1 0xA0 SHL SUB SWAP4 SWAP2 DUP5 AND SWAP3 DUP5 SWAP3 SWAP1 SWAP2 DUP4 AND DUP5 EQ PUSH2 0x1DFC JUMP JUMPDEST AND SWAP2 DUP3 ISZERO PUSH2 0x1F93 JUMPI PUSH2 0x1E8E PUSH2 0x2E29 JUMP JUMPDEST DUP2 ISZERO DUP1 ISZERO PUSH2 0x1F8B JUMPI JUMPDEST ISZERO PUSH2 0x1F2C JUMPI DUP2 PUSH2 0x1EB1 SWAP2 PUSH2 0x1EAA DUP7 PUSH2 0x1C51 JUMP JUMPDEST AND EQ PUSH2 0x1DFC JUMP JUMPDEST PUSH32 0xDDF252AD1BE2C89B69C2B068FC378DAA952BA7F163C4A11628F55A4DF523B3EF PUSH1 0x0 DUP5 DUP2 MSTORE PUSH1 0x4 PUSH1 0x20 MSTORE PUSH1 0x40 DUP2 KECCAK256 PUSH1 0x1 PUSH1 0x1 PUSH1 0x60 SHL SUB PUSH1 0xA0 SHL SWAP1 DUP2 DUP2 SLOAD AND SWAP1 SSTORE DUP4 DUP3 MSTORE PUSH1 0x3 PUSH1 0x20 MSTORE PUSH1 0x40 DUP3 KECCAK256 PUSH1 0x0 NOT DUP2 SLOAD ADD SWAP1 SSTORE DUP5 DUP3 MSTORE PUSH1 0x40 DUP3 KECCAK256 PUSH1 0x1 DUP2 SLOAD ADD SWAP1 SSTORE DUP6 DUP3 MSTORE PUSH1 0x2 PUSH1 0x20 MSTORE DUP5 PUSH1 0x40 DUP4 KECCAK256 SWAP2 DUP3 SLOAD AND OR SWAP1 SSTORE DUP1 LOG4 JUMP JUMPDEST PUSH1 0x40 MLOAD PUSH3 0x461BCD PUSH1 0xE5 SHL DUP2 MSTORE PUSH1 0x20 PUSH1 0x4 DUP3 ADD MSTORE PUSH1 0x31 PUSH1 0x24 DUP3 ADD MSTORE PUSH32 0x45445543657274696669636174653A2063657274696669636174657320617265 PUSH1 0x44 DUP3 ADD MSTORE PUSH17 0x206E6F6E2D7472616E7366657261626C65 PUSH1 0x78 SHL PUSH1 0x64 DUP3 ADD MSTORE PUSH1 0x84 SWAP1 REVERT JUMPDEST POP PUSH1 0x0 PUSH2 0x1E97 JUMP JUMPDEST PUSH1 0x40 MLOAD PUSH3 0x461BCD PUSH1 0xE5 SHL DUP2 MSTORE PUSH1 0x20 PUSH1 0x4 DUP3 ADD MSTORE PUSH1 0x24 DUP1 DUP3 ADD MSTORE PUSH32 0x4552433732313A207472616E7366657220746F20746865207A65726F20616464 PUSH1 0x44 DUP3 ADD MSTORE PUSH4 0x72657373 PUSH1 0xE0 SHL PUSH1 0x64 DUP3 ADD MSTORE PUSH1 0x84 SWAP1 REVERT JUMPDEST SWAP2 SWAP3 PUSH1 0x0 SWAP3 SWAP1 SWAP2 SWAP1 DUP1 EXTCODESIZE ISZERO PUSH2 0x20FA JUMPI PUSH2 0x2032 SWAP5 PUSH1 0x40 MLOAD DUP1 SWAP3 PUSH4 0xA85BD01 PUSH1 0xE1 SHL SWAP5 DUP6 DUP4 MSTORE CALLER PUSH1 0x4 DUP5 ADD MSTORE DUP8 PUSH1 0x24 DUP5 ADD MSTORE PUSH1 0x44 DUP4 ADD MSTORE PUSH1 0x80 PUSH1 0x64 DUP4 ADD MSTORE DUP2 DUP8 DUP2 PUSH1 0x20 SWAP11 DUP12 SWAP7 PUSH1 0x84 DUP4 ADD SWAP1 PUSH2 0x1832 JUMP JUMPDEST SUB SWAP3 PUSH1 0x1 PUSH1 0x1 PUSH1 0xA0 SHL SUB AND GAS CALL DUP5 SWAP2 DUP2 PUSH2 0x20B6 JUMPI JUMPDEST POP PUSH2 0x20A5 JUMPI POP POP POP RETURNDATASIZE PUSH1 0x0 EQ PUSH2 0x209D JUMPI RETURNDATASIZE PUSH2 0x2061 DUP2 PUSH2 0x1AE1 JUMP JUMPDEST SWAP1 PUSH2 0x206F PUSH1 0x40 MLOAD SWAP3 DUP4 PUSH2 0x19AF JUMP JUMPDEST DUP2 MSTORE DUP1 SWAP2 DUP4 RETURNDATASIZE SWAP3 ADD RETURNDATACOPY JUMPDEST DUP1 MLOAD SWAP2 DUP3 PUSH2 0x209A JUMPI PUSH1 0x40 MLOAD PUSH3 0x461BCD PUSH1 0xE5 SHL DUP2 MSTORE DUP1 PUSH2 0x1D8A PUSH1 0x4 DUP3 ADD PUSH2 0x1D17 JUMP JUMPDEST ADD REVERT JUMPDEST POP PUSH1 0x60 PUSH2 0x2079 JUMP JUMPDEST PUSH1 0x1 PUSH1 0x1 PUSH1 0xE0 SHL SUB NOT AND EQ SWAP3 POP SWAP1 POP JUMP JUMPDEST SWAP1 SWAP2 POP DUP6 DUP2 DUP2 RETURNDATASIZE DUP4 GT PUSH2 0x20F3 JUMPI JUMPDEST PUSH2 0x20CE DUP2 DUP4 PUSH2 0x19AF JUMP JUMPDEST DUP2 ADD SUB SLT PUSH2 0x20EF JUMPI MLOAD PUSH1 0x1 PUSH1 0x1 PUSH1 0xE0 SHL SUB NOT DUP2 AND DUP2 SUB PUSH2 0x20EF JUMPI SWAP1 CODESIZE PUSH2 0x2047 JUMP JUMPDEST DUP5 DUP1 REVERT JUMPDEST POP RETURNDATASIZE PUSH2 0x20C4 JUMP JUMPDEST POP POP SWAP2 POP POP PUSH1 0x1 SWAP1 JUMP JUMPDEST SWAP3 SWAP4 PUSH1 0x0 SWAP4 SWAP1 SWAP3 SWAP2 DUP1 EXTCODESIZE ISZERO PUSH2 0x2184 JUMPI SWAP5 DUP5 SWAP2 PUSH2 0x215E SWAP7 PUSH1 0x40 MLOAD DUP1 SWAP5 DUP2 SWAP4 PUSH4 0xA85BD01 PUSH1 0xE1 SHL SWAP8 DUP9 DUP5 MSTORE CALLER PUSH1 0x4 DUP6 ADD MSTORE PUSH1 0x1 DUP1 PUSH1 0xA0 SHL SUB DUP1 SWAP3 AND PUSH1 0x24 DUP6 ADD MSTORE PUSH1 0x44 DUP5 ADD MSTORE PUSH1 0x80 PUSH1 0x64 DUP5 ADD MSTORE DUP3 PUSH1 0x20 SWAP12 DUP13 SWAP8 PUSH1 0x84 DUP4 ADD SWAP1 PUSH2 0x1832 JUMP JUMPDEST SUB SWAP4 AND GAS CALL DUP5 SWAP2 DUP2 PUSH2 0x20B6 JUMPI POP PUSH2 0x20A5 JUMPI POP POP POP RETURNDATASIZE PUSH1 0x0 EQ PUSH2 0x209D JUMPI RETURNDATASIZE PUSH2 0x2061 DUP2 PUSH2 0x1AE1 JUMP JUMPDEST POP POP POP SWAP2 POP POP PUSH1 0x1 SWAP1 JUMP JUMPDEST ISZERO PUSH2 0x2196 JUMPI JUMP JUMPDEST PUSH1 0x40 MLOAD PUSH3 0x461BCD PUSH1 0xE5 SHL DUP2 MSTORE PUSH1 0x20 PUSH1 0x4 DUP3 ADD MSTORE PUSH1 0x32 PUSH1 0x24 DUP3 ADD MSTORE PUSH32 0x45445543657274696669636174653A2063616C6C6572206973206E6F7420616E PUSH1 0x44 DUP3 ADD MSTORE PUSH18 0x1030BABA3437B934BD32B21034B9B9BAB2B9 PUSH1 0x71 SHL PUSH1 0x64 DUP3 ADD MSTORE PUSH1 0x84 SWAP1 REVERT JUMPDEST DUP2 DUP2 LT PUSH2 0x2201 JUMPI POP POP JUMP JUMPDEST PUSH1 0x0 DUP2 SSTORE PUSH1 0x1 ADD PUSH2 0x21F6 JUMP JUMPDEST SWAP3 SWAP5 SWAP1 SWAP3 SWAP2 SWAP1 PUSH1 0x1 PUSH1 0x1 PUSH1 0xA0 SHL SUB DUP4 AND ISZERO PUSH2 0x2BE0 JUMPI DUP4 MLOAD ISZERO PUSH2 0x2B8A JUMPI DUP2 MLOAD ISZERO PUSH2 0x2B32 JUMPI PUSH1 0x40 MLOAD PUSH1 0x20 DUP2 ADD SWAP1 PUSH1 0x1 PUSH1 0x1 PUSH1 0x60 SHL SUB NOT DUP6 PUSH1 0x60 SHL AND DUP3 MSTORE PUSH2 0x2270 PUSH1 0x34 DUP3 DUP9 MLOAD PUSH2 0x2260 DUP2 DUP5 DUP5 ADD PUSH1 0x20 DUP14 ADD PUSH2 0x180F JUMP JUMPDEST DUP2 ADD SUB PUSH1 0x14 DUP2 ADD DUP5 MSTORE ADD DUP3 PUSH2 0x19AF JUMP JUMPDEST MLOAD SWAP1 KECCAK256 SWAP1 DUP2 PUSH1 0x0 MSTORE PUSH1 0xC PUSH1 0x20 MSTORE PUSH1 0xFF PUSH1 0x40 PUSH1 0x0 KECCAK256 SLOAD AND PUSH2 0x2ADA JUMPI PUSH1 0x8 SLOAD SWAP8 PUSH1 0x1 DUP10 ADD PUSH1 0x8 SSTORE PUSH2 0x2364 PUSH2 0x54B PUSH1 0x40 MLOAD PUSH2 0x22A7 DUP2 PUSH2 0x1994 JUMP JUMPDEST PUSH1 0x0 DUP1 DUP3 MSTORE DUP13 DUP2 MSTORE PUSH1 0x2 PUSH1 0x20 MSTORE PUSH1 0x40 SWAP1 KECCAK256 SLOAD PUSH2 0x22CF SWAP1 PUSH1 0x1 PUSH1 0x1 PUSH1 0xA0 SHL SUB AND ISZERO ISZERO JUMPDEST ISZERO PUSH2 0x2C3A JUMP JUMPDEST PUSH2 0x22D7 PUSH2 0x2E29 JUMP JUMPDEST PUSH1 0x0 DUP13 DUP2 MSTORE PUSH1 0x2 PUSH1 0x20 MSTORE PUSH1 0x40 SWAP1 KECCAK256 SLOAD PUSH2 0x22FA SWAP1 PUSH1 0x1 PUSH1 0x1 PUSH1 0xA0 SHL SUB AND ISZERO ISZERO PUSH2 0x22C9 JUMP JUMPDEST PUSH1 0x1 PUSH1 0x1 PUSH1 0xA0 SHL SUB DUP9 AND PUSH1 0x0 DUP2 DUP2 MSTORE PUSH1 0x3 PUSH1 0x20 SWAP1 DUP2 MSTORE PUSH1 0x40 DUP1 DUP4 KECCAK256 DUP1 SLOAD PUSH1 0x1 ADD SWAP1 SSTORE DUP16 DUP4 MSTORE PUSH1 0x2 SWAP1 SWAP2 MSTORE DUP2 KECCAK256 DUP1 SLOAD PUSH1 0x1 PUSH1 0x1 PUSH1 0xA0 SHL SUB NOT AND DUP4 OR SWAP1 SSTORE DUP14 SWAP2 SWAP1 PUSH32 0xDDF252AD1BE2C89B69C2B068FC378DAA952BA7F163C4A11628F55A4DF523B3EF DUP2 DUP1 LOG4 DUP12 DUP9 PUSH2 0x1FE4 JUMP JUMPDEST PUSH1 0x0 DUP10 DUP2 MSTORE PUSH1 0x2 PUSH1 0x20 MSTORE PUSH1 0x40 SWAP1 KECCAK256 SLOAD PUSH1 0x1 PUSH1 0x1 PUSH1 0xA0 SHL SUB AND ISZERO PUSH2 0x2A7E JUMPI DUP9 PUSH1 0x0 MSTORE PUSH1 0x6 PUSH1 0x20 MSTORE PUSH1 0x40 PUSH1 0x0 KECCAK256 SWAP1 DUP1 MLOAD SWAP1 PUSH1 0x1 PUSH1 0x1 PUSH1 0x40 SHL SUB DUP3 GT PUSH2 0x197E JUMPI DUP2 SWAP1 PUSH2 0x23AD DUP5 SLOAD PUSH2 0x1928 JUMP JUMPDEST PUSH1 0x1F DUP2 GT PUSH2 0x2A4C JUMPI JUMPDEST POP PUSH1 0x20 SWAP1 PUSH1 0x1F DUP4 GT PUSH1 0x1 EQ PUSH2 0x29E0 JUMPI PUSH1 0x0 SWAP3 PUSH2 0x29D5 JUMPI JUMPDEST POP POP DUP2 PUSH1 0x1 SHL SWAP2 PUSH1 0x0 NOT SWAP1 PUSH1 0x3 SHL SHR NOT AND OR SWAP1 SSTORE JUMPDEST PUSH32 0xF8E1A15ABA9398E019F0B49DF1A4FDE98EE17AE345CB5F6B5E2C27F5033E8CE7 PUSH1 0x20 PUSH1 0x40 MLOAD DUP11 DUP2 MSTORE LOG1 PUSH1 0x40 MLOAD SWAP6 PUSH2 0x2419 DUP8 PUSH2 0x1962 JUMP JUMPDEST DUP4 DUP8 MSTORE DUP6 PUSH1 0x20 DUP9 ADD MSTORE PUSH1 0x1 DUP1 PUSH1 0xA0 SHL SUB DUP6 AND PUSH1 0x40 DUP9 ADD MSTORE TIMESTAMP PUSH1 0x60 DUP9 ADD MSTORE DUP8 PUSH1 0x80 DUP9 ADD MSTORE PUSH1 0xA0 DUP8 ADD MSTORE PUSH1 0xC0 DUP7 ADD MSTORE PUSH1 0x1 PUSH1 0xE0 DUP7 ADD MSTORE DUP7 PUSH1 0x0 MSTORE PUSH1 0xA PUSH1 0x20 MSTORE PUSH1 0x40 PUSH1 0x0 KECCAK256 DUP6 MLOAD DUP1 MLOAD SWAP1 PUSH1 0x1 PUSH1 0x1 PUSH1 0x40 SHL SUB DUP3 GT PUSH2 0x197E JUMPI DUP2 SWAP1 PUSH2 0x247A DUP5 SLOAD PUSH2 0x1928 JUMP JUMPDEST PUSH1 0x1F DUP2 GT PUSH2 0x29A3 JUMPI JUMPDEST POP PUSH1 0x20 SWAP1 PUSH1 0x1F DUP4 GT PUSH1 0x1 EQ PUSH2 0x2937 JUMPI PUSH1 0x0 SWAP3 PUSH2 0x292C JUMPI JUMPDEST POP POP DUP2 PUSH1 0x1 SHL SWAP2 PUSH1 0x0 NOT SWAP1 PUSH1 0x3 SHL SHR NOT AND OR DUP2 SSTORE JUMPDEST PUSH1 0x20 DUP7 ADD MLOAD DUP1 MLOAD SWAP1 PUSH1 0x1 PUSH1 0x1 PUSH1 0x40 SHL SUB DUP3 GT PUSH2 0x197E JUMPI DUP2 SWAP1 PUSH2 0x24D4 PUSH1 0x1 DUP6 ADD SLOAD PUSH2 0x1928 JUMP JUMPDEST PUSH1 0x1F DUP2 GT PUSH2 0x28F7 JUMPI JUMPDEST POP PUSH1 0x20 SWAP1 PUSH1 0x1F DUP4 GT PUSH1 0x1 EQ PUSH2 0x2885 JUMPI PUSH1 0x0 SWAP3 PUSH2 0x287A JUMPI JUMPDEST POP POP DUP2 PUSH1 0x1 SHL SWAP2 PUSH1 0x0 NOT SWAP1 PUSH1 0x3 SHL SHR NOT AND OR PUSH1 0x1 DUP3 ADD SSTORE JUMPDEST PUSH1 0x2 DUP2 ADD PUSH1 0x1 DUP1 PUSH1 0xA0 SHL SUB PUSH1 0x40 DUP9 ADD MLOAD AND PUSH1 0x1 PUSH1 0x1 PUSH1 0x60 SHL SUB PUSH1 0xA0 SHL DUP3 SLOAD AND OR SWAP1 SSTORE PUSH1 0x60 DUP7 ADD MLOAD PUSH1 0x3 DUP3 ADD SSTORE PUSH1 0x80 DUP7 ADD MLOAD PUSH1 0x4 DUP3 ADD SSTORE PUSH1 0xA0 DUP7 ADD MLOAD DUP1 MLOAD SWAP1 PUSH1 0x1 PUSH1 0x1 PUSH1 0x40 SHL SUB DUP3 GT PUSH2 0x197E JUMPI DUP2 SWAP1 PUSH2 0x2567 PUSH1 0x5 DUP6 ADD SLOAD PUSH2 0x1928 JUMP JUMPDEST PUSH1 0x1F DUP2 GT PUSH2 0x2845 JUMPI JUMPDEST POP PUSH1 0x20 SWAP1 PUSH1 0x1F DUP4 GT PUSH1 0x1 EQ PUSH2 0x27D3 JUMPI PUSH1 0x0 SWAP3 PUSH2 0x27C8 JUMPI JUMPDEST POP POP DUP2 PUSH1 0x1 SHL SWAP2 PUSH1 0x0 NOT SWAP1 PUSH1 0x3 SHL SHR NOT AND OR PUSH1 0x5 DUP3 ADD SSTORE JUMPDEST PUSH1 0xC0 DUP7 ADD MLOAD SWAP6 DUP7 MLOAD PUSH1 0x1 PUSH1 0x1 PUSH1 0x40 SHL SUB DUP2 GT PUSH2 0x197E JUMPI DUP10 SWAP8 PUSH2 0x25C4 PUSH1 0x6 DUP6 ADD SLOAD PUSH2 0x1928 JUMP JUMPDEST PUSH1 0x1F DUP2 GT PUSH2 0x2788 JUMPI JUMPDEST POP PUSH1 0x20 SWAP1 PUSH1 0x1F DUP4 GT PUSH1 0x1 EQ PUSH2 0x26E1 JUMPI SWAP4 PUSH1 0x7 PUSH1 0xE0 PUSH32 0x69C2EF69279BD95361B92E81471AC7E6062D893B90C8DA20820CFD23255B96AA SWAP11 SWAP9 SWAP6 DUP6 PUSH2 0x26B0 SWAP12 SWAP10 SWAP7 PUSH2 0x264B SWAP7 PUSH2 0x26BE SWAP11 PUSH1 0x0 SWAP3 PUSH2 0x26D6 JUMPI JUMPDEST POP POP DUP2 PUSH1 0x1 SHL SWAP2 PUSH1 0x0 NOT SWAP1 PUSH1 0x3 SHL SHR NOT AND OR PUSH1 0x6 DUP6 ADD SSTORE JUMPDEST ADD MLOAD ISZERO ISZERO SWAP2 ADD SWAP1 PUSH1 0xFF DUP1 NOT DUP4 SLOAD AND SWAP2 ISZERO ISZERO AND OR SWAP1 SSTORE JUMP JUMPDEST PUSH1 0x1 DUP1 PUSH1 0xA0 SHL SUB DUP5 AND PUSH1 0x0 MSTORE PUSH1 0xB PUSH1 0x20 MSTORE DUP8 PUSH1 0x40 PUSH1 0x0 KECCAK256 PUSH1 0x20 PUSH1 0x40 MLOAD DUP1 SWAP3 DUP3 PUSH2 0x267A DUP12 DUP5 DUP2 MLOAD SWAP4 DUP5 SWAP3 ADD PUSH2 0x180F JUMP JUMPDEST DUP3 ADD SWAP1 DUP2 MSTORE SUB ADD SWAP1 KECCAK256 SSTORE PUSH1 0x0 MSTORE PUSH1 0xC PUSH1 0x20 MSTORE PUSH1 0x40 PUSH1 0x0 KECCAK256 PUSH1 0x1 PUSH1 0xFF NOT DUP3 SLOAD AND OR SWAP1 SSTORE PUSH1 0x40 MLOAD SWAP5 DUP6 SWAP5 PUSH1 0x60 DUP7 MSTORE PUSH1 0x60 DUP7 ADD SWAP1 PUSH2 0x1832 JUMP JUMPDEST SWAP1 DUP5 DUP3 SUB PUSH1 0x20 DUP7 ADD MSTORE PUSH2 0x1832 JUMP JUMPDEST PUSH1 0x40 DUP4 ADD SWAP7 SWAP1 SWAP7 MSTORE PUSH1 0x1 PUSH1 0x1 PUSH1 0xA0 SHL SUB AND SWAP5 SUB SWAP1 LOG3 SWAP1 JUMP JUMPDEST ADD MLOAD SWAP1 POP CODESIZE DUP1 PUSH2 0x261C JUMP JUMPDEST SWAP1 PUSH1 0x6 DUP6 ADD PUSH1 0x0 MSTORE PUSH1 0x20 PUSH1 0x0 KECCAK256 SWAP2 PUSH1 0x0 JUMPDEST PUSH1 0x1F NOT DUP6 AND DUP2 LT PUSH2 0x276D JUMPI POP PUSH1 0xE0 PUSH32 0x69C2EF69279BD95361B92E81471AC7E6062D893B90C8DA20820CFD23255B96AA SWAP11 SWAP9 SWAP6 PUSH1 0x1 DUP7 PUSH2 0x264B SWAP7 PUSH2 0x26BE SWAP11 SWAP7 PUSH1 0x7 SWAP7 PUSH2 0x26B0 SWAP16 SWAP14 SWAP11 PUSH1 0x1F NOT DUP2 AND LT PUSH2 0x2754 JUMPI JUMPDEST POP POP POP DUP2 SHL ADD PUSH1 0x6 DUP6 ADD SSTORE PUSH2 0x2634 JUMP JUMPDEST ADD MLOAD PUSH1 0x0 NOT PUSH1 0xF8 DUP5 PUSH1 0x3 SHL AND SHR NOT AND SWAP1 SSTORE CODESIZE DUP1 DUP1 PUSH2 0x2744 JUMP JUMPDEST DUP2 DUP4 ADD MLOAD DUP5 SSTORE DUP14 SWAP12 POP PUSH1 0x1 SWAP1 SWAP4 ADD SWAP3 PUSH1 0x20 SWAP3 DUP4 ADD SWAP3 ADD PUSH2 0x26F2 JUMP JUMPDEST PUSH2 0x27B8 SWAP1 PUSH1 0x6 DUP7 ADD PUSH1 0x0 MSTORE PUSH1 0x20 PUSH1 0x0 KECCAK256 PUSH1 0x1F DUP6 ADD PUSH1 0x5 SHR DUP2 ADD SWAP2 PUSH1 0x20 DUP7 LT PUSH2 0x27BE JUMPI JUMPDEST PUSH1 0x1F ADD PUSH1 0x5 SHR ADD SWAP1 PUSH2 0x21F6 JUMP JUMPDEST CODESIZE PUSH2 0x25CD JUMP JUMPDEST SWAP1 SWAP2 POP DUP2 SWAP1 PUSH2 0x27AB JUMP JUMPDEST ADD MLOAD SWAP1 POP CODESIZE DUP1 PUSH2 0x2587 JUMP JUMPDEST SWAP3 POP PUSH1 0x5 DUP5 ADD PUSH1 0x0 MSTORE PUSH1 0x20 PUSH1 0x0 KECCAK256 SWAP1 PUSH1 0x0 SWAP4 JUMPDEST PUSH1 0x1F NOT DUP5 AND DUP6 LT PUSH2 0x282A JUMPI PUSH1 0x1 SWAP5 POP DUP4 PUSH1 0x1F NOT DUP2 AND LT PUSH2 0x2811 JUMPI JUMPDEST POP POP POP DUP2 SHL ADD PUSH1 0x5 DUP3 ADD SSTORE PUSH2 0x259F JUMP JUMPDEST ADD MLOAD PUSH1 0x0 NOT PUSH1 0xF8 DUP5 PUSH1 0x3 SHL AND SHR NOT AND SWAP1 SSTORE CODESIZE DUP1 DUP1 PUSH2 0x2801 JUMP JUMPDEST DUP2 DUP2 ADD MLOAD DUP4 SSTORE PUSH1 0x20 SWAP5 DUP6 ADD SWAP5 PUSH1 0x1 SWAP1 SWAP4 ADD SWAP3 SWAP1 SWAP2 ADD SWAP1 PUSH2 0x27E6 JUMP JUMPDEST PUSH2 0x2874 SWAP1 PUSH1 0x5 DUP7 ADD PUSH1 0x0 MSTORE PUSH1 0x20 PUSH1 0x0 KECCAK256 PUSH1 0x1F DUP6 ADD PUSH1 0x5 SHR DUP2 ADD SWAP2 PUSH1 0x20 DUP7 LT PUSH2 0x27BE JUMPI PUSH1 0x1F ADD PUSH1 0x5 SHR ADD SWAP1 PUSH2 0x21F6 JUMP JUMPDEST CODESIZE PUSH2 0x2570 JUMP JUMPDEST ADD MLOAD SWAP1 POP CODESIZE DUP1 PUSH2 0x24F4 JUMP JUMPDEST SWAP3 POP PUSH1 0x1 DUP5 ADD PUSH1 0x0 MSTORE PUSH1 0x20 PUSH1 0x0 KECCAK256 SWAP1 PUSH1 0x0 SWAP4 JUMPDEST PUSH1 0x1F NOT DUP5 AND DUP6 LT PUSH2 0x28DC JUMPI PUSH1 0x1 SWAP5 POP DUP4 PUSH1 0x1F NOT DUP2 AND LT PUSH2 0x28C3 JUMPI JUMPDEST POP POP POP DUP2 SHL ADD PUSH1 0x1 DUP3 ADD SSTORE PUSH2 0x250C JUMP JUMPDEST ADD MLOAD PUSH1 0x0 NOT PUSH1 0xF8 DUP5 PUSH1 0x3 SHL AND SHR NOT AND SWAP1 SSTORE CODESIZE DUP1 DUP1 PUSH2 0x28B3 JUMP JUMPDEST DUP2 DUP2 ADD MLOAD DUP4 SSTORE PUSH1 0x20 SWAP5 DUP6 ADD SWAP5 PUSH1 0x1 SWAP1 SWAP4 ADD SWAP3 SWAP1 SWAP2 ADD SWAP1 PUSH2 0x2898 JUMP JUMPDEST PUSH2 0x2926 SWAP1 PUSH1 0x1 DUP7 ADD PUSH1 0x0 MSTORE PUSH1 0x20 PUSH1 0x0 KECCAK256 PUSH1 0x1F DUP6 ADD PUSH1 0x5 SHR DUP2 ADD SWAP2 PUSH1 0x20 DUP7 LT PUSH2 0x27BE JUMPI PUSH1 0x1F ADD PUSH1 0x5 SHR ADD SWAP1 PUSH2 0x21F6 JUMP JUMPDEST CODESIZE PUSH2 0x24DD JUMP JUMPDEST ADD MLOAD SWAP1 POP CODESIZE DUP1 PUSH2 0x249A JUMP JUMPDEST SWAP3 POP DUP4 PUSH1 0x0 MSTORE PUSH1 0x20 PUSH1 0x0 KECCAK256 SWAP1 PUSH1 0x0 SWAP4 JUMPDEST PUSH1 0x1F NOT DUP5 AND DUP6 LT PUSH2 0x2988 JUMPI PUSH1 0x1 SWAP5 POP DUP4 PUSH1 0x1F NOT DUP2 AND LT PUSH2 0x296F JUMPI JUMPDEST POP POP POP DUP2 SHL ADD DUP2 SSTORE PUSH2 0x24AF JUMP JUMPDEST ADD MLOAD PUSH1 0x0 NOT PUSH1 0xF8 DUP5 PUSH1 0x3 SHL AND SHR NOT AND SWAP1 SSTORE CODESIZE DUP1 DUP1 PUSH2 0x2962 JUMP JUMPDEST DUP2 DUP2 ADD MLOAD DUP4 SSTORE PUSH1 0x20 SWAP5 DUP6 ADD SWAP5 PUSH1 0x1 SWAP1 SWAP4 ADD SWAP3 SWAP1 SWAP2 ADD SWAP1 PUSH2 0x2947 JUMP JUMPDEST PUSH2 0x29CF SWAP1 DUP6 PUSH1 0x0 MSTORE PUSH1 0x20 PUSH1 0x0 KECCAK256 PUSH1 0x1F DUP6 ADD PUSH1 0x5 SHR DUP2 ADD SWAP2 PUSH1 0x20 DUP7 LT PUSH2 0x27BE JUMPI PUSH1 0x1F ADD PUSH1 0x5 SHR ADD SWAP1 PUSH2 0x21F6 JUMP JUMPDEST CODESIZE PUSH2 0x2483 JUMP JUMPDEST ADD MLOAD SWAP1 POP CODESIZE DUP1 PUSH2 0x23CD JUMP JUMPDEST SWAP3 POP DUP4 PUSH1 0x0 MSTORE PUSH1 0x20 PUSH1 0x0 KECCAK256 SWAP1 PUSH1 0x0 SWAP4 JUMPDEST PUSH1 0x1F NOT DUP5 AND DUP6 LT PUSH2 0x2A31 JUMPI PUSH1 0x1 SWAP5 POP DUP4 PUSH1 0x1F NOT DUP2 AND LT PUSH2 0x2A18 JUMPI JUMPDEST POP POP POP DUP2 SHL ADD SWAP1 SSTORE PUSH2 0x23E2 JUMP JUMPDEST ADD MLOAD PUSH1 0x0 NOT PUSH1 0xF8 DUP5 PUSH1 0x3 SHL AND SHR NOT AND SWAP1 SSTORE CODESIZE DUP1 DUP1 PUSH2 0x2A0B JUMP JUMPDEST DUP2 DUP2 ADD MLOAD DUP4 SSTORE PUSH1 0x20 SWAP5 DUP6 ADD SWAP5 PUSH1 0x1 SWAP1 SWAP4 ADD SWAP3 SWAP1 SWAP2 ADD SWAP1 PUSH2 0x29F0 JUMP JUMPDEST PUSH2 0x2A78 SWAP1 DUP6 PUSH1 0x0 MSTORE PUSH1 0x20 PUSH1 0x0 KECCAK256 PUSH1 0x1F DUP6 ADD PUSH1 0x5 SHR DUP2 ADD SWAP2 PUSH1 0x20 DUP7 LT PUSH2 0x27BE JUMPI PUSH1 0x1F ADD PUSH1 0x5 SHR ADD SWAP1 PUSH2 0x21F6 JUMP JUMPDEST CODESIZE PUSH2 0x23B6 JUMP JUMPDEST PUSH1 0x40 MLOAD PUSH3 0x461BCD PUSH1 0xE5 SHL DUP2 MSTORE PUSH1 0x20 PUSH1 0x4 DUP3 ADD MSTORE PUSH1 0x2E PUSH1 0x24 DUP3 ADD MSTORE PUSH32 0x45524337323155524953746F726167653A2055524920736574206F66206E6F6E PUSH1 0x44 DUP3 ADD MSTORE PUSH14 0x32BC34B9BA32B73A103A37B5B2B7 PUSH1 0x91 SHL PUSH1 0x64 DUP3 ADD MSTORE PUSH1 0x84 SWAP1 REVERT JUMPDEST PUSH1 0x40 MLOAD PUSH3 0x461BCD PUSH1 0xE5 SHL DUP2 MSTORE PUSH1 0x20 PUSH1 0x4 DUP3 ADD MSTORE PUSH1 0x2A PUSH1 0x24 DUP3 ADD MSTORE PUSH32 0x45445543657274696669636174653A20636572746966696361746520616C7265 PUSH1 0x44 DUP3 ADD MSTORE PUSH10 0x61647920657869737473 PUSH1 0xB0 SHL PUSH1 0x64 DUP3 ADD MSTORE PUSH1 0x84 SWAP1 REVERT JUMPDEST PUSH1 0x40 MLOAD PUSH3 0x461BCD PUSH1 0xE5 SHL DUP2 MSTORE PUSH1 0x20 PUSH1 0x4 DUP3 ADD MSTORE PUSH1 0x2A PUSH1 0x24 DUP3 ADD MSTORE PUSH32 0x45445543657274696669636174653A20636F757273654E616D652063616E6E6F PUSH1 0x44 DUP3 ADD MSTORE PUSH10 0x7420626520656D707479 PUSH1 0xB0 SHL PUSH1 0x64 DUP3 ADD MSTORE PUSH1 0x84 SWAP1 REVERT JUMPDEST PUSH1 0x40 MLOAD PUSH3 0x461BCD PUSH1 0xE5 SHL DUP2 MSTORE PUSH1 0x20 PUSH1 0x4 DUP3 ADD MSTORE PUSH1 0x28 PUSH1 0x24 DUP3 ADD MSTORE PUSH32 0x45445543657274696669636174653A20636F7572736549642063616E6E6F7420 PUSH1 0x44 DUP3 ADD MSTORE PUSH8 0x626520656D707479 PUSH1 0xC0 SHL PUSH1 0x64 DUP3 ADD MSTORE PUSH1 0x84 SWAP1 REVERT JUMPDEST PUSH1 0x40 MLOAD PUSH3 0x461BCD PUSH1 0xE5 SHL DUP2 MSTORE PUSH1 0x20 PUSH1 0x4 DUP3 ADD MSTORE PUSH1 0x2C PUSH1 0x24 DUP3 ADD MSTORE PUSH32 0x45445543657274696669636174653A2063616E6E6F7420697373756520746F20 PUSH1 0x44 DUP3 ADD MSTORE PUSH12 0x7A65726F2061646472657373 PUSH1 0xA0 SHL PUSH1 0x64 DUP3 ADD MSTORE PUSH1 0x84 SWAP1 REVERT JUMPDEST ISZERO PUSH2 0x2C41 JUMPI JUMP JUMPDEST PUSH1 0x40 MLOAD PUSH3 0x461BCD PUSH1 0xE5 SHL DUP2 MSTORE PUSH1 0x20 PUSH1 0x4 DUP3 ADD MSTORE PUSH1 0x1C PUSH1 0x24 DUP3 ADD MSTORE PUSH32 0x4552433732313A20746F6B656E20616C7265616479206D696E74656400000000 PUSH1 0x44 DUP3 ADD MSTORE PUSH1 0x64 SWAP1 REVERT JUMPDEST ISZERO PUSH2 0x2C8D JUMPI JUMP JUMPDEST PUSH1 0x40 MLOAD PUSH3 0x461BCD PUSH1 0xE5 SHL DUP2 MSTORE PUSH1 0x20 PUSH1 0x4 DUP3 ADD MSTORE PUSH1 0x26 PUSH1 0x24 DUP3 ADD MSTORE PUSH32 0x45445543657274696669636174653A20617272617973206C656E677468206D69 PUSH1 0x44 DUP3 ADD MSTORE PUSH6 0xE6DAC2E8C6D PUSH1 0xD3 SHL PUSH1 0x64 DUP3 ADD MSTORE PUSH1 0x84 SWAP1 REVERT JUMPDEST PUSH1 0x1 PUSH1 0x1 PUSH1 0x40 SHL SUB DUP2 GT PUSH2 0x197E JUMPI PUSH1 0x5 SHL PUSH1 0x20 ADD SWAP1 JUMP JUMPDEST SWAP1 PUSH2 0x2D02 DUP3 PUSH2 0x2CE1 JUMP JUMPDEST PUSH2 0x2D0F PUSH1 0x40 MLOAD SWAP2 DUP3 PUSH2 0x19AF JUMP JUMPDEST DUP3 DUP2 MSTORE DUP1 SWAP3 PUSH2 0x2D20 PUSH1 0x1F NOT SWAP2 PUSH2 0x2CE1 JUMP JUMPDEST ADD SWAP1 PUSH1 0x20 CALLDATASIZE SWAP2 ADD CALLDATACOPY JUMP JUMPDEST PUSH1 0x0 NOT DUP2 EQ PUSH2 0x2D39 JUMPI PUSH1 0x1 ADD SWAP1 JUMP JUMPDEST PUSH4 0x4E487B71 PUSH1 0xE0 SHL PUSH1 0x0 MSTORE PUSH1 0x11 PUSH1 0x4 MSTORE PUSH1 0x24 PUSH1 0x0 REVERT JUMPDEST SWAP2 SWAP1 DUP2 LT ISZERO PUSH2 0x2D5F JUMPI PUSH1 0x5 SHL ADD SWAP1 JUMP JUMPDEST PUSH4 0x4E487B71 PUSH1 0xE0 SHL PUSH1 0x0 MSTORE PUSH1 0x32 PUSH1 0x4 MSTORE PUSH1 0x24 PUSH1 0x0 REVERT JUMPDEST SWAP2 SWAP1 DUP2 LT ISZERO PUSH2 0x2D5F JUMPI PUSH1 0x5 SHL DUP2 ADD CALLDATALOAD SWAP1 PUSH1 0x1E NOT DUP2 CALLDATASIZE SUB ADD DUP3 SLT ISZERO PUSH2 0x1E2 JUMPI ADD SWAP1 DUP2 CALLDATALOAD SWAP2 PUSH1 0x1 PUSH1 0x1 PUSH1 0x40 SHL SUB DUP4 GT PUSH2 0x1E2 JUMPI PUSH1 0x20 ADD DUP3 CALLDATASIZE SUB DUP2 SGT PUSH2 0x1E2 JUMPI SWAP2 SWAP1 JUMP JUMPDEST DUP1 MLOAD DUP3 LT ISZERO PUSH2 0x2D5F JUMPI PUSH1 0x20 SWAP2 PUSH1 0x5 SHL ADD ADD SWAP1 JUMP JUMPDEST ISZERO PUSH2 0x2DD1 JUMPI JUMP JUMPDEST PUSH1 0x40 MLOAD PUSH3 0x461BCD PUSH1 0xE5 SHL DUP2 MSTORE PUSH1 0x20 PUSH1 0x4 DUP3 ADD MSTORE PUSH1 0x2A PUSH1 0x24 DUP3 ADD MSTORE PUSH32 0x45445543657274696669636174653A20636572746966696361746520646F6573 PUSH1 0x44 DUP3 ADD MSTORE PUSH10 0x81B9BDD08195E1A5CDD PUSH1 0xB2 SHL PUSH1 0x64 DUP3 ADD MSTORE PUSH1 0x84 SWAP1 REVERT JUMPDEST PUSH1 0xFF PUSH1 0x7 SLOAD AND PUSH2 0x2E35 JUMPI JUMP JUMPDEST PUSH1 0x40 MLOAD PUSH3 0x461BCD PUSH1 0xE5 SHL DUP2 MSTORE PUSH1 0x20 PUSH1 0x4 DUP3 ADD MSTORE PUSH1 0x10 PUSH1 0x24 DUP3 ADD MSTORE PUSH16 0x14185D5CD8589B194E881C185D5CD959 PUSH1 0x82 SHL PUSH1 0x44 DUP3 ADD MSTORE PUSH1 0x64 SWAP1 REVERT INVALID LOG2 PUSH5 0x6970667358 0x22 SLT KECCAK256 DUP15 DUP11 PUSH16 0x8A6919C6BBD16769B6CC010C471D9631 0x5C 0xF6 SHL 0x2B CODESIZE 0x5E 0xD5 0x2C 0xDC PUSH29 0xE8D50A64736F6C63430008130033000000000000000000000000000000 "},"methodIdentifiers":{"addIssuer(address)":"20694db0","approve(address,uint256)":"095ea7b3","authorizedIssuers(address)":"f731fa0f","balanceOf(address)":"70a08231","batchIssueCertificates(address[],string[],string[],uint256[],string[],string[],string[])":"a2171606","burn(uint256)":"42966c68","certificateExists(bytes32)":"b440983e","certificates(uint256)":"663b3e22","getApproved(uint256)":"081812fc","getStudentCertificate(address,string)":"77ec4eae","getStudentCertificates(address)":"ebc63bc0","hasCertificate(address,string)":"3c433ebe","isApprovedForAll(address,address)":"e985e9c5","isIssuer(address)":"877b9a67","issueCertificate(address,string,string,uint256,string,string,string)":"603d0e61","name()":"06fdde03","owner()":"8da5cb5b","ownerOf(uint256)":"6352211e","pause()":"8456cb59","paused()":"5c975abb","removeIssuer(address)":"47bc7093","renounceOwnership()":"715018a6","revokeCertificate(uint256,string)":"b1466d1d","safeTransferFrom(address,address,uint256)":"42842e0e","safeTransferFrom(address,address,uint256,bytes)":"b88d4fde","setApprovalForAll(address,bool)":"a22cb465","studentCertificates(address,string)":"bbcc20f1","supportsInterface(bytes4)":"01ffc9a7","symbol()":"95d89b41","tokenURI(uint256)":"c87b56dd","totalSupply()":"18160ddd","transferFrom(address,address,uint256)":"23b872dd","transferOwnership(address)":"f2fde38b","unpause()":"3f4ba83a","verifyCertificate(uint256)":"1692a942"}}}}}